{
  "address": "0xf20Ab661ed1dE1DfF7e9B9A89aDD01Bdb6CFE6b1",
  "abi": [
    {
      "inputs": [
        {
          "internalType": "address[]",
          "name": "_bluechips",
          "type": "address[]"
        },
        {
          "internalType": "uint16[]",
          "name": "_multipers",
          "type": "uint16[]"
        },
        {
          "internalType": "address",
          "name": "_superAdmin",
          "type": "address"
        },
        {
          "internalType": "contract ITerminalDirectory",
          "name": "_terminalDirectory",
          "type": "address"
        }
      ],
      "stateMutability": "nonpayable",
      "type": "constructor"
    },
    {
      "inputs": [],
      "name": "BadMultiper",
      "type": "error"
    },
    {
      "inputs": [],
      "name": "BoosterNotRegisterd",
      "type": "error"
    },
    {
      "inputs": [],
      "name": "BoosterRegisterd",
      "type": "error"
    },
    {
      "inputs": [],
      "name": "ChallengeFailed",
      "type": "error"
    },
    {
      "inputs": [],
      "name": "ForbiddenUpdate",
      "type": "error"
    },
    {
      "inputs": [],
      "name": "InsufficientBalance",
      "type": "error"
    },
    {
      "inputs": [],
      "name": "NotAdmin",
      "type": "error"
    },
    {
      "inputs": [],
      "name": "NotNFTOwner",
      "type": "error"
    },
    {
      "inputs": [],
      "name": "OnlyGovernor",
      "type": "error"
    },
    {
      "inputs": [],
      "name": "ProofNotRegisterd",
      "type": "error"
    },
    {
      "inputs": [],
      "name": "RedeemAfterExpired",
      "type": "error"
    },
    {
      "inputs": [],
      "name": "RenewFirst",
      "type": "error"
    },
    {
      "inputs": [],
      "name": "SizeNotMatch",
      "type": "error"
    },
    {
      "inputs": [],
      "name": "TransferDisabled",
      "type": "error"
    },
    {
      "inputs": [],
      "name": "UnAuthorized",
      "type": "error"
    },
    {
      "inputs": [],
      "name": "ZeroAddress",
      "type": "error"
    },
    {
      "anonymous": false,
      "inputs": [
        {
          "indexed": false,
          "internalType": "address",
          "name": "bluechip",
          "type": "address"
        },
        {
          "indexed": false,
          "internalType": "uint16",
          "name": "multiper",
          "type": "uint16"
        }
      ],
      "name": "AddBluechip",
      "type": "event"
    },
    {
      "anonymous": false,
      "inputs": [
        {
          "indexed": true,
          "internalType": "uint256",
          "name": "projectId",
          "type": "uint256"
        },
        {
          "indexed": false,
          "internalType": "address[]",
          "name": "bluechips",
          "type": "address[]"
        },
        {
          "indexed": false,
          "internalType": "uint16[]",
          "name": "multipers",
          "type": "uint16[]"
        }
      ],
      "name": "AddCustomBooster",
      "type": "event"
    },
    {
      "anonymous": false,
      "inputs": [
        {
          "indexed": true,
          "internalType": "address",
          "name": "owner",
          "type": "address"
        },
        {
          "indexed": true,
          "internalType": "address",
          "name": "approved",
          "type": "address"
        },
        {
          "indexed": true,
          "internalType": "uint256",
          "name": "tokenId",
          "type": "uint256"
        }
      ],
      "name": "Approval",
      "type": "event"
    },
    {
      "anonymous": false,
      "inputs": [
        {
          "indexed": true,
          "internalType": "address",
          "name": "owner",
          "type": "address"
        },
        {
          "indexed": true,
          "internalType": "address",
          "name": "operator",
          "type": "address"
        },
        {
          "indexed": false,
          "internalType": "bool",
          "name": "approved",
          "type": "bool"
        }
      ],
      "name": "ApprovalForAll",
      "type": "event"
    },
    {
      "anonymous": false,
      "inputs": [
        {
          "indexed": true,
          "internalType": "uint256",
          "name": "projectId",
          "type": "uint256"
        },
        {
          "indexed": true,
          "internalType": "address",
          "name": "from",
          "type": "address"
        },
        {
          "indexed": true,
          "internalType": "address",
          "name": "bluechip",
          "type": "address"
        },
        {
          "indexed": false,
          "internalType": "uint256",
          "name": "tokenId",
          "type": "uint256"
        },
        {
          "indexed": false,
          "internalType": "bytes32",
          "name": "proof",
          "type": "bytes32"
        }
      ],
      "name": "ChallengeCustomizedProof",
      "type": "event"
    },
    {
      "anonymous": false,
      "inputs": [
        {
          "indexed": true,
          "internalType": "address",
          "name": "from",
          "type": "address"
        },
        {
          "indexed": true,
          "internalType": "address",
          "name": "bluechip",
          "type": "address"
        },
        {
          "indexed": false,
          "internalType": "uint256",
          "name": "tokenId",
          "type": "uint256"
        },
        {
          "indexed": false,
          "internalType": "bytes32",
          "name": "proof",
          "type": "bytes32"
        }
      ],
      "name": "ChallengeProof",
      "type": "event"
    },
    {
      "anonymous": false,
      "inputs": [
        {
          "indexed": true,
          "internalType": "uint256",
          "name": "projectId",
          "type": "uint256"
        },
        {
          "indexed": true,
          "internalType": "address",
          "name": "from",
          "type": "address"
        },
        {
          "indexed": true,
          "internalType": "address",
          "name": "bluechip",
          "type": "address"
        },
        {
          "indexed": false,
          "internalType": "uint256",
          "name": "tokenId",
          "type": "uint256"
        },
        {
          "indexed": false,
          "internalType": "bytes32",
          "name": "proof",
          "type": "bytes32"
        },
        {
          "indexed": false,
          "internalType": "uint256",
          "name": "proofExpiry",
          "type": "uint256"
        },
        {
          "indexed": false,
          "internalType": "uint256",
          "name": "weight",
          "type": "uint256"
        }
      ],
      "name": "CreateCustomizedProof",
      "type": "event"
    },
    {
      "anonymous": false,
      "inputs": [
        {
          "indexed": true,
          "internalType": "address",
          "name": "from",
          "type": "address"
        },
        {
          "indexed": true,
          "internalType": "address",
          "name": "bluechip",
          "type": "address"
        },
        {
          "indexed": false,
          "internalType": "uint256",
          "name": "tokenId",
          "type": "uint256"
        },
        {
          "indexed": false,
          "internalType": "bytes32",
          "name": "proof",
          "type": "bytes32"
        },
        {
          "indexed": false,
          "internalType": "uint256",
          "name": "proofExpiry",
          "type": "uint256"
        },
        {
          "indexed": false,
          "internalType": "uint256",
          "name": "weight",
          "type": "uint256"
        }
      ],
      "name": "CreateProof",
      "type": "event"
    },
    {
      "anonymous": false,
      "inputs": [
        {
          "indexed": true,
          "internalType": "uint256",
          "name": "projectId",
          "type": "uint256"
        },
        {
          "indexed": true,
          "internalType": "address",
          "name": "from",
          "type": "address"
        },
        {
          "indexed": true,
          "internalType": "address",
          "name": "bluechip",
          "type": "address"
        },
        {
          "indexed": false,
          "internalType": "uint256",
          "name": "tokenId",
          "type": "uint256"
        },
        {
          "indexed": false,
          "internalType": "bytes32",
          "name": "proof",
          "type": "bytes32"
        }
      ],
      "name": "RedeemCustomizedProof",
      "type": "event"
    },
    {
      "anonymous": false,
      "inputs": [
        {
          "indexed": true,
          "internalType": "address",
          "name": "from",
          "type": "address"
        },
        {
          "indexed": true,
          "internalType": "address",
          "name": "bluechip",
          "type": "address"
        },
        {
          "indexed": false,
          "internalType": "uint256",
          "name": "tokenId",
          "type": "uint256"
        },
        {
          "indexed": false,
          "internalType": "bytes32",
          "name": "proof",
          "type": "bytes32"
        }
      ],
      "name": "RedeemProof",
      "type": "event"
    },
    {
      "anonymous": false,
      "inputs": [
        {
          "indexed": true,
          "internalType": "address",
          "name": "from",
          "type": "address"
        },
        {
          "indexed": false,
          "internalType": "address",
          "name": "beneficiary",
          "type": "address"
        },
        {
          "indexed": false,
          "internalType": "bytes32",
          "name": "proof",
          "type": "bytes32"
        },
        {
          "indexed": true,
          "internalType": "address",
          "name": "bluechip",
          "type": "address"
        },
        {
          "indexed": false,
          "internalType": "uint256",
          "name": "tokenId",
          "type": "uint256"
        },
        {
          "indexed": false,
          "internalType": "uint256",
          "name": "weight",
          "type": "uint256"
        }
      ],
      "name": "Remove",
      "type": "event"
    },
    {
      "anonymous": false,
      "inputs": [
        {
          "indexed": true,
          "internalType": "address",
          "name": "from",
          "type": "address"
        },
        {
          "indexed": false,
          "internalType": "address",
          "name": "beneficiary",
          "type": "address"
        },
        {
          "indexed": false,
          "internalType": "uint256",
          "name": "projectId",
          "type": "uint256"
        },
        {
          "indexed": false,
          "internalType": "bytes32",
          "name": "proof",
          "type": "bytes32"
        },
        {
          "indexed": true,
          "internalType": "address",
          "name": "bluechip",
          "type": "address"
        },
        {
          "indexed": false,
          "internalType": "uint256",
          "name": "tokenId",
          "type": "uint256"
        },
        {
          "indexed": false,
          "internalType": "uint256",
          "name": "weight",
          "type": "uint256"
        }
      ],
      "name": "RemoveCustomize",
      "type": "event"
    },
    {
      "anonymous": false,
      "inputs": [
        {
          "indexed": true,
          "internalType": "uint256",
          "name": "projectId",
          "type": "uint256"
        },
        {
          "indexed": true,
          "internalType": "address",
          "name": "from",
          "type": "address"
        },
        {
          "indexed": true,
          "internalType": "address",
          "name": "bluechip",
          "type": "address"
        },
        {
          "indexed": false,
          "internalType": "uint256",
          "name": "tokenId",
          "type": "uint256"
        },
        {
          "indexed": false,
          "internalType": "bytes32",
          "name": "proof",
          "type": "bytes32"
        },
        {
          "indexed": false,
          "internalType": "uint256",
          "name": "proofExpiry",
          "type": "uint256"
        }
      ],
      "name": "RenewCustomizedProof",
      "type": "event"
    },
    {
      "anonymous": false,
      "inputs": [
        {
          "indexed": true,
          "internalType": "address",
          "name": "from",
          "type": "address"
        },
        {
          "indexed": true,
          "internalType": "address",
          "name": "bluechip",
          "type": "address"
        },
        {
          "indexed": false,
          "internalType": "uint256",
          "name": "tokenId",
          "type": "uint256"
        },
        {
          "indexed": false,
          "internalType": "bytes32",
          "name": "proof",
          "type": "bytes32"
        },
        {
          "indexed": false,
          "internalType": "uint256",
          "name": "proofExpiry",
          "type": "uint256"
        }
      ],
      "name": "RenewProof",
      "type": "event"
    },
    {
      "anonymous": false,
      "inputs": [
        {
          "indexed": true,
          "internalType": "address",
          "name": "from",
          "type": "address"
        },
        {
          "indexed": true,
          "internalType": "address",
          "name": "to",
          "type": "address"
        },
        {
          "indexed": true,
          "internalType": "uint256",
          "name": "tokenId",
          "type": "uint256"
        }
      ],
      "name": "Transfer",
      "type": "event"
    },
    {
      "inputs": [],
      "name": "PROOF_ETH",
      "outputs": [
        {
          "internalType": "uint256",
          "name": "",
          "type": "uint256"
        }
      ],
      "stateMutability": "view",
      "type": "function"
    },
    {
      "inputs": [
        {
          "internalType": "address",
          "name": "_bluechip",
          "type": "address"
        },
        {
          "internalType": "uint16",
          "name": "_multiper",
          "type": "uint16"
        }
      ],
      "name": "addBlueChip",
      "outputs": [],
      "stateMutability": "nonpayable",
      "type": "function"
    },
    {
      "inputs": [
        {
          "internalType": "address",
          "name": "to",
          "type": "address"
        },
        {
          "internalType": "uint256",
          "name": "tokenId",
          "type": "uint256"
        }
      ],
      "name": "approve",
      "outputs": [],
      "stateMutability": "nonpayable",
      "type": "function"
    },
    {
      "inputs": [
        {
          "internalType": "address",
          "name": "owner",
          "type": "address"
        }
      ],
      "name": "balanceOf",
      "outputs": [
        {
          "internalType": "uint256",
          "name": "",
          "type": "uint256"
        }
      ],
      "stateMutability": "view",
      "type": "function"
    },
    {
      "inputs": [
        {
          "internalType": "address",
          "name": "",
          "type": "address"
        }
      ],
      "name": "boosterWeights",
      "outputs": [
        {
          "internalType": "uint256",
          "name": "",
          "type": "uint256"
        }
      ],
      "stateMutability": "view",
      "type": "function"
    },
    {
      "inputs": [
        {
          "internalType": "address",
          "name": "_bluechip",
          "type": "address"
        },
        {
          "internalType": "uint256",
          "name": "_tokenId",
          "type": "uint256"
        },
        {
          "internalType": "uint256",
          "name": "_projectId",
          "type": "uint256"
        }
      ],
      "name": "challengeCustomProof",
      "outputs": [],
      "stateMutability": "nonpayable",
      "type": "function"
    },
    {
      "inputs": [
        {
          "internalType": "address",
          "name": "_bluechip",
          "type": "address"
        },
        {
          "internalType": "uint256",
          "name": "_tokenId",
          "type": "uint256"
        }
      ],
      "name": "challengeProof",
      "outputs": [],
      "stateMutability": "nonpayable",
      "type": "function"
    },
    {
      "inputs": [],
      "name": "count",
      "outputs": [
        {
          "internalType": "uint256",
          "name": "",
          "type": "uint256"
        }
      ],
      "stateMutability": "view",
      "type": "function"
    },
    {
      "inputs": [
        {
          "internalType": "uint256",
          "name": "_projectId",
          "type": "uint256"
        },
        {
          "internalType": "address[]",
          "name": "_bluechips",
          "type": "address[]"
        },
        {
          "internalType": "uint16[]",
          "name": "_multipers",
          "type": "uint16[]"
        }
      ],
      "name": "createCustomBooster",
      "outputs": [],
      "stateMutability": "nonpayable",
      "type": "function"
    },
    {
      "inputs": [
        {
          "internalType": "address",
          "name": "_bluechip",
          "type": "address"
        },
        {
          "internalType": "uint256",
          "name": "_tokenId",
          "type": "uint256"
        },
        {
          "internalType": "uint256",
          "name": "_projectId",
          "type": "uint256"
        }
      ],
      "name": "createCustomProof",
      "outputs": [],
      "stateMutability": "payable",
      "type": "function"
    },
    {
      "inputs": [
        {
          "internalType": "address",
          "name": "_bluechip",
          "type": "address"
        },
        {
          "internalType": "uint256",
          "name": "_tokenId",
          "type": "uint256"
        }
      ],
      "name": "createProof",
      "outputs": [],
      "stateMutability": "payable",
      "type": "function"
    },
    {
      "inputs": [
        {
          "internalType": "uint256",
          "name": "",
          "type": "uint256"
        },
        {
          "internalType": "address",
          "name": "",
          "type": "address"
        }
      ],
      "name": "customBoosterWeights",
      "outputs": [
        {
          "internalType": "uint256",
          "name": "",
          "type": "uint256"
        }
      ],
      "stateMutability": "view",
      "type": "function"
    },
    {
      "inputs": [
        {
          "internalType": "uint256",
          "name": "",
          "type": "uint256"
        },
        {
          "internalType": "address",
          "name": "",
          "type": "address"
        }
      ],
      "name": "customMultiplierOf",
      "outputs": [
        {
          "internalType": "uint16",
          "name": "",
          "type": "uint16"
        }
      ],
      "stateMutability": "view",
      "type": "function"
    },
    {
      "inputs": [
        {
          "internalType": "uint256",
          "name": "tokenId",
          "type": "uint256"
        }
      ],
      "name": "getApproved",
      "outputs": [
        {
          "internalType": "address",
          "name": "",
          "type": "address"
        }
      ],
      "stateMutability": "view",
      "type": "function"
    },
    {
      "inputs": [
        {
          "internalType": "uint256",
          "name": "_projectId",
          "type": "uint256"
        },
        {
          "internalType": "address",
          "name": "_from",
          "type": "address"
        }
      ],
      "name": "getBoosterWeight",
      "outputs": [
        {
          "internalType": "uint256",
          "name": "_weight",
          "type": "uint256"
        }
      ],
      "stateMutability": "view",
      "type": "function"
    },
    {
      "inputs": [
        {
          "internalType": "address",
          "name": "owner",
          "type": "address"
        },
        {
          "internalType": "address",
          "name": "operator",
          "type": "address"
        }
      ],
      "name": "isApprovedForAll",
      "outputs": [
        {
          "internalType": "bool",
          "name": "",
          "type": "bool"
        }
      ],
      "stateMutability": "view",
      "type": "function"
    },
    {
      "inputs": [
        {
          "internalType": "address",
          "name": "",
          "type": "address"
        }
      ],
      "name": "multiplierOf",
      "outputs": [
        {
          "internalType": "uint16",
          "name": "",
          "type": "uint16"
        }
      ],
      "stateMutability": "view",
      "type": "function"
    },
    {
      "inputs": [],
      "name": "name",
      "outputs": [
        {
          "internalType": "string",
          "name": "",
          "type": "string"
        }
      ],
      "stateMutability": "view",
      "type": "function"
    },
    {
      "inputs": [
        {
          "internalType": "uint256",
          "name": "tokenId",
          "type": "uint256"
        }
      ],
      "name": "ownerOf",
      "outputs": [
        {
          "internalType": "address",
          "name": "",
          "type": "address"
        }
      ],
      "stateMutability": "view",
      "type": "function"
    },
    {
      "inputs": [
        {
          "internalType": "bytes32",
          "name": "",
          "type": "bytes32"
        }
      ],
      "name": "proofBy",
      "outputs": [
        {
          "internalType": "address",
          "name": "",
          "type": "address"
        }
      ],
      "stateMutability": "view",
      "type": "function"
    },
    {
      "inputs": [
        {
          "internalType": "bytes32",
          "name": "",
          "type": "bytes32"
        }
      ],
      "name": "proofExpiryOf",
      "outputs": [
        {
          "internalType": "uint256",
          "name": "",
          "type": "uint256"
        }
      ],
      "stateMutability": "view",
      "type": "function"
    },
    {
      "inputs": [
        {
          "internalType": "address",
          "name": "_bluechip",
          "type": "address"
        },
        {
          "internalType": "uint256",
          "name": "_tokenId",
          "type": "uint256"
        },
        {
          "internalType": "uint256",
          "name": "_projectId",
          "type": "uint256"
        }
      ],
      "name": "redeemCustomProof",
      "outputs": [],
      "stateMutability": "nonpayable",
      "type": "function"
    },
    {
      "inputs": [
        {
          "internalType": "address",
          "name": "_bluechip",
          "type": "address"
        },
        {
          "internalType": "uint256",
          "name": "_tokenId",
          "type": "uint256"
        }
      ],
      "name": "redeemProof",
      "outputs": [],
      "stateMutability": "nonpayable",
      "type": "function"
    },
    {
      "inputs": [
        {
          "internalType": "address",
          "name": "_bluechip",
          "type": "address"
        },
        {
          "internalType": "uint256",
          "name": "_tokenId",
          "type": "uint256"
        },
        {
          "internalType": "uint256",
          "name": "_projectId",
          "type": "uint256"
        }
      ],
      "name": "renewCustomProof",
      "outputs": [],
      "stateMutability": "nonpayable",
      "type": "function"
    },
    {
      "inputs": [
        {
          "internalType": "address",
          "name": "_bluechip",
          "type": "address"
        },
        {
          "internalType": "uint256",
          "name": "_tokenId",
          "type": "uint256"
        }
      ],
      "name": "renewProof",
      "outputs": [],
      "stateMutability": "nonpayable",
      "type": "function"
    },
    {
      "inputs": [
        {
          "internalType": "address",
          "name": "from",
          "type": "address"
        },
        {
          "internalType": "address",
          "name": "to",
          "type": "address"
        },
        {
          "internalType": "uint256",
          "name": "tokenId",
          "type": "uint256"
        }
      ],
      "name": "safeTransferFrom",
      "outputs": [],
      "stateMutability": "nonpayable",
      "type": "function"
    },
    {
      "inputs": [
        {
          "internalType": "address",
          "name": "from",
          "type": "address"
        },
        {
          "internalType": "address",
          "name": "to",
          "type": "address"
        },
        {
          "internalType": "uint256",
          "name": "tokenId",
          "type": "uint256"
        },
        {
          "internalType": "bytes",
          "name": "_data",
          "type": "bytes"
        }
      ],
      "name": "safeTransferFrom",
      "outputs": [],
      "stateMutability": "nonpayable",
      "type": "function"
    },
    {
      "inputs": [
        {
          "internalType": "address",
          "name": "operator",
          "type": "address"
        },
        {
          "internalType": "bool",
          "name": "approved",
          "type": "bool"
        }
      ],
      "name": "setApprovalForAll",
      "outputs": [],
      "stateMutability": "nonpayable",
      "type": "function"
    },
    {
      "inputs": [
        {
          "internalType": "bytes32",
          "name": "",
          "type": "bytes32"
        }
      ],
      "name": "stakedOf",
      "outputs": [
        {
          "internalType": "uint256",
          "name": "",
          "type": "uint256"
        }
      ],
      "stateMutability": "view",
      "type": "function"
    },
    {
      "inputs": [],
      "name": "superAdmin",
      "outputs": [
        {
          "internalType": "address",
          "name": "",
          "type": "address"
        }
      ],
      "stateMutability": "view",
      "type": "function"
    },
    {
      "inputs": [
        {
          "internalType": "bytes4",
          "name": "interfaceId",
          "type": "bytes4"
        }
      ],
      "name": "supportsInterface",
      "outputs": [
        {
          "internalType": "bool",
          "name": "",
          "type": "bool"
        }
      ],
      "stateMutability": "view",
      "type": "function"
    },
    {
      "inputs": [],
      "name": "symbol",
      "outputs": [
        {
          "internalType": "string",
          "name": "",
          "type": "string"
        }
      ],
      "stateMutability": "view",
      "type": "function"
    },
    {
      "inputs": [],
      "name": "terminalDirectory",
      "outputs": [
        {
          "internalType": "contract ITerminalDirectory",
          "name": "",
          "type": "address"
        }
      ],
      "stateMutability": "view",
      "type": "function"
    },
    {
      "inputs": [
        {
          "internalType": "bytes32",
          "name": "",
          "type": "bytes32"
        }
      ],
      "name": "tokenIdOf",
      "outputs": [
        {
          "internalType": "uint256",
          "name": "",
          "type": "uint256"
        }
      ],
      "stateMutability": "view",
      "type": "function"
    },
    {
      "inputs": [
        {
          "internalType": "uint256",
          "name": "tokenId",
          "type": "uint256"
        }
      ],
      "name": "tokenURI",
      "outputs": [
        {
          "internalType": "string",
          "name": "",
          "type": "string"
        }
      ],
      "stateMutability": "view",
      "type": "function"
    },
    {
      "inputs": [
        {
          "internalType": "address",
          "name": "from",
          "type": "address"
        },
        {
          "internalType": "address",
          "name": "to",
          "type": "address"
        },
        {
          "internalType": "uint256",
          "name": "tokenId",
          "type": "uint256"
        }
      ],
      "name": "transferFrom",
      "outputs": [],
      "stateMutability": "nonpayable",
      "type": "function"
    }
  ],
  "transactionHash": "0x7dab4d3babda5031fdaa67f248403af659cf6c5985f028d647cf859c4b2d828d",
  "args": [
    [
      "0x277fc3471ab37F9D654f64876b020d960d93a765",
      "0x4aAbA49d75576c8F158F7502FBaB869948A6eB4D",
      "0x4AE21C50Fed572D3220f77D202a838b593f63160",
      "0x71F3BD12c0B964F53bD594D9477e0a2837E3b786",
      "0xC7B0933473fe1beE049608382EbaEBA030a8A7D0"
    ],
    [
      "150",
      "150",
      "135",
      "120",
      "110"
    ],
    "0xc45D314D16957f8C72aB4cA27A619bd0042A00c6",
    "0x22f3c559e8b31817f25Df62786924b593cC5776E"
  ],
  "numDeployments": 1,
  "solcInputHash": "4e9316abea9744a68b7555d93f5656d5",
  "bytecode": "0x60a06040523480156200001157600080fd5b5060405162003a1838038062003a18833981016040819052620000349162000486565b604080518082018252601481527f426c756543686970205374616b652050726f6f6600000000000000000000000060208083019182528351808501909452600a84526929aa20a5a2a82927a7a360b11b908401528151849386939290916200009f9160009162000347565b508051620000b590600190602084019062000347565b5050600680546001600160a01b0319166001600160a01b0393909316929092179091555060601b6001600160601b03191660805282518451146200010c57604051630b661e2560e41b815260040160405180910390fd5b60005b84518110156200033c5760006001600160a01b03168582815181106200014557634e487b7160e01b600052603260045260246000fd5b60200260200101516001600160a01b03161415620001765760405163d92e233d60e01b815260040160405180910390fd5b8381815181106200019757634e487b7160e01b600052603260045260246000fd5b602002602001015161ffff1660001480620001e25750609661ffff16848281518110620001d457634e487b7160e01b600052603260045260246000fd5b602002602001015161ffff16115b156200020157604051637f68872960e11b815260040160405180910390fd5b8381815181106200022257634e487b7160e01b600052603260045260246000fd5b6020026020010151600a60008784815181106200024f57634e487b7160e01b600052603260045260246000fd5b60200260200101516001600160a01b03166001600160a01b0316815260200190815260200160002060006101000a81548161ffff021916908361ffff1602179055507fad31513de3c13ac6ea0b15cf17103355c732b2ff1018e354547f79f4e44e7346858281518110620002d357634e487b7160e01b600052603260045260246000fd5b6020026020010151858381518110620002fc57634e487b7160e01b600052603260045260246000fd5b60200260200101516040516200032b9291906001600160a01b0392909216825261ffff16602082015260400190565b60405180910390a16001016200010f565b505050505062000643565b8280546200035590620005d7565b90600052602060002090601f016020900481019282620003795760008555620003c4565b82601f106200039457805160ff1916838001178555620003c4565b82800160010185558215620003c4579182015b82811115620003c4578251825591602001919060010190620003a7565b50620003d2929150620003d6565b5090565b5b80821115620003d25760008155600101620003d7565b8051620003fa816200062a565b919050565b600082601f83011262000410578081fd5b81516020620004296200042383620005b1565b6200057e565b80838252828201915082860187848660051b890101111562000449578586fd5b855b858110156200047957815161ffff8116811462000466578788fd5b845292840192908401906001016200044b565b5090979650505050505050565b600080600080608085870312156200049c578384fd5b84516001600160401b0380821115620004b3578586fd5b818701915087601f830112620004c7578586fd5b81516020620004da6200042383620005b1565b8083825282820191508286018c848660051b8901011115620004fa578a8bfd5b8a96505b848710156200052957805162000514816200062a565b835260019690960195918301918301620004fe565b50918a015191985090935050508082111562000543578485fd5b506200055287828801620003ff565b9350506200056360408601620003ed565b91506200057360608601620003ed565b905092959194509250565b604051601f8201601f191681016001600160401b0381118282101715620005a957620005a962000614565b604052919050565b60006001600160401b03821115620005cd57620005cd62000614565b5060051b60200190565b600181811c90821680620005ec57607f821691505b602082108114156200060e57634e487b7160e01b600052602260045260246000fd5b50919050565b634e487b7160e01b600052604160045260246000fd5b6001600160a01b03811681146200064057600080fd5b50565b60805160601c6133af62000669600039600081816104600152610a3401526133af6000f3fe60806040526004361061020f5760003560e01c806386a3e0f411610118578063bc541297116100a0578063de5ad6e71161006f578063de5ad6e7146106ad578063e906611c146106cd578063e985e9c5146106e8578063ee05b77e14610731578063f72eff7d1461075157600080fd5b8063bc541297146105ee578063c87b56dd14610624578063cd1fd62514610644578063cd5bfb631461068057600080fd5b8063980b1b82116100e7578063980b1b821461055b578063a22cb4651461057b578063a4a20afe1461059b578063acf0d872146105bb578063b88d4fde146105ce57600080fd5b806386a3e0f4146104c25780638e4a5248146104e25780638ebdaf481461052657806395d89b411461054657600080fd5b80633fccc4921161019b5780636352211e1161016a5780636352211e1461041b578063655a081f1461043b5780636abcf8e31461044e57806370a08231146104825780637ae98a5f146104a257600080fd5b80633fccc4921461038157806342842e0e146103ae5780635b9df828146103ce5780635e52fb84146103fb57600080fd5b8063095ea7b3116101e2578063095ea7b3146102c75780630e42eb69146102e957806323b872dd1461030957806329575f6a1461032957806334f917ee1461034957600080fd5b806301ffc9a71461021457806306661abd1461024957806306fdde031461026d578063081812fc1461028f575b600080fd5b34801561022057600080fd5b5061023461022f366004612e80565b61077e565b60405190151581526020015b60405180910390f35b34801561025557600080fd5b5061025f60075481565b604051908152602001610240565b34801561027957600080fd5b506102826107d0565b6040516102409190613106565b34801561029b57600080fd5b506102af6102aa366004612e68565b610862565b6040516001600160a01b039091168152602001610240565b3480156102d357600080fd5b506102e76102e2366004612e09565b6108fc565b005b3480156102f557600080fd5b506102e7610304366004612edc565b610a12565b34801561031557600080fd5b506102e7610324366004612ca8565b610d3c565b34801561033557600080fd5b506006546102af906001600160a01b031681565b34801561035557600080fd5b5061025f610364366004612eb8565b600f60209081526000928352604080842090915290825290205481565b34801561038d57600080fd5b5061025f61039c366004612e68565b600c6020526000908152604090205481565b3480156103ba57600080fd5b506102e76103c9366004612ca8565b610d6d565b3480156103da57600080fd5b5061025f6103e9366004612c38565b600b6020526000908152604090205481565b34801561040757600080fd5b506102e7610416366004612e34565b610d88565b34801561042757600080fd5b506102af610436366004612e68565b610ef0565b6102e7610449366004612e34565b610f67565b34801561045a57600080fd5b506102af7f000000000000000000000000000000000000000000000000000000000000000081565b34801561048e57600080fd5b5061025f61049d366004612c38565b611236565b3480156104ae57600080fd5b506102e76104bd366004612dd5565b6112bd565b3480156104ce57600080fd5b506102e76104dd366004612e34565b6113b0565b3480156104ee57600080fd5b506105136104fd366004612c38565b600a6020526000908152604090205461ffff1681565b60405161ffff9091168152602001610240565b34801561053257600080fd5b5061025f610541366004612eb8565b611538565b34801561055257600080fd5b50610282611597565b34801561056757600080fd5b506102e7610576366004612e09565b6115a6565b34801561058757600080fd5b506102e7610596366004612da4565b61172a565b3480156105a757600080fd5b506102e76105b6366004612e09565b611739565b6102e76105c9366004612e09565b61189b565b3480156105da57600080fd5b506102e76105e9366004612ce8565b611b76565b3480156105fa57600080fd5b506102af610609366004612e68565b6009602052600090815260409020546001600160a01b031681565b34801561063057600080fd5b5061028261063f366004612e68565b611bae565b34801561065057600080fd5b5061051361065f366004612eb8565b600e60209081526000928352604080842090915290825290205461ffff1681565b34801561068c57600080fd5b5061025f61069b366004612e68565b60086020526000908152604090205481565b3480156106b957600080fd5b506102e76106c8366004612e34565b611c95565b3480156106d957600080fd5b5061025f66038d7ea4c6800081565b3480156106f457600080fd5b50610234610703366004612c70565b6001600160a01b03918216600090815260056020908152604080832093909416825291909152205460ff1690565b34801561073d57600080fd5b506102e761074c366004612e09565b611e36565b34801561075d57600080fd5b5061025f61076c366004612e68565b600d6020526000908152604090205481565b60006001600160e01b031982166380ac58cd60e01b14806107af57506001600160e01b03198216635b5e139f60e01b145b806107ca57506301ffc9a760e01b6001600160e01b03198316145b92915050565b6060600080546107df9061329f565b80601f016020809104026020016040519081016040528092919081815260200182805461080b9061329f565b80156108585780601f1061082d57610100808354040283529160200191610858565b820191906000526020600020905b81548152906001019060200180831161083b57829003601f168201915b5050505050905090565b6000818152600260205260408120546001600160a01b03166108e05760405162461bcd60e51b815260206004820152602c60248201527f4552433732313a20617070726f76656420717565727920666f72206e6f6e657860448201526b34b9ba32b73a103a37b5b2b760a11b60648201526084015b60405180910390fd5b506000908152600460205260409020546001600160a01b031690565b600061090782610ef0565b9050806001600160a01b0316836001600160a01b031614156109755760405162461bcd60e51b815260206004820152602160248201527f4552433732313a20617070726f76616c20746f2063757272656e74206f776e656044820152603960f91b60648201526084016108d7565b336001600160a01b038216148061099157506109918133610703565b610a035760405162461bcd60e51b815260206004820152603860248201527f4552433732313a20617070726f76652063616c6c6572206973206e6f74206f7760448201527f6e6572206e6f7220617070726f76656420666f7220616c6c000000000000000060648201526084016108d7565b610a0d8383611fd2565b505050565b604051634fe0eced60e01b815260048101849052839033906001600160a01b037f00000000000000000000000000000000000000000000000000000000000000001690634fe0eced9060240160206040518083038186803b158015610a7657600080fd5b505afa158015610a8a573d6000803e3d6000fd5b505050506040513d601f19601f82011682018060405250810190610aae9190612c54565b6001600160a01b031614610ad55760405163be24598360e01b815260040160405180910390fd5b8151835114610af757604051630b661e2560e41b815260040160405180910390fd5b60005b8351811015610cfb5760006001600160a01b0316848281518110610b2e57634e487b7160e01b600052603260045260246000fd5b60200260200101516001600160a01b03161415610b5e5760405163d92e233d60e01b815260040160405180910390fd5b6000858152600e6020526040812085518290879085908110610b9057634e487b7160e01b600052603260045260246000fd5b6020908102919091018101516001600160a01b031682528101919091526040016000205461ffff161115610bd75760405163a25f5c6d60e01b815260040160405180910390fd5b828181518110610bf757634e487b7160e01b600052603260045260246000fd5b602002602001015161ffff1660001480610c41575061012c61ffff16838281518110610c3357634e487b7160e01b600052603260045260246000fd5b602002602001015161ffff16115b15610c5f57604051637f68872960e11b815260040160405180910390fd5b828181518110610c7f57634e487b7160e01b600052603260045260246000fd5b6020026020010151600e60008781526020019081526020016000206000868481518110610cbc57634e487b7160e01b600052603260045260246000fd5b6020908102919091018101516001600160a01b03168252810191909152604001600020805461ffff191661ffff92909216919091179055600101610afa565b50837f7ea43422e6bbb761540648ebd981f8a2757eb7980a005ac67c6205c0ac3893008484604051610d2e92919061308c565b60405180910390a250505050565b610d463382612040565b610d625760405162461bcd60e51b81526004016108d79061316b565b610a0d838383612137565b610a0d83838360405180602001604052806000815250611b76565b6000818484604051602001610d9f93929190613027565b60408051601f198184030181529181528151602092830120600081815260099093529120549091506001600160a01b031680610dee57604051637a74035160e01b815260040160405180910390fd5b6040516331a9108f60e11b8152600481018590526001600160a01b038083169190871690636352211e9060240160206040518083038186803b158015610e3357600080fd5b505afa158015610e47573d6000803e3d6000fd5b505050506040513d601f19601f82011682018060405250810190610e6b9190612c54565b6001600160a01b03161415610e9357604051632158df0560e21b815260040160405180910390fd5b610ea185858433858861215b565b60408051858152602081018490526001600160a01b03871691339186917f4d3190a0de40c3b65555c6da1a2b2f98daab10923ec72cd680946b377c935ed4910160405180910390a45050505050565b6000818152600260205260408120546001600160a01b0316806107ca5760405162461bcd60e51b815260206004820152602960248201527f4552433732313a206f776e657220717565727920666f72206e6f6e657869737460448201526832b73a103a37b5b2b760b91b60648201526084016108d7565b6000818152600e602090815260408083206001600160a01b0387168452909152902054339061ffff16610fad576040516348066f5160e01b815260040160405180910390fd5b6040516331a9108f60e11b8152600481018490526001600160a01b038083169190861690636352211e9060240160206040518083038186803b158015610ff257600080fd5b505afa158015611006573d6000803e3d6000fd5b505050506040513d601f19601f8201168201806040525081019061102a9190612c54565b6001600160a01b03161461105157604051631022318760e21b815260040160405180910390fd5b66038d7ea4c6800034101561107957604051631e9acf1760e31b815260040160405180910390fd5b600082858560405160200161109093929190613027565b60408051601f198184030181529181528151602092830120600081815260099093529120549091506001600160a01b039081169083168114156110e65760405163214f202560e11b815260040160405180910390fd5b6001600160a01b038116156111035761110386868486858961215b565b600082815260096020908152604080832080546001600160a01b0319166001600160a01b03888116918217909255888552600e8452828520918b16855290835281842054888552600f8452828520918552925282205461ffff909116906111699061226a565b611173919061323d565b6000868152600f602090815260408083206001600160a01b038916845290915281208290559091506111a962015180601e61323d565b6111b39042613211565b6000858152600c60209081526040808320849055600d82529182902034905581518a8152908101879052908101829052606081018490529091506001600160a01b03898116919087169088907fe5e3b9db014c86f243f659a7ec69a6f5c2e82f784fa0865c03496c96226eef3a9060800160405180910390a45050505050505050565b60006001600160a01b0382166112a15760405162461bcd60e51b815260206004820152602a60248201527f4552433732313a2062616c616e636520717565727920666f7220746865207a65604482015269726f206164647265737360b01b60648201526084016108d7565b506001600160a01b031660009081526003602052604090205490565b6006546001600160a01b031633146112e857604051637bfa4b9f60e01b815260040160405180910390fd5b6001600160a01b03821661130f5760405163d92e233d60e01b815260040160405180910390fd5b6001600160a01b0382166000908152600a602052604090205461ffff161561134a5760405163cccd236960e01b815260040160405180910390fd5b6001600160a01b0382166000818152600a6020908152604091829020805461ffff191661ffff86169081179091558251938452908301527fad31513de3c13ac6ea0b15cf17103355c732b2ff1018e354547f79f4e44e7346910160405180910390a15050565b60405133906000906113ca90849087908790602001613027565b60408051601f198184030181529181528151602092830120600081815260099093529120549091506001600160a01b039081169083168114158061148f57506040516331a9108f60e11b81526004810186905233906001600160a01b03881690636352211e9060240160206040518083038186803b15801561144b57600080fd5b505afa15801561145f573d6000803e3d6000fd5b505050506040513d601f19601f820116820180604052508101906114839190612c54565b6001600160a01b031614155b156114ad5760405163be24598360e01b815260040160405180910390fd5b60006114bd62015180601e61323d565b6114c79042613211565b6000848152600c602090815260409182902083905581518981529081018690529081018290529091506001600160a01b03808916919086169087907fbf1ce35bef2cd5a096653785db006adc4ddd3d11f29b7e3eee9c4f9c7466efe59060600160405180910390a450505050505050565b6000828152600f602090815260408083206001600160a01b03851684529091528120546115649061226a565b6001600160a01b0383166000908152600b60205260409020546115869061226a565b611590919061323d565b9392505050565b6060600180546107df9061329f565b60405133906000906115be9085908590602001612fd6565b60408051601f198184030181529181528151602092830120600081815260099093529120549091506001600160a01b039081169083168114158061168357506040516331a9108f60e11b81526004810185905233906001600160a01b03871690636352211e9060240160206040518083038186803b15801561163f57600080fd5b505afa158015611653573d6000803e3d6000fd5b505050506040513d601f19601f820116820180604052508101906116779190612c54565b6001600160a01b031614155b156116a15760405163be24598360e01b815260040160405180910390fd5b60006116b162015180601e61323d565b6116bb9042613211565b6000848152600c602090815260409182902083905581518881529081018690529081018290529091506001600160a01b0380881691908616907fadb4b838f34a4f3477a5f0f74c8c56324642cede080fbcf1bfc94b0459bbe860906060015b60405180910390a3505050505050565b611735338383612280565b5050565b6000828260405160200161174e929190612fd6565b60408051601f198184030181529181528151602092830120600081815260099093529120549091506001600160a01b03168061179d57604051637a74035160e01b815260040160405180910390fd5b6040516331a9108f60e11b8152600481018490526001600160a01b038083169190861690636352211e9060240160206040518083038186803b1580156117e257600080fd5b505afa1580156117f6573d6000803e3d6000fd5b505050506040513d601f19601f8201168201806040525081019061181a9190612c54565b6001600160a01b0316141561184257604051632158df0560e21b815260040160405180910390fd5b61184f848484338561234f565b60408051848152602081018490526001600160a01b0386169133917fa22f862566c43102aa1a3cac98c9df6aeda93fc1ea59b26f9f03bbc4d1aa0873910160405180910390a350505050565b6001600160a01b0382166000908152600a6020526040902054339061ffff166118d7576040516348066f5160e01b815260040160405180910390fd5b6040516331a9108f60e11b8152600481018390526001600160a01b038083169190851690636352211e9060240160206040518083038186803b15801561191c57600080fd5b505afa158015611930573d6000803e3d6000fd5b505050506040513d601f19601f820116820180604052508101906119549190612c54565b6001600160a01b03161461197b57604051631022318760e21b815260040160405180910390fd5b66038d7ea4c680003410156119a357604051631e9acf1760e31b815260040160405180910390fd5b600083836040516020016119b8929190612fd6565b60408051601f198184030181529181528151602092830120600081815260099093529120549091506001600160a01b03908116908316811415611a0e5760405163214f202560e11b815260040160405180910390fd5b6001600160a01b03811615611a2a57611a2a858584868561234f565b600082815260096020908152604080832080546001600160a01b0319166001600160a01b038881169182179092559089168452600a835281842054908452600b90925282205461ffff90911690611a809061226a565b611a8a919061323d565b6001600160a01b0385166000908152600b60205260408120829055909150611ab662015180601e61323d565b611ac09042613211565b6000858152600c60209081526040808320849055600d90915281203490556007805492935090611aef836132da565b9190505550611b0085600754612472565b6007546000858152600860209081526040918290209290925580518881529182018690528101829052606081018390526001600160a01b0380891691908716907f27f28bdfac186adc776b99cfddf92501afb3e795d2c1d5376d220bde887422e49060800160405180910390a350505050505050565b611b803383612040565b611b9c5760405162461bcd60e51b81526004016108d79061316b565b611ba88484848461248c565b50505050565b6000818152600260205260409020546060906001600160a01b0316611c2d5760405162461bcd60e51b815260206004820152602f60248201527f4552433732314d657461646174613a2055524920717565727920666f72206e6f60448201526e3732bc34b9ba32b73a103a37b5b2b760891b60648201526084016108d7565b6000611c4460408051602081019091526000815290565b90506000815111611c645760405180602001604052806000815250611590565b80611c6e846124bf565b604051602001611c7f929190612ff8565b6040516020818303038152906040529392505050565b6040513390600090611caf90849087908790602001613027565b60408051601f198184030181529181528151602092830120600081815260099093529120549091506001600160a01b0390811690831681141580611d7c57506040516331a9108f60e11b8152600481018690526001600160a01b03871690636352211e9060240160206040518083038186803b158015611d2e57600080fd5b505afa158015611d42573d6000803e3d6000fd5b505050506040513d601f19601f82011682018060405250810190611d669190612c54565b6001600160a01b0316836001600160a01b031614155b15611d9a5760405163be24598360e01b815260040160405180910390fd5b6000828152600c6020526040902054421015611dc957604051630b699b5960e31b815260040160405180910390fd5b611dd786868486878961215b565b856001600160a01b0316836001600160a01b0316857f867ae3625c9ec83b4bfbd96ea1cdbba46e59427c14025cc303169f4586ad86768886604051611e26929190918252602082015260400190565b60405180910390a4505050505050565b6040513390600090611e4e9085908590602001612fd6565b60408051601f198184030181529181528151602092830120600081815260099093529120549091506001600160a01b0390811690831681141580611f1b57506040516331a9108f60e11b8152600481018590526001600160a01b03861690636352211e9060240160206040518083038186803b158015611ecd57600080fd5b505afa158015611ee1573d6000803e3d6000fd5b505050506040513d601f19601f82011682018060405250810190611f059190612c54565b6001600160a01b0316836001600160a01b031614155b15611f395760405163be24598360e01b815260040160405180910390fd5b6000828152600c6020526040902054421015611f6857604051630b699b5960e31b815260040160405180910390fd5b611f75858584868761234f565b846001600160a01b0316836001600160a01b03167ff82393acf0d1da47d0747845a0fc86d8f66a89ae3382af9a92a5373e8e89d5ae8685604051611fc3929190918252602082015260400190565b60405180910390a35050505050565b600081815260046020526040902080546001600160a01b0319166001600160a01b038416908117909155819061200782610ef0565b6001600160a01b03167f8c5be1e5ebec7d5bd14f71427d1e84f3dd0314c0f7b2291e5b200ac8c7c3b92560405160405180910390a45050565b6000818152600260205260408120546001600160a01b03166120b95760405162461bcd60e51b815260206004820152602c60248201527f4552433732313a206f70657261746f7220717565727920666f72206e6f6e657860448201526b34b9ba32b73a103a37b5b2b760a11b60648201526084016108d7565b60006120c483610ef0565b9050806001600160a01b0316846001600160a01b031614806120ff5750836001600160a01b03166120f484610862565b6001600160a01b0316145b8061212f57506001600160a01b0380821660009081526005602090815260408083209388168352929052205460ff165b949350505050565b6121428383836125d9565b60405163a24e573d60e01b815260040160405180910390fd5b6000848152600d6020526040902054612175908490612775565b6000848152600d60209081526040808320839055600c8252808320839055838352600e82528083206001600160a01b03808b16855290835281842054858552600f845282852091871685529252909120546121d49161ffff1690613229565b6000828152600f602090815260408083206001600160a01b038781168086528285528386209687558a86526009855283862080546001600160a01b031916905594859052908352935481518886168152928301869052908201889052606082018990526080820152918816917f33b98b166c8a8bf479d4bc095e21089327f61b6f9ab7864c5f0ce80f5ffe7d009060a00161171a565b6000811561227857816107ca565b600192915050565b816001600160a01b0316836001600160a01b031614156122e25760405162461bcd60e51b815260206004820152601960248201527f4552433732313a20617070726f766520746f2063616c6c65720000000000000060448201526064016108d7565b6001600160a01b03838116600081815260056020908152604080832094871680845294825291829020805460ff191686151590811790915591519182527f17307eab39ab6107e8899845ad3d59bd9653f200f220920489ca2b5937696c31910160405180910390a3505050565b6000838152600d6020526040902054612369908390612775565b6000838152600d60209081526040808320839055600c82528083208390556001600160a01b038089168452600a8352818420549085168452600b909252909120546123b89161ffff1690613229565b6001600160a01b0382166000908152600b60209081526040808320939093558582526008905220546123e98161288e565b60008481526008602090815260408083208390556009825280832080546001600160a01b03191690556001600160a01b03858116808552600b84529382902054825188831681529384018990529183018990526060830191909152881691907f972c4dedeeb09b1ecff4067f58a715ac29c9e805a5ff6200edd109aa0abacdb59060800161171a565b611735828260405180602001604052806000815250612929565b612497848484612137565b6124a38484848461295c565b611ba85760405162461bcd60e51b81526004016108d790613119565b6060816124e35750506040805180820190915260018152600360fc1b602082015290565b8160005b811561250d57806124f7816132da565b91506125069050600a83613229565b91506124e7565b60008167ffffffffffffffff81111561253657634e487b7160e01b600052604160045260246000fd5b6040519080825280601f01601f191660200182016040528015612560576020820181803683370190505b5090505b841561212f5761257560018361325c565b9150612582600a866132f5565b61258d906030613211565b60f81b8183815181106125b057634e487b7160e01b600052603260045260246000fd5b60200101906001600160f81b031916908160001a9053506125d2600a86613229565b9450612564565b826001600160a01b03166125ec82610ef0565b6001600160a01b0316146126505760405162461bcd60e51b815260206004820152602560248201527f4552433732313a207472616e736665722066726f6d20696e636f72726563742060448201526437bbb732b960d91b60648201526084016108d7565b6001600160a01b0382166126b25760405162461bcd60e51b8152602060048201526024808201527f4552433732313a207472616e7366657220746f20746865207a65726f206164646044820152637265737360e01b60648201526084016108d7565b6126bd600082611fd2565b6001600160a01b03831660009081526003602052604081208054600192906126e690849061325c565b90915550506001600160a01b0382166000908152600360205260408120805460019290612714908490613211565b909155505060008181526002602052604080822080546001600160a01b0319166001600160a01b0386811691821790925591518493918716917fddf252ad1be2c89b69c2b068fc378daa952ba7f163c4a11628f55a4df523b3ef91a4505050565b804710156127c55760405162461bcd60e51b815260206004820152601d60248201527f416464726573733a20696e73756666696369656e742062616c616e636500000060448201526064016108d7565b6000826001600160a01b03168260405160006040518083038185875af1925050503d8060008114612812576040519150601f19603f3d011682016040523d82523d6000602084013e612817565b606091505b5050905080610a0d5760405162461bcd60e51b815260206004820152603a60248201527f416464726573733a20756e61626c6520746f2073656e642076616c75652c207260448201527f6563697069656e74206d6179206861766520726576657274656400000000000060648201526084016108d7565b600061289982610ef0565b90506128a6600083611fd2565b6001600160a01b03811660009081526003602052604081208054600192906128cf90849061325c565b909155505060008281526002602052604080822080546001600160a01b0319169055518391906001600160a01b038416907fddf252ad1be2c89b69c2b068fc378daa952ba7f163c4a11628f55a4df523b3ef908390a45050565b6129338383612a69565b612940600084848461295c565b610a0d5760405162461bcd60e51b81526004016108d790613119565b60006001600160a01b0384163b15612a5e57604051630a85bd0160e11b81526001600160a01b0385169063150b7a02906129a090339089908890889060040161304f565b602060405180830381600087803b1580156129ba57600080fd5b505af19250505080156129ea575060408051601f3d908101601f191682019092526129e791810190612e9c565b60015b612a44573d808015612a18576040519150601f19603f3d011682016040523d82523d6000602084013e612a1d565b606091505b508051612a3c5760405162461bcd60e51b81526004016108d790613119565b805181602001fd5b6001600160e01b031916630a85bd0160e11b14905061212f565b506001949350505050565b6001600160a01b038216612abf5760405162461bcd60e51b815260206004820181905260248201527f4552433732313a206d696e7420746f20746865207a65726f206164647265737360448201526064016108d7565b6000818152600260205260409020546001600160a01b031615612b245760405162461bcd60e51b815260206004820152601c60248201527f4552433732313a20746f6b656e20616c7265616479206d696e7465640000000060448201526064016108d7565b6001600160a01b0382166000908152600360205260408120805460019290612b4d908490613211565b909155505060008181526002602052604080822080546001600160a01b0319166001600160a01b03861690811790915590518392907fddf252ad1be2c89b69c2b068fc378daa952ba7f163c4a11628f55a4df523b3ef908290a45050565b600082601f830112612bbb578081fd5b81356020612bd0612bcb836131ed565b6131bc565b80838252828201915082860187848660051b8901011115612bef578586fd5b855b85811015612c1457612c0282612c21565b84529284019290840190600101612bf1565b5090979650505050505050565b803561ffff81168114612c3357600080fd5b919050565b600060208284031215612c49578081fd5b81356115908161334b565b600060208284031215612c65578081fd5b81516115908161334b565b60008060408385031215612c82578081fd5b8235612c8d8161334b565b91506020830135612c9d8161334b565b809150509250929050565b600080600060608486031215612cbc578081fd5b8335612cc78161334b565b92506020840135612cd78161334b565b929592945050506040919091013590565b60008060008060808587031215612cfd578081fd5b8435612d088161334b565b9350602085810135612d198161334b565b935060408601359250606086013567ffffffffffffffff80821115612d3c578384fd5b818801915088601f830112612d4f578384fd5b813581811115612d6157612d61613335565b612d73601f8201601f191685016131bc565b91508082528984828501011115612d88578485fd5b8084840185840137810190920192909252939692955090935050565b60008060408385031215612db6578182fd5b8235612dc18161334b565b915060208301358015158114612c9d578182fd5b60008060408385031215612de7578182fd5b8235612df28161334b565b9150612e0060208401612c21565b90509250929050565b60008060408385031215612e1b578182fd5b8235612e268161334b565b946020939093013593505050565b600080600060608486031215612e48578081fd5b8335612e538161334b565b95602085013595506040909401359392505050565b600060208284031215612e79578081fd5b5035919050565b600060208284031215612e91578081fd5b813561159081613363565b600060208284031215612ead578081fd5b815161159081613363565b60008060408385031215612eca578182fd5b823591506020830135612c9d8161334b565b600080600060608486031215612ef0578081fd5b8335925060208085013567ffffffffffffffff80821115612f0f578384fd5b818701915087601f830112612f22578384fd5b8135612f30612bcb826131ed565b8082825285820191508585018b878560051b8801011115612f4f578788fd5b8795505b83861015612f7a578035612f668161334b565b835260019590950194918601918601612f53565b50965050506040870135925080831115612f92578384fd5b5050612fa086828701612bab565b9150509250925092565b60008151808452612fc2816020860160208601613273565b601f01601f19169290920160200192915050565b60609290921b6bffffffffffffffffffffffff19168252601482015260340190565b6000835161300a818460208801613273565b83519083019061301e818360208801613273565b01949350505050565b92835260609190911b6bffffffffffffffffffffffff19166020830152603482015260540190565b6001600160a01b038581168252841660208201526040810183905260806060820181905260009061308290830184612faa565b9695505050505050565b604080825283519082018190526000906020906060840190828701845b828110156130ce5781516001600160a01b0316845292840192908401906001016130a9565b50505083810382850152845180825285830191830190845b81811015612c1457835161ffff16835292840192918401916001016130e6565b6020815260006115906020830184612faa565b60208082526032908201527f4552433732313a207472616e7366657220746f206e6f6e20455243373231526560408201527131b2b4bb32b91034b6b83632b6b2b73a32b960711b606082015260800190565b60208082526031908201527f4552433732313a207472616e736665722063616c6c6572206973206e6f74206f6040820152701ddb995c881b9bdc88185c1c1c9bdd9959607a1b606082015260800190565b604051601f8201601f1916810167ffffffffffffffff811182821017156131e5576131e5613335565b604052919050565b600067ffffffffffffffff82111561320757613207613335565b5060051b60200190565b6000821982111561322457613224613309565b500190565b6000826132385761323861331f565b500490565b600081600019048311821515161561325757613257613309565b500290565b60008282101561326e5761326e613309565b500390565b60005b8381101561328e578181015183820152602001613276565b83811115611ba85750506000910152565b600181811c908216806132b357607f821691505b602082108114156132d457634e487b7160e01b600052602260045260246000fd5b50919050565b60006000198214156132ee576132ee613309565b5060010190565b6000826133045761330461331f565b500690565b634e487b7160e01b600052601160045260246000fd5b634e487b7160e01b600052601260045260246000fd5b634e487b7160e01b600052604160045260246000fd5b6001600160a01b038116811461336057600080fd5b50565b6001600160e01b03198116811461336057600080fdfea2646970667358221220b62f2ad7efc6e9bb1594fa79ae450f6ee26320ae2d615cd63aedb4684caf5f1264736f6c63430008040033",
  "devdoc": {
    "kind": "dev",
    "methods": {
      "addBlueChip(address,uint16)": {
        "params": {
          "_bluechip": "bluechip address",
          "_multiper": "multiper of booster"
        }
      },
      "approve(address,uint256)": {
        "details": "See {IERC721-approve}."
      },
      "balanceOf(address)": {
        "details": "See {IERC721-balanceOf}."
      },
      "challengeCustomProof(address,uint256,uint256)": {
        "params": {
          "_bluechip": "the cutomized nft address you want to challenge",
          "_projectId": "The ID of DAO for this cusotmized NFT you want to register",
          "_tokenId": "which token you want to challenge"
        }
      },
      "challengeProof(address,uint256)": {
        "params": {
          "_bluechip": "the bluechip nft address you want to challenge",
          "_tokenId": "which token you want to challenge"
        }
      },
      "createCustomBooster(uint256,address[],uint16[])": {
        "params": {
          "_bluechips": "The customized NFTs token addresses",
          "_multipers": "multipliers of each nft 300 => 3x",
          "_projectId": "The DAO ID"
        }
      },
      "createCustomProof(address,uint256,uint256)": {
        "params": {
          "_bluechip": "The customized NFT Token Addresses",
          "_projectId": "The ID of the DAO you want to register this proof",
          "_tokenId": "The ID of the NFT in token address"
        }
      },
      "createProof(address,uint256)": {
        "params": {
          "_bluechip": "The bluechip NFT Address(ERC721) you want to proof",
          "_tokenId": "which tokenID you want to proof"
        }
      },
      "getApproved(uint256)": {
        "details": "See {IERC721-getApproved}."
      },
      "getBoosterWeight(uint256,address)": {
        "params": {
          "_from": "wallet address",
          "_projectId": "the project id of query"
        }
      },
      "isApprovedForAll(address,address)": {
        "details": "See {IERC721-isApprovedForAll}."
      },
      "name()": {
        "details": "See {IERC721Metadata-name}."
      },
      "ownerOf(uint256)": {
        "details": "See {IERC721-ownerOf}."
      },
      "redeemCustomProof(address,uint256,uint256)": {
        "params": {
          "_bluechip": "the customized nft address to redeem",
          "_projectId": "The ID of the DAO that the cusotmized NFT belongs with",
          "_tokenId": "which token you want to redeem"
        }
      },
      "redeemProof(address,uint256)": {
        "params": {
          "_bluechip": "the bluechip nft address to redeem",
          "_tokenId": "which token you want to redeem"
        }
      },
      "renewCustomProof(address,uint256,uint256)": {
        "params": {
          "_bluechip": "The customized NFT token address to renew",
          "_projectId": "the project id of bluechip belongs",
          "_tokenId": "which token you want to renew"
        }
      },
      "renewProof(address,uint256)": {
        "params": {
          "_bluechip": "the bluechip nft address to renew",
          "_tokenId": "which token you want to renew"
        }
      },
      "safeTransferFrom(address,address,uint256)": {
        "details": "See {IERC721-safeTransferFrom}."
      },
      "safeTransferFrom(address,address,uint256,bytes)": {
        "details": "See {IERC721-safeTransferFrom}."
      },
      "setApprovalForAll(address,bool)": {
        "details": "See {IERC721-setApprovalForAll}."
      },
      "supportsInterface(bytes4)": {
        "details": "See {IERC165-supportsInterface}."
      },
      "symbol()": {
        "details": "See {IERC721Metadata-symbol}."
      },
      "tokenURI(uint256)": {
        "details": "See {IERC721Metadata-tokenURI}."
      },
      "transferFrom(address,address,uint256)": {
        "details": "See {IERC721-transferFrom}."
      }
    },
    "version": 1
  },
  "userdoc": {
    "kind": "user",
    "methods": {
      "addBlueChip(address,uint16)": {
        "notice": "The governor can add a new universal bluechip as booster"
      },
      "challengeCustomProof(address,uint256,uint256)": {
        "notice": "Anyone can challenge a proof if the customized NFT no longer belong to the pre owner"
      },
      "challengeProof(address,uint256)": {
        "notice": "Anyone can challenge a proof if the bluechip no longer belong to the pre owner"
      },
      "constructor": {
        "notice": "Punk:   x1.5   (150) BAYC:   x1.5   (150) Azuki:  x1.35  (135) Doodle: x1.2   (120) CloneX: x1.1   (110) There has 2 types of Boost: BlueChips NFT and Customized NFT based on which DAO you set. For customized NFT support in each DAO, will be followed by the configure when the DAO created."
      },
      "createCustomBooster(uint256,address[],uint16[])": {
        "notice": "DAO Creator able to set the customized NFT support to boost DAO points"
      },
      "createCustomProof(address,uint256,uint256)": {
        "notice": "People who have the customized nfts can create a proof which promises that they will hold the nfts for 30 days"
      },
      "createProof(address,uint256)": {
        "notice": "People who have the bluechip NFTs can create a proof that promises they will hold the NFTs for 30 days        "
      },
      "getBoosterWeight(uint256,address)": {
        "notice": "Return the weights of an address weights = universal weights * customized weights"
      },
      "redeemCustomProof(address,uint256,uint256)": {
        "notice": "The proof owner can redeem the proof"
      },
      "redeemProof(address,uint256)": {
        "notice": "The proof owner can redeem the proof"
      },
      "renewCustomProof(address,uint256,uint256)": {
        "notice": "The proof owner can renew the proof. Don't need to pay for renew"
      },
      "renewProof(address,uint256)": {
        "notice": "The proof owner can renew the proof. Don't need to pay for renew"
      }
    },
    "version": 1
  },
  "storageLayout": {
    "storage": [
      {
        "astId": 2551,
        "contract": "contracts/BluechipsBooster.sol:BluechipsBooster",
        "label": "_name",
        "offset": 0,
        "slot": "0",
        "type": "t_string_storage"
      },
      {
        "astId": 2553,
        "contract": "contracts/BluechipsBooster.sol:BluechipsBooster",
        "label": "_symbol",
        "offset": 0,
        "slot": "1",
        "type": "t_string_storage"
      },
      {
        "astId": 2557,
        "contract": "contracts/BluechipsBooster.sol:BluechipsBooster",
        "label": "_owners",
        "offset": 0,
        "slot": "2",
        "type": "t_mapping(t_uint256,t_address)"
      },
      {
        "astId": 2561,
        "contract": "contracts/BluechipsBooster.sol:BluechipsBooster",
        "label": "_balances",
        "offset": 0,
        "slot": "3",
        "type": "t_mapping(t_address,t_uint256)"
      },
      {
        "astId": 2565,
        "contract": "contracts/BluechipsBooster.sol:BluechipsBooster",
        "label": "_tokenApprovals",
        "offset": 0,
        "slot": "4",
        "type": "t_mapping(t_uint256,t_address)"
      },
      {
        "astId": 2571,
        "contract": "contracts/BluechipsBooster.sol:BluechipsBooster",
        "label": "_operatorApprovals",
        "offset": 0,
        "slot": "5",
        "type": "t_mapping(t_address,t_mapping(t_address,t_bool))"
      },
      {
        "astId": 15390,
        "contract": "contracts/BluechipsBooster.sol:BluechipsBooster",
        "label": "superAdmin",
        "offset": 0,
        "slot": "6",
        "type": "t_address"
      },
      {
        "astId": 8147,
        "contract": "contracts/BluechipsBooster.sol:BluechipsBooster",
        "label": "count",
        "offset": 0,
        "slot": "7",
        "type": "t_uint256"
      },
      {
        "astId": 8152,
        "contract": "contracts/BluechipsBooster.sol:BluechipsBooster",
        "label": "tokenIdOf",
        "offset": 0,
        "slot": "8",
        "type": "t_mapping(t_bytes32,t_uint256)"
      },
      {
        "astId": 8157,
        "contract": "contracts/BluechipsBooster.sol:BluechipsBooster",
        "label": "proofBy",
        "offset": 0,
        "slot": "9",
        "type": "t_mapping(t_bytes32,t_address)"
      },
      {
        "astId": 8162,
        "contract": "contracts/BluechipsBooster.sol:BluechipsBooster",
        "label": "multiplierOf",
        "offset": 0,
        "slot": "10",
        "type": "t_mapping(t_address,t_uint16)"
      },
      {
        "astId": 8167,
        "contract": "contracts/BluechipsBooster.sol:BluechipsBooster",
        "label": "boosterWeights",
        "offset": 0,
        "slot": "11",
        "type": "t_mapping(t_address,t_uint256)"
      },
      {
        "astId": 8172,
        "contract": "contracts/BluechipsBooster.sol:BluechipsBooster",
        "label": "proofExpiryOf",
        "offset": 0,
        "slot": "12",
        "type": "t_mapping(t_bytes32,t_uint256)"
      },
      {
        "astId": 8177,
        "contract": "contracts/BluechipsBooster.sol:BluechipsBooster",
        "label": "stakedOf",
        "offset": 0,
        "slot": "13",
        "type": "t_mapping(t_bytes32,t_uint256)"
      },
      {
        "astId": 8184,
        "contract": "contracts/BluechipsBooster.sol:BluechipsBooster",
        "label": "customMultiplierOf",
        "offset": 0,
        "slot": "14",
        "type": "t_mapping(t_uint256,t_mapping(t_address,t_uint16))"
      },
      {
        "astId": 8191,
        "contract": "contracts/BluechipsBooster.sol:BluechipsBooster",
        "label": "customBoosterWeights",
        "offset": 0,
        "slot": "15",
        "type": "t_mapping(t_uint256,t_mapping(t_address,t_uint256))"
      }
    ],
    "types": {
      "t_address": {
        "encoding": "inplace",
        "label": "address",
        "numberOfBytes": "20"
      },
      "t_bool": {
        "encoding": "inplace",
        "label": "bool",
        "numberOfBytes": "1"
      },
      "t_bytes32": {
        "encoding": "inplace",
        "label": "bytes32",
        "numberOfBytes": "32"
      },
      "t_mapping(t_address,t_bool)": {
        "encoding": "mapping",
        "key": "t_address",
        "label": "mapping(address => bool)",
        "numberOfBytes": "32",
        "value": "t_bool"
      },
      "t_mapping(t_address,t_mapping(t_address,t_bool))": {
        "encoding": "mapping",
        "key": "t_address",
        "label": "mapping(address => mapping(address => bool))",
        "numberOfBytes": "32",
        "value": "t_mapping(t_address,t_bool)"
      },
      "t_mapping(t_address,t_uint16)": {
        "encoding": "mapping",
        "key": "t_address",
        "label": "mapping(address => uint16)",
        "numberOfBytes": "32",
        "value": "t_uint16"
      },
      "t_mapping(t_address,t_uint256)": {
        "encoding": "mapping",
        "key": "t_address",
        "label": "mapping(address => uint256)",
        "numberOfBytes": "32",
        "value": "t_uint256"
      },
      "t_mapping(t_bytes32,t_address)": {
        "encoding": "mapping",
        "key": "t_bytes32",
        "label": "mapping(bytes32 => address)",
        "numberOfBytes": "32",
        "value": "t_address"
      },
      "t_mapping(t_bytes32,t_uint256)": {
        "encoding": "mapping",
        "key": "t_bytes32",
        "label": "mapping(bytes32 => uint256)",
        "numberOfBytes": "32",
        "value": "t_uint256"
      },
      "t_mapping(t_uint256,t_address)": {
        "encoding": "mapping",
        "key": "t_uint256",
        "label": "mapping(uint256 => address)",
        "numberOfBytes": "32",
        "value": "t_address"
      },
      "t_mapping(t_uint256,t_mapping(t_address,t_uint16))": {
        "encoding": "mapping",
        "key": "t_uint256",
        "label": "mapping(uint256 => mapping(address => uint16))",
        "numberOfBytes": "32",
        "value": "t_mapping(t_address,t_uint16)"
      },
      "t_mapping(t_uint256,t_mapping(t_address,t_uint256))": {
        "encoding": "mapping",
        "key": "t_uint256",
        "label": "mapping(uint256 => mapping(address => uint256))",
        "numberOfBytes": "32",
        "value": "t_mapping(t_address,t_uint256)"
      },
      "t_string_storage": {
        "encoding": "bytes",
        "label": "string",
        "numberOfBytes": "32"
      },
      "t_uint16": {
        "encoding": "inplace",
        "label": "uint16",
        "numberOfBytes": "2"
      },
      "t_uint256": {
        "encoding": "inplace",
        "label": "uint256",
        "numberOfBytes": "32"
      }
    }
  }
}