{
  "address": "0x87b415B8C5eB735e1496DD747Bbab282187Bce69",
  "abi": [
    {
      "inputs": [
        {
          "internalType": "contract IProjects",
          "name": "_projects",
          "type": "address"
        },
        {
          "internalType": "contract IConfigStore",
          "name": "_configStore",
          "type": "address"
        },
        {
          "internalType": "contract ITerminalDirectory",
          "name": "_terminalDirectory",
          "type": "address"
        }
      ],
      "stateMutability": "nonpayable",
      "type": "constructor"
    },
    {
      "inputs": [],
      "name": "BadAmount",
      "type": "error"
    },
    {
      "inputs": [],
      "name": "BadPeriod",
      "type": "error"
    },
    {
      "inputs": [],
      "name": "InsufficientBalance",
      "type": "error"
    },
    {
      "inputs": [],
      "name": "InvalidRecord",
      "type": "error"
    },
    {
      "inputs": [],
      "name": "InvalidSignature",
      "type": "error"
    },
    {
      "inputs": [],
      "name": "NotExpired",
      "type": "error"
    },
    {
      "inputs": [],
      "name": "NotProjectOwner",
      "type": "error"
    },
    {
      "inputs": [],
      "name": "TransactionNotMatch",
      "type": "error"
    },
    {
      "inputs": [],
      "name": "TransactionReverted",
      "type": "error"
    },
    {
      "inputs": [],
      "name": "UnAuthorized",
      "type": "error"
    },
    {
      "inputs": [],
      "name": "UnknowProposal",
      "type": "error"
    },
    {
      "anonymous": false,
      "inputs": [
        {
          "indexed": true,
          "internalType": "uint256",
          "name": "projectId",
          "type": "uint256"
        },
        {
          "indexed": false,
          "internalType": "address",
          "name": "membershipPass",
          "type": "address"
        },
        {
          "indexed": false,
          "internalType": "uint256[]",
          "name": "multipers",
          "type": "uint256[]"
        },
        {
          "indexed": false,
          "internalType": "address",
          "name": "admin",
          "type": "address"
        }
      ],
      "name": "CreateGovernor",
      "type": "event"
    },
    {
      "anonymous": false,
      "inputs": [
        {
          "indexed": true,
          "internalType": "uint256",
          "name": "projectId",
          "type": "uint256"
        },
        {
          "indexed": true,
          "internalType": "address",
          "name": "from",
          "type": "address"
        },
        {
          "indexed": false,
          "internalType": "uint256",
          "name": "proposalId",
          "type": "uint256"
        },
        {
          "indexed": false,
          "internalType": "uint8",
          "name": "proposalResult",
          "type": "uint8"
        }
      ],
      "name": "ExecuteProposal",
      "type": "event"
    },
    {
      "anonymous": false,
      "inputs": [
        {
          "indexed": true,
          "internalType": "uint256",
          "name": "projectId",
          "type": "uint256"
        },
        {
          "indexed": true,
          "internalType": "address",
          "name": "from",
          "type": "address"
        },
        {
          "indexed": false,
          "internalType": "uint256",
          "name": "proposalId",
          "type": "uint256"
        }
      ],
      "name": "ProposalCreated",
      "type": "event"
    },
    {
      "anonymous": false,
      "inputs": [
        {
          "indexed": true,
          "internalType": "uint256",
          "name": "projectId",
          "type": "uint256"
        },
        {
          "indexed": true,
          "internalType": "address",
          "name": "from",
          "type": "address"
        },
        {
          "indexed": false,
          "internalType": "uint256",
          "name": "points",
          "type": "uint256"
        },
        {
          "indexed": false,
          "internalType": "uint256[]",
          "name": "tierIds",
          "type": "uint256[]"
        },
        {
          "indexed": false,
          "internalType": "uint256[]",
          "name": "amounts",
          "type": "uint256[]"
        }
      ],
      "name": "StakePass",
      "type": "event"
    },
    {
      "anonymous": false,
      "inputs": [
        {
          "indexed": true,
          "internalType": "uint256",
          "name": "projectId",
          "type": "uint256"
        },
        {
          "indexed": true,
          "internalType": "address",
          "name": "from",
          "type": "address"
        },
        {
          "indexed": false,
          "internalType": "uint256",
          "name": "points",
          "type": "uint256"
        },
        {
          "indexed": false,
          "internalType": "uint256[]",
          "name": "tierIds",
          "type": "uint256[]"
        },
        {
          "indexed": false,
          "internalType": "uint256[]",
          "name": "amounts",
          "type": "uint256[]"
        }
      ],
      "name": "UnStakePass",
      "type": "event"
    },
    {
      "inputs": [],
      "name": "PROPOSE_ETH",
      "outputs": [
        {
          "internalType": "uint256",
          "name": "",
          "type": "uint256"
        }
      ],
      "stateMutability": "view",
      "type": "function"
    },
    {
      "inputs": [
        {
          "internalType": "uint256",
          "name": "",
          "type": "uint256"
        }
      ],
      "name": "adminOf",
      "outputs": [
        {
          "internalType": "address",
          "name": "",
          "type": "address"
        }
      ],
      "stateMutability": "view",
      "type": "function"
    },
    {
      "inputs": [],
      "name": "configStore",
      "outputs": [
        {
          "internalType": "contract IConfigStore",
          "name": "",
          "type": "address"
        }
      ],
      "stateMutability": "view",
      "type": "function"
    },
    {
      "inputs": [
        {
          "internalType": "uint256",
          "name": "_projectId",
          "type": "uint256"
        },
        {
          "internalType": "uint256[]",
          "name": "_multipliers",
          "type": "uint256[]"
        },
        {
          "internalType": "address",
          "name": "_membershipPass",
          "type": "address"
        },
        {
          "internalType": "address",
          "name": "_admin",
          "type": "address"
        }
      ],
      "name": "createGovernor",
      "outputs": [],
      "stateMutability": "nonpayable",
      "type": "function"
    },
    {
      "inputs": [
        {
          "internalType": "uint256",
          "name": "_projectId",
          "type": "uint256"
        },
        {
          "internalType": "uint256",
          "name": "_proposalId",
          "type": "uint256"
        },
        {
          "internalType": "uint8",
          "name": "_proposeResult",
          "type": "uint8"
        },
        {
          "internalType": "bytes",
          "name": "_signatureBySigner",
          "type": "bytes"
        },
        {
          "internalType": "address",
          "name": "_target",
          "type": "address"
        },
        {
          "internalType": "uint256",
          "name": "_value",
          "type": "uint256"
        },
        {
          "internalType": "string",
          "name": "_signature",
          "type": "string"
        },
        {
          "internalType": "bytes",
          "name": "_data",
          "type": "bytes"
        }
      ],
      "name": "execute",
      "outputs": [
        {
          "internalType": "bytes",
          "name": "_executeReturns",
          "type": "bytes"
        }
      ],
      "stateMutability": "nonpayable",
      "type": "function"
    },
    {
      "inputs": [
        {
          "internalType": "uint256",
          "name": "_projectId",
          "type": "uint256"
        },
        {
          "internalType": "address",
          "name": "_from",
          "type": "address"
        }
      ],
      "name": "getReputation",
      "outputs": [
        {
          "internalType": "uint256",
          "name": "",
          "type": "uint256"
        }
      ],
      "stateMutability": "view",
      "type": "function"
    },
    {
      "inputs": [
        {
          "internalType": "uint256",
          "name": "",
          "type": "uint256"
        }
      ],
      "name": "membershipPassOf",
      "outputs": [
        {
          "internalType": "address",
          "name": "",
          "type": "address"
        }
      ],
      "stateMutability": "view",
      "type": "function"
    },
    {
      "inputs": [
        {
          "internalType": "address",
          "name": "",
          "type": "address"
        },
        {
          "internalType": "address",
          "name": "",
          "type": "address"
        },
        {
          "internalType": "uint256[]",
          "name": "",
          "type": "uint256[]"
        },
        {
          "internalType": "uint256[]",
          "name": "",
          "type": "uint256[]"
        },
        {
          "internalType": "bytes",
          "name": "",
          "type": "bytes"
        }
      ],
      "name": "onERC1155BatchReceived",
      "outputs": [
        {
          "internalType": "bytes4",
          "name": "",
          "type": "bytes4"
        }
      ],
      "stateMutability": "nonpayable",
      "type": "function"
    },
    {
      "inputs": [
        {
          "internalType": "address",
          "name": "",
          "type": "address"
        },
        {
          "internalType": "address",
          "name": "",
          "type": "address"
        },
        {
          "internalType": "uint256",
          "name": "",
          "type": "uint256"
        },
        {
          "internalType": "uint256",
          "name": "",
          "type": "uint256"
        },
        {
          "internalType": "bytes",
          "name": "",
          "type": "bytes"
        }
      ],
      "name": "onERC1155Received",
      "outputs": [
        {
          "internalType": "bytes4",
          "name": "",
          "type": "bytes4"
        }
      ],
      "stateMutability": "nonpayable",
      "type": "function"
    },
    {
      "inputs": [],
      "name": "projects",
      "outputs": [
        {
          "internalType": "contract IProjects",
          "name": "",
          "type": "address"
        }
      ],
      "stateMutability": "view",
      "type": "function"
    },
    {
      "inputs": [
        {
          "internalType": "uint256",
          "name": "",
          "type": "uint256"
        }
      ],
      "name": "proposalIdOf",
      "outputs": [
        {
          "internalType": "uint256",
          "name": "_value",
          "type": "uint256"
        }
      ],
      "stateMutability": "view",
      "type": "function"
    },
    {
      "inputs": [
        {
          "internalType": "uint256",
          "name": "",
          "type": "uint256"
        },
        {
          "internalType": "uint256",
          "name": "",
          "type": "uint256"
        }
      ],
      "name": "proposalOf",
      "outputs": [
        {
          "internalType": "string",
          "name": "uri",
          "type": "string"
        },
        {
          "internalType": "uint256",
          "name": "id",
          "type": "uint256"
        },
        {
          "internalType": "bytes32",
          "name": "hash",
          "type": "bytes32"
        },
        {
          "internalType": "uint256",
          "name": "start",
          "type": "uint256"
        },
        {
          "internalType": "uint256",
          "name": "end",
          "type": "uint256"
        },
        {
          "internalType": "uint256",
          "name": "minVoters",
          "type": "uint256"
        },
        {
          "internalType": "uint256",
          "name": "minVotes",
          "type": "uint256"
        },
        {
          "internalType": "enum IDAOGovernorBooster.ProposalState",
          "name": "state",
          "type": "uint8"
        }
      ],
      "stateMutability": "view",
      "type": "function"
    },
    {
      "inputs": [],
      "name": "proposalRate",
      "outputs": [
        {
          "internalType": "uint256",
          "name": "",
          "type": "uint256"
        }
      ],
      "stateMutability": "view",
      "type": "function"
    },
    {
      "inputs": [
        {
          "internalType": "uint256",
          "name": "_projectId",
          "type": "uint256"
        },
        {
          "components": [
            {
              "internalType": "string",
              "name": "uri",
              "type": "string"
            },
            {
              "internalType": "uint256",
              "name": "start",
              "type": "uint256"
            },
            {
              "internalType": "uint256",
              "name": "end",
              "type": "uint256"
            }
          ],
          "internalType": "struct IDAOGovernorBooster.ProposalParameter",
          "name": "_properties",
          "type": "tuple"
        },
        {
          "internalType": "address",
          "name": "_target",
          "type": "address"
        },
        {
          "internalType": "uint256",
          "name": "_value",
          "type": "uint256"
        },
        {
          "internalType": "string",
          "name": "_signature",
          "type": "string"
        },
        {
          "internalType": "bytes",
          "name": "_calldata",
          "type": "bytes"
        }
      ],
      "name": "propose",
      "outputs": [],
      "stateMutability": "payable",
      "type": "function"
    },
    {
      "inputs": [],
      "name": "recordId",
      "outputs": [
        {
          "internalType": "uint256",
          "name": "",
          "type": "uint256"
        }
      ],
      "stateMutability": "view",
      "type": "function"
    },
    {
      "inputs": [
        {
          "internalType": "address",
          "name": "",
          "type": "address"
        },
        {
          "internalType": "uint256",
          "name": "",
          "type": "uint256"
        },
        {
          "internalType": "uint256",
          "name": "",
          "type": "uint256"
        }
      ],
      "name": "recordOf",
      "outputs": [
        {
          "internalType": "uint256",
          "name": "",
          "type": "uint256"
        }
      ],
      "stateMutability": "view",
      "type": "function"
    },
    {
      "inputs": [
        {
          "internalType": "uint256",
          "name": "_projectId",
          "type": "uint256"
        },
        {
          "internalType": "uint256",
          "name": "_proposalId",
          "type": "uint256"
        }
      ],
      "name": "revertProposal",
      "outputs": [],
      "stateMutability": "nonpayable",
      "type": "function"
    },
    {
      "inputs": [
        {
          "internalType": "uint256",
          "name": "_projectId",
          "type": "uint256"
        },
        {
          "components": [
            {
              "internalType": "uint256",
              "name": "tier",
              "type": "uint256"
            },
            {
              "internalType": "uint256",
              "name": "amount",
              "type": "uint256"
            },
            {
              "internalType": "uint8",
              "name": "duration",
              "type": "uint8"
            }
          ],
          "internalType": "struct IDAOGovernorBooster.PassStake[]",
          "name": "_membershipPass",
          "type": "tuple[]"
        }
      ],
      "name": "stakePass",
      "outputs": [
        {
          "internalType": "uint256",
          "name": "_reputation",
          "type": "uint256"
        }
      ],
      "stateMutability": "nonpayable",
      "type": "function"
    },
    {
      "inputs": [
        {
          "internalType": "uint256",
          "name": "",
          "type": "uint256"
        },
        {
          "internalType": "uint256",
          "name": "",
          "type": "uint256"
        }
      ],
      "name": "stakedETHOf",
      "outputs": [
        {
          "internalType": "uint256",
          "name": "",
          "type": "uint256"
        }
      ],
      "stateMutability": "view",
      "type": "function"
    },
    {
      "inputs": [
        {
          "internalType": "address",
          "name": "",
          "type": "address"
        },
        {
          "internalType": "uint256",
          "name": "",
          "type": "uint256"
        }
      ],
      "name": "stakesOf",
      "outputs": [
        {
          "internalType": "uint256",
          "name": "tier",
          "type": "uint256"
        },
        {
          "internalType": "uint256",
          "name": "amount",
          "type": "uint256"
        },
        {
          "internalType": "uint256",
          "name": "point",
          "type": "uint256"
        },
        {
          "internalType": "uint256",
          "name": "stakeAt",
          "type": "uint256"
        },
        {
          "internalType": "uint256",
          "name": "expiry",
          "type": "uint256"
        }
      ],
      "stateMutability": "view",
      "type": "function"
    },
    {
      "inputs": [
        {
          "internalType": "bytes4",
          "name": "interfaceId",
          "type": "bytes4"
        }
      ],
      "name": "supportsInterface",
      "outputs": [
        {
          "internalType": "bool",
          "name": "",
          "type": "bool"
        }
      ],
      "stateMutability": "view",
      "type": "function"
    },
    {
      "inputs": [],
      "name": "terminalDirectory",
      "outputs": [
        {
          "internalType": "contract ITerminalDirectory",
          "name": "",
          "type": "address"
        }
      ],
      "stateMutability": "view",
      "type": "function"
    },
    {
      "inputs": [
        {
          "internalType": "uint256",
          "name": "",
          "type": "uint256"
        },
        {
          "internalType": "uint256",
          "name": "",
          "type": "uint256"
        }
      ],
      "name": "tierReputationMultiplierOf",
      "outputs": [
        {
          "internalType": "uint256",
          "name": "",
          "type": "uint256"
        }
      ],
      "stateMutability": "view",
      "type": "function"
    },
    {
      "inputs": [
        {
          "internalType": "uint256",
          "name": "_projectId",
          "type": "uint256"
        },
        {
          "internalType": "uint256[]",
          "name": "_recordIds",
          "type": "uint256[]"
        }
      ],
      "name": "unStakePass",
      "outputs": [
        {
          "internalType": "uint256",
          "name": "_reputation",
          "type": "uint256"
        }
      ],
      "stateMutability": "nonpayable",
      "type": "function"
    },
    {
      "inputs": [
        {
          "internalType": "uint256",
          "name": "",
          "type": "uint256"
        }
      ],
      "name": "votesOf",
      "outputs": [
        {
          "internalType": "uint256",
          "name": "totalVoters",
          "type": "uint256"
        },
        {
          "internalType": "uint256",
          "name": "totalVotes",
          "type": "uint256"
        }
      ],
      "stateMutability": "view",
      "type": "function"
    }
  ],
  "transactionHash": "0xdec35420bffe61ba14022e4edd91b49c07a3388355121ced5e1dec8ca297a853",
  "args": [
    "0x145499F59c7C919266C7B2268c323eE7dB3B0079",
    "0x680231Dc3f66D2B357d0d34b33384cE22f80e417",
    "0x22f3c559e8b31817f25Df62786924b593cC5776E"
  ],
  "numDeployments": 1,
  "solcInputHash": "4e9316abea9744a68b7555d93f5656d5",
  "bytecode": "0x60e0604052600a6000553480156200001657600080fd5b5060405162002fb938038062002fb983398101604081905262000039916200005f565b6001600160601b0319606091821b811660805292811b831660a0521b1660c052620000cb565b60008060006060848603121562000074578283fd5b83516200008181620000b2565b60208501519093506200009481620000b2565b6040850151909250620000a781620000b2565b809150509250925092565b6001600160a01b0381168114620000c857600080fd5b50565b60805160601c60a05160601c60c05160601c612e9962000120600039600081816104f10152611cd001526000818161046a015281816113bf015261183901526000818161035901526112280152612e996000f3fe6080604052600436106101665760003560e01c806378f51e4d116100d15780639d69dc4e1161008a578063bc197c8111610064578063bc197c8114610560578063c862e3d4146105a5578063f23a6e61146105dd578063f7dfe22b1461060957600080fd5b80639d69dc4e146104df578063a69a33d714610513578063b21518e21461053357600080fd5b806378f51e4d146103a85780637cc28c83146103bb5780637d5e10ad146104385780638b79543c146104585780638fed3d891461048c5780639abdf87a146104a757600080fd5b80635537a6fa116101235780635537a6fa1461028657806361a0b72a146102bc5780636530735e146102dc578063673a46f2146103255780636abcf8e3146103475780637419d1161461037b57600080fd5b806301ffc9a71461016b578063239441f9146101a057806341511a8d146101ce578063482cfedd146102025780635045b41214610222578063552137f914610238575b600080fd5b34801561017757600080fd5b5061018b610186366004612606565b61061f565b60405190151581526020015b60405180910390f35b3480156101ac57600080fd5b506101c06101bb3660046127e6565b610656565b604051908152602001610197565b3480156101da57600080fd5b506101ee6101e93660046128e8565b610abf565b604051610197989796959493929190612be9565b34801561020e57600080fd5b506101c061021d366004612646565b610b97565b34801561022e57600080fd5b506101c060005481565b34801561024457600080fd5b5061026e61025336600461262e565b6005602052600090815260409020546001600160a01b031681565b6040516001600160a01b039091168152602001610197565b34801561029257600080fd5b5061026e6102a136600461262e565b600a602052600090815260409020546001600160a01b031681565b3480156102c857600080fd5b506101c06102d7366004612675565b610ce5565b3480156102e857600080fd5b506103106102f736600461262e565b6009602052600090815260409020805460019091015482565b60408051928352602083019190915201610197565b34801561033157600080fd5b50610345610340366004612745565b611206565b005b34801561035357600080fd5b5061026e7f000000000000000000000000000000000000000000000000000000000000000081565b34801561038757600080fd5b506101c061039636600461262e565b60026020526000908152604090205481565b6103456103b636600461282a565b6113a7565b3480156103c757600080fd5b506104106103d63660046125a7565b6007602090815260009283526040808420909152908252902080546001820154600283015460038401546004909401549293919290919085565b604080519586526020860194909452928401919091526060830152608082015260a001610197565b34801561044457600080fd5b506101c06104533660046125d2565b611706565b34801561046457600080fd5b5061026e7f000000000000000000000000000000000000000000000000000000000000000081565b34801561049857600080fd5b506101c066038d7ea4c6800081565b3480156104b357600080fd5b506101c06104c23660046128e8565b600360209081526000928352604080842090915290825290205481565b3480156104eb57600080fd5b5061026e7f000000000000000000000000000000000000000000000000000000000000000081565b34801561051f57600080fd5b5061034561052e3660046128e8565b611744565b34801561053f57600080fd5b5061055361054e366004612909565b611816565b6040516101979190612bd6565b34801561056c57600080fd5b5061058c61057b366004612498565b63bc197c8160e01b95945050505050565b6040516001600160e01b03199091168152602001610197565b3480156105b157600080fd5b506101c06105c03660046128e8565b600660209081526000928352604080842090915290825290205481565b3480156105e957600080fd5b5061058c6105f8366004612541565b63f23a6e6160e01b95945050505050565b34801561061557600080fd5b506101c060015481565b60006001600160e01b03198216630271189760e51b148061065057506301ffc9a760e01b6001600160e01b03198316145b92915050565b600080339050600083516001600160401b0381111561068557634e487b7160e01b600052604160045260246000fd5b6040519080825280602002602001820160405280156106ae578160200160208202803683370190505b509050600084516001600160401b038111156106da57634e487b7160e01b600052604160045260246000fd5b604051908082528060200260200182016040528015610703578160200160208202803683370190505b50905060005b85518160ff16101561095d576001600160a01b038416600090815260076020526040812087518290899060ff861690811061075457634e487b7160e01b600052603260045260246000fd5b602002602001015181526020019081526020016000206040518060a00160405290816000820154815260200160018201548152602001600282015481526020016003820154815260200160048201548152505090508060200151600014156107cf5760405163f2a3e8db60e01b815260040160405180910390fd5b80608001514210156107f45760405163d0404f8560e01b815260040160405180910390fd5b8060000151848360ff168151811061081c57634e487b7160e01b600052603260045260246000fd5b6020026020010181815250508060200151838360ff168151811061085057634e487b7160e01b600052603260045260246000fd5b60200260200101818152505060076000866001600160a01b03166001600160a01b031681526020019081526020016000206000888460ff16815181106108a657634e487b7160e01b600052603260045260246000fd5b602090810291909101810151825281810192909252604090810160009081208181556001810182905560028101829055600381018290556004018190556001600160a01b0388168152600883528181208b825290925290208751889060ff851690811061092357634e487b7160e01b600052603260045260246000fd5b60200260200101518154811061094957634e487b7160e01b600052603260045260246000fd5b600091825260208220015550600101610709565b5060008681526005602052604090819020549051631759616b60e11b81526001600160a01b0390911690632eb2c2d6906109a1903090879087908790600401612b19565b600060405180830381600087803b1580156109bb57600080fd5b505af11580156109cf573d6000803e3d6000fd5b5050505060006109df8785611b48565b905080610a36576000878152600960205260408120805460019290610a05908490612da0565b90915550506001600160a01b03841660009081526008602090815260408083208a84529091528120610a3691612254565b610a408785610b97565b945084600960008981526020019081526020016000206001016000828254610a689190612da0565b92505081905550836001600160a01b0316877fb0c7abfb6eb06499a7d788a5c359444e6cdb3cd73668035af9b20f0951a07bd6878686604051610aad93929190612c55565b60405180910390a35050505092915050565b6004602090815260009283526040808420909152908252902080548190610ae590612de7565b80601f0160208091040260200160405190810160405280929190818152602001828054610b1190612de7565b8015610b5e5780601f10610b3357610100808354040283529160200191610b5e565b820191906000526020600020905b815481529060010190602001808311610b4157829003601f168201915b50505050600183015460028401546003850154600486015460058701546006880154600790980154969794969395509193909260ff1688565b6001600160a01b0381166000908152600860209081526040808320858452825280832080548251818502810185019093528083528493830182828015610bfc57602002820191906000526020600020905b815481526020019060010190808311610be8575b50505050509050805160001415610c17576000915050610650565b6000805b8251811015610cdc576001600160a01b038516600090815260076020526040812084518290869085908110610c6057634e487b7160e01b600052603260045260246000fd5b602002602001015181526020019081526020016000206040518060a00160405290816000820154815260200160018201548152602001600282015481526020016003820154815260200160048201548152505090508060800151421015610cd3576040810151610cd09084612d49565b92505b50600101610c1b565b50949350505050565b80516000903390610cfa576000915050610650565b610d048482611b48565b610d2d576000848152600960205260408120805460019290610d27908490612d49565b90915550505b600083516001600160401b03811115610d5657634e487b7160e01b600052604160045260246000fd5b604051908082528060200260200182016040528015610d7f578160200160208202803683370190505b509050600084516001600160401b03811115610dab57634e487b7160e01b600052604160045260246000fd5b604051908082528060200260200182016040528015610dd4578160200160208202803683370190505b50905060005b85518160ff16101561110857858160ff1681518110610e0957634e487b7160e01b600052603260045260246000fd5b602002602001015160000151838260ff1681518110610e3857634e487b7160e01b600052603260045260246000fd5b602002602001018181525050858160ff1681518110610e6757634e487b7160e01b600052603260045260246000fd5b602002602001015160200151828260ff1681518110610e9657634e487b7160e01b600052603260045260246000fd5b602002602001018181525050818160ff1681518110610ec557634e487b7160e01b600052603260045260246000fd5b602002602001015160001415610eee5760405163749b593960e01b815260040160405180910390fd5b6001805481018082556001600160a01b03861660009081526008602090815260408083208c84528252808320805495860181558352912090920155805160a0810190915283518190859060ff8516908110610f5957634e487b7160e01b600052603260045260246000fd5b60200260200101518152602001838360ff1681518110610f8957634e487b7160e01b600052603260045260246000fd5b60200260200101518152602001838360ff1681518110610fb957634e487b7160e01b600052603260045260246000fd5b6020026020010151888460ff1681518110610fe457634e487b7160e01b600052603260045260246000fd5b60200260200101516040015160ff16600660008c81526020019081526020016000206000888760ff168151811061102b57634e487b7160e01b600052603260045260246000fd5b602002602001015181526020019081526020016000205461104c9190612d81565b6110569190612d81565b8152602001428152602001878360ff168151811061108457634e487b7160e01b600052603260045260246000fd5b60200260200101516040015160ff1662278d006110a19190612d81565b6110ab9042612d49565b90526001600160a01b03851660009081526007602090815260408083206001805485529083529281902084518155918401518284015583015160028201556060830151600382015560809092015160049092019190915501610dda565b5060008681526005602052604090819020549051631759616b60e11b81526001600160a01b0390911690632eb2c2d69061114c908690309087908790600401612b19565b600060405180830381600087803b15801561116657600080fd5b505af115801561117a573d6000803e3d6000fd5b505050506111888684610b97565b9350836009600088815260200190815260200160002060010160008282546111b09190612d49565b92505081905550826001600160a01b0316867f391a83cfa923c97322ac794a9cebd498d4b5641ea5b0d09cbccaf3f2b67ac78e8685856040516111f593929190612c55565b60405180910390a350505092915050565b604051634fe0eced60e01b815260048101869052859033906001600160a01b037f00000000000000000000000000000000000000000000000000000000000000001690634fe0eced9060240160206040518083038186803b15801561126a57600080fd5b505afa15801561127e573d6000803e3d6000fd5b505050506040513d601f19601f820116820180604052508101906112a29190612475565b6001600160a01b0316146112c95760405163be24598360e01b815260040160405180910390fd5b6000868152600a6020908152604080832080546001600160a01b038088166001600160a01b03199283161790925560059093529083208054918716919092161790555b848110156113605785858281811061133457634e487b7160e01b600052603260045260246000fd5b60008a81526006602090815260408083208784528252909120910292909201359091555060010161130c565b50857fe4eac2915a3b232e7c1a8c849de37043ab57b0930f09dd29a9c4d4ca69640053848787866040516113979493929190612b81565b60405180910390a2505050505050565b6040516331a9108f60e11b81526004810189905288907f00000000000000000000000000000000000000000000000000000000000000006001600160a01b031690636352211e9060240160206040518083038186803b15801561140957600080fd5b505afa15801561141d573d6000803e3d6000fd5b505050506040513d601f19601f820116820180604052508101906114419190612475565b6001600160a01b0316336001600160a01b03161461147257604051637c2411e960e01b815260040160405180910390fd5b8760400135886020013510158061148d575087604001354210155b156114ab57604051633dee3b7160e11b815260040160405180910390fd5b66038d7ea4c680003410156114d357604051631e9acf1760e31b815260040160405180910390fd5b6000898152600260209081526040808320805460010190819055600383528184208185528352818420349055905190929161151a918b918b918b918b918b918b9101612a31565b60408051601f19818403018152828252805160209091012061010083019091529150806115478c80612c8a565b8080601f0160208091040260200160405190810160405280939291908181526020018383808284376000920182905250938552505050602080830186905260408084018690528e82013560608501528e81013560808501528f8352600990915290205460a0909101906115b990611c21565b81526020016115dd600960008f815260200190815260200160002060010154611c21565b8152602001428c60200135116115f45760006115f7565b60015b600581111561161657634e487b7160e01b600052602160045260246000fd5b905260008c8152600460209081526040808320868452825290912082518051919261164692849290910190612272565b506020820151816001015560408201518160020155606082015181600301556080820151816004015560a0820151816005015560c0820151816006015560e08201518160070160006101000a81548160ff021916908360058111156116bb57634e487b7160e01b600052602160045260246000fd5b0217905550506040518381523391508c907f3417b456fad6209c73445d5efd446d686e75e4560f0f50c13b5a5cde976447b49060200160405180910390a35050505050505050505050565b6008602052826000526040600020602052816000526040600020818154811061172e57600080fd5b9060005260206000200160009250925050505481565b6000828152600a602052604090205482906001600160a01b0316331461177d5760405163be24598360e01b815260040160405180910390fd5b60008381526004602090815260408083208584529091529020600101546117b757604051636aed889560e01b815260040160405180910390fd5b60008381526004602090815260408083208584529091528120906117db82826122f6565b50600060018201819055600282018190556003820181905560048201819055600582018190556006820155600701805460ff19169055505050565b6040516331a9108f60e11b81526004810189905260609089906001600160a01b037f00000000000000000000000000000000000000000000000000000000000000001690636352211e9060240160206040518083038186803b15801561187b57600080fd5b505afa15801561188f573d6000803e3d6000fd5b505050506040513d601f19601f820116820180604052508101906118b39190612475565b6001600160a01b0316336001600160a01b0316146118e457604051637c2411e960e01b815260040160405180910390fd5b60008a81526004602090815260408083208c8452909152902060018101548a1461192157604051636aed889560e01b815260040160405180910390fd5b806004015442108061195957506005600782015460ff16600581111561195757634e487b7160e01b600052602160045260246000fd5b145b1561197757604051633dee3b7160e11b815260040160405180910390fd5b611983338b8b8b611c64565b6119a057604051638baa579f60e01b815260040160405180910390fd5b6000878787876040516020016119b99493929190612a77565b604051602081830303815290604052805190602001209050808260020154146119f557604051630fb5d77960e31b815260040160405180910390fd5b60078201805460ff1916600517905560ff8a16611ad1576060865160001415611a1f575084611a4b565b868051906020012086604051602001611a39929190612acc565b60405160208183030381529060405290505b6000808a6001600160a01b03168a84604051611a679190612afd565b60006040518083038185875af1925050503d8060008114611aa4576040519150601f19603f3d011682016040523d82523d6000602084013e611aa9565b606091505b509150915081611acc576040516348b3e13d60e11b815260040160405180910390fd5b955050505b60008c81526003602090815260408083208e845290915281208054919055611af93382611d73565b604080518d815260ff8d16602082015233918f917fa59f9b2dc4c8fed59ad676058c365dc39fef85a09cdf9b9e292b0e713b5e8e98910160405180910390a35050505098975050505050505050565b6001600160a01b0381166000908152600860209081526040808320858452825280832080548251818502810185019093528083528493830182828015611bad57602002820191906000526020600020905b815481526020019060010190808311611b99575b50505050509050805160001415611bc8576000915050610650565b60005b8151811015611c1657818181518110611bf457634e487b7160e01b600052603260045260246000fd5b6020026020010151600014611c0e57600192505050610650565b600101611bcb565b506000949350505050565b60006064600160005484611c359190612d81565b611c40906064612d49565b611c4a9190612da0565b611c549190612d61565b905080611c5f575060015b919050565b6040516bffffffffffffffffffffffff19606086901b166020820152603481018490526001600160f81b031960f884901b1660548201526000908190605501604051602081830303815290604052805190602001209050611cc58184611e96565b6001600160a01b03167f00000000000000000000000000000000000000000000000000000000000000006001600160a01b031663238ac9336040518163ffffffff1660e01b815260040160206040518083038186803b158015611d2757600080fd5b505afa158015611d3b573d6000803e3d6000fd5b505050506040513d601f19601f82011682018060405250810190611d5f9190612475565b6001600160a01b0316149695505050505050565b80471015611dc85760405162461bcd60e51b815260206004820152601d60248201527f416464726573733a20696e73756666696369656e742062616c616e636500000060448201526064015b60405180910390fd5b6000826001600160a01b03168260405160006040518083038185875af1925050503d8060008114611e15576040519150601f19603f3d011682016040523d82523d6000602084013e611e1a565b606091505b5050905080611e915760405162461bcd60e51b815260206004820152603a60248201527f416464726573733a20756e61626c6520746f2073656e642076616c75652c207260448201527f6563697069656e74206d617920686176652072657665727465640000000000006064820152608401611dbf565b505050565b6000806000611ea58585611eba565b91509150611eb281611f2a565b509392505050565b600080825160411415611ef15760208301516040840151606085015160001a611ee58782858561212e565b94509450505050611f23565b825160401415611f1b5760208301516040840151611f1086838361221b565b935093505050611f23565b506000905060025b9250929050565b6000816004811115611f4c57634e487b7160e01b600052602160045260246000fd5b1415611f555750565b6001816004811115611f7757634e487b7160e01b600052602160045260246000fd5b1415611fc55760405162461bcd60e51b815260206004820152601860248201527f45434453413a20696e76616c6964207369676e617475726500000000000000006044820152606401611dbf565b6002816004811115611fe757634e487b7160e01b600052602160045260246000fd5b14156120355760405162461bcd60e51b815260206004820152601f60248201527f45434453413a20696e76616c6964207369676e6174757265206c656e677468006044820152606401611dbf565b600381600481111561205757634e487b7160e01b600052602160045260246000fd5b14156120b05760405162461bcd60e51b815260206004820152602260248201527f45434453413a20696e76616c6964207369676e6174757265202773272076616c604482015261756560f01b6064820152608401611dbf565b60048160048111156120d257634e487b7160e01b600052602160045260246000fd5b141561212b5760405162461bcd60e51b815260206004820152602260248201527f45434453413a20696e76616c6964207369676e6174757265202776272076616c604482015261756560f01b6064820152608401611dbf565b50565b6000807f7fffffffffffffffffffffffffffffff5d576e7357a4501ddfe92f46681b20a08311156121655750600090506003612212565b8460ff16601b1415801561217d57508460ff16601c14155b1561218e5750600090506004612212565b6040805160008082526020820180845289905260ff881692820192909252606081018690526080810185905260019060a0016020604051602081039080840390855afa1580156121e2573d6000803e3d6000fd5b5050604051601f1901519150506001600160a01b03811661220b57600060019250925050612212565b9150600090505b94509492505050565b6000806001600160ff1b0383168161223860ff86901c601b612d49565b90506122468782888561212e565b935093505050935093915050565b508054600082559060005260206000209081019061212b919061232c565b82805461227e90612de7565b90600052602060002090601f0160209004810192826122a057600085556122e6565b82601f106122b957805160ff19168380011785556122e6565b828001600101855582156122e6579182015b828111156122e65782518255916020019190600101906122cb565b506122f292915061232c565b5090565b50805461230290612de7565b6000825580601f10612312575050565b601f01602090049060005260206000209081019061212b91905b5b808211156122f2576000815560010161232d565b8035611c5f81612e4e565b600082601f83011261235c578081fd5b8135602061237161236c83612d26565b612cf6565b80838252828201915082860187848660051b8901011115612390578586fd5b855b858110156123ae57813584529284019290840190600101612392565b5090979650505050505050565b60008083601f8401126123cc578182fd5b5081356001600160401b038111156123e2578182fd5b602083019150836020828501011115611f2357600080fd5b600082601f83011261240a578081fd5b81356001600160401b0381111561242357612423612e38565b612436601f8201601f1916602001612cf6565b81815284602083860101111561244a578283fd5b816020850160208301379081016020019190915292915050565b803560ff81168114611c5f57600080fd5b600060208284031215612486578081fd5b815161249181612e4e565b9392505050565b600080600080600060a086880312156124af578081fd5b85356124ba81612e4e565b945060208601356124ca81612e4e565b935060408601356001600160401b03808211156124e5578283fd5b6124f189838a0161234c565b94506060880135915080821115612506578283fd5b61251289838a0161234c565b93506080880135915080821115612527578283fd5b50612534888289016123fa565b9150509295509295909350565b600080600080600060a08688031215612558578081fd5b853561256381612e4e565b9450602086013561257381612e4e565b9350604086013592506060860135915060808601356001600160401b0381111561259b578182fd5b612534888289016123fa565b600080604083850312156125b9578182fd5b82356125c481612e4e565b946020939093013593505050565b6000806000606084860312156125e6578081fd5b83356125f181612e4e565b95602085013595506040909401359392505050565b600060208284031215612617578081fd5b81356001600160e01b031981168114612491578182fd5b60006020828403121561263f578081fd5b5035919050565b60008060408385031215612658578182fd5b82359150602083013561266a81612e4e565b809150509250929050565b6000806040808486031215612688578283fd5b833592506020808501356001600160401b038111156126a5578384fd5b8501601f810187136126b5578384fd5b80356126c361236c82612d26565b818152838101908385016060808502860187018c10156126e1578889fd5b8895505b848610156127345780828d0312156126fb578889fd5b612703612cce565b82358152878301358882015261271a898401612464565b818a015284526001959095019492860192908101906126e5565b50979a909950975050505050505050565b60008060008060006080868803121561275c578283fd5b8535945060208601356001600160401b0380821115612779578485fd5b818801915088601f83011261278c578485fd5b81358181111561279a578586fd5b8960208260051b85010111156127ae578586fd5b60208301965080955050505060408601356127c881612e4e565b915060608601356127d881612e4e565b809150509295509295909350565b600080604083850312156127f8578182fd5b8235915060208301356001600160401b03811115612814578182fd5b6128208582860161234c565b9150509250929050565b60008060008060008060008060c0898b031215612845578586fd5b8835975060208901356001600160401b0380821115612862578788fd5b908a01906060828d031215612875578788fd5b90975060408a01359061288782612e4e565b90965060608a0135955060808a013590808211156128a3578485fd5b6128af8c838d016123bb565b909650945060a08b01359150808211156128c7578384fd5b506128d48b828c016123bb565b999c989b5096995094979396929594505050565b600080604083850312156128fa578182fd5b50508035926020909101359150565b600080600080600080600080610100898b031215612925578182fd5b883597506020890135965061293c60408a01612464565b955060608901356001600160401b0380821115612957578384fd5b6129638c838d016123fa565b965061297160808c01612341565b955060a08b0135945060c08b013591508082111561298d578384fd5b6129998c838d016123fa565b935060e08b01359150808211156129ae578283fd5b506129bb8b828c016123fa565b9150509295985092959890939650565b6000815180845260208085019450808401835b838110156129fa578151875295820195908201906001016129de565b509495945050505050565b60008151808452612a1d816020860160208601612db7565b601f01601f19169290920160200192915050565b6bffffffffffffffffffffffff198760601b1681528560148201528385603483013760008482016034810182815284868237509092016034019182525095945050505050565b6bffffffffffffffffffffffff198560601b16815283601482015260008351612aa7816034850160208801612db7565b835190830190612abe816034840160208801612db7565b016034019695505050505050565b6001600160e01b0319831681528151600090612aef816004850160208701612db7565b919091016004019392505050565b60008251612b0f818460208701612db7565b9190910192915050565b6001600160a01b0385811682528416602082015260a060408201819052600090612b45908301856129cb565b8281036060840152612b5781856129cb565b838103608090940193909352505060048152630307830360e41b6020820152604001949350505050565b6001600160a01b03858116825260606020830181905282018490526000906001600160fb1b03851115612bb2578182fd5b8460051b808760808601378301608001918252929092166040909101529392505050565b6020815260006124916020830184612a05565b6000610100808352612bfd8184018c612a05565b9150508860208301528760408301528660608301528560808301528460a08301528360c083015260068310612c4257634e487b7160e01b600052602160045260246000fd5b8260e08301529998505050505050505050565b838152606060208201526000612c6e60608301856129cb565b8281036040840152612c8081856129cb565b9695505050505050565b6000808335601e19843603018112612ca0578283fd5b8301803591506001600160401b03821115612cb9578283fd5b602001915036819003821315611f2357600080fd5b604051606081016001600160401b0381118282101715612cf057612cf0612e38565b60405290565b604051601f8201601f191681016001600160401b0381118282101715612d1e57612d1e612e38565b604052919050565b60006001600160401b03821115612d3f57612d3f612e38565b5060051b60200190565b60008219821115612d5c57612d5c612e22565b500190565b600082612d7c57634e487b7160e01b81526012600452602481fd5b500490565b6000816000190483118215151615612d9b57612d9b612e22565b500290565b600082821015612db257612db2612e22565b500390565b60005b83811015612dd2578181015183820152602001612dba565b83811115612de1576000848401525b50505050565b600181811c90821680612dfb57607f821691505b60208210811415612e1c57634e487b7160e01b600052602260045260246000fd5b50919050565b634e487b7160e01b600052601160045260246000fd5b634e487b7160e01b600052604160045260246000fd5b6001600160a01b038116811461212b57600080fdfea2646970667358221220b555aa9d249685bcac24d7bc0abbbff2d0533deb32d1a2e26d2f3cbe176d5a4564736f6c63430008040033",
  "devdoc": {
    "kind": "dev",
    "methods": {
      "createGovernor(uint256,uint256[],address,address)": {
        "params": {
          "_admin": "The admin of the DAO who can revert the impractical proposals",
          "_membershipPass": "Membership-pass of the DAO",
          "_multipliers": "Multiplier for tier reputations",
          "_projectId": "The ID of the DAO"
        }
      },
      "execute(uint256,uint256,uint8,bytes,address,uint256,string,bytes)": {
        "params": {
          "_projectId": "The ID of the DAO",
          "_proposalId": "The ID of the proposal to execute",
          "_proposeResult": "The proposal result, 0=true 1=false",
          "_signatureBySigner": "the signature signed by signer"
        }
      },
      "getReputation(uint256,address)": {
        "params": {
          "_from": "The wallet address that you want to get Points",
          "_projectId": "The ID of the DAO "
        }
      },
      "propose(uint256,(string,uint256,uint256),address,uint256,string,bytes)": {
        "details": "There has different types of proposals, only the DAO Owner can create the proposal that enable to unlock the treasury",
        "params": {
          "_calldata": "The data of the proposal",
          "_projectId": "The ID of the DAO",
          "_properties": "The data properties of proposal",
          "_signature": "The signature of the proposal",
          "_target": "The address of Treasury account",
          "_value": "The value of ETH"
        }
      },
      "revertProposal(uint256,uint256)": {
        "params": {
          "_projectId": "the project id of proposal belows to",
          "_proposalId": "the proposal id which try to revert"
        }
      },
      "stakePass(uint256,(uint256,uint256,uint8)[])": {
        "params": {
          "_membershipPass": "Membership-Pass details",
          "_projectId": "The ID of the DAO that user want to stake"
        }
      },
      "supportsInterface(bytes4)": {
        "details": "See {IERC165-supportsInterface}."
      },
      "unStakePass(uint256,uint256[])": {
        "params": {
          "_projectId": "the project to unstake"
        }
      }
    },
    "version": 1
  },
  "userdoc": {
    "kind": "user",
    "methods": {
      "createGovernor(uint256,uint256[],address,address)": {
        "notice": "Setup / create the admin for the governor in the DAO"
      },
      "execute(uint256,uint256,uint8,bytes,address,uint256,string,bytes)": {
        "notice": "Execute the proposal"
      },
      "getReputation(uint256,address)": {
        "notice": "Calculate the reputation points of the wallet address"
      },
      "propose(uint256,(string,uint256,uint256),address,uint256,string,bytes)": {
        "notice": "Create a proposal "
      },
      "revertProposal(uint256,uint256)": {
        "notice": "Admin can revert the incorrect proposal"
      },
      "stakePass(uint256,(uint256,uint256,uint8)[])": {
        "notice": "Stake Membership-pass to get reputation"
      },
      "unStakePass(uint256,uint256[])": {
        "notice": "Unstake MembershipPass"
      }
    },
    "version": 1
  },
  "storageLayout": {
    "storage": [
      {
        "astId": 9556,
        "contract": "contracts/DAOGovernorBooster.sol:DAOGovernorBooster",
        "label": "proposalRate",
        "offset": 0,
        "slot": "0",
        "type": "t_uint256"
      },
      {
        "astId": 9558,
        "contract": "contracts/DAOGovernorBooster.sol:DAOGovernorBooster",
        "label": "recordId",
        "offset": 0,
        "slot": "1",
        "type": "t_uint256"
      },
      {
        "astId": 9563,
        "contract": "contracts/DAOGovernorBooster.sol:DAOGovernorBooster",
        "label": "proposalIdOf",
        "offset": 0,
        "slot": "2",
        "type": "t_mapping(t_uint256,t_struct(Counter)4499_storage)"
      },
      {
        "astId": 9569,
        "contract": "contracts/DAOGovernorBooster.sol:DAOGovernorBooster",
        "label": "stakedETHOf",
        "offset": 0,
        "slot": "3",
        "type": "t_mapping(t_uint256,t_mapping(t_uint256,t_uint256))"
      },
      {
        "astId": 9576,
        "contract": "contracts/DAOGovernorBooster.sol:DAOGovernorBooster",
        "label": "proposalOf",
        "offset": 0,
        "slot": "4",
        "type": "t_mapping(t_uint256,t_mapping(t_uint256,t_struct(Proposal)15855_storage))"
      },
      {
        "astId": 9580,
        "contract": "contracts/DAOGovernorBooster.sol:DAOGovernorBooster",
        "label": "membershipPassOf",
        "offset": 0,
        "slot": "5",
        "type": "t_mapping(t_uint256,t_address)"
      },
      {
        "astId": 9586,
        "contract": "contracts/DAOGovernorBooster.sol:DAOGovernorBooster",
        "label": "tierReputationMultiplierOf",
        "offset": 0,
        "slot": "6",
        "type": "t_mapping(t_uint256,t_mapping(t_uint256,t_uint256))"
      },
      {
        "astId": 9593,
        "contract": "contracts/DAOGovernorBooster.sol:DAOGovernorBooster",
        "label": "stakesOf",
        "offset": 0,
        "slot": "7",
        "type": "t_mapping(t_address,t_mapping(t_uint256,t_struct(StakeRecord)15885_storage))"
      },
      {
        "astId": 9600,
        "contract": "contracts/DAOGovernorBooster.sol:DAOGovernorBooster",
        "label": "recordOf",
        "offset": 0,
        "slot": "8",
        "type": "t_mapping(t_address,t_mapping(t_uint256,t_array(t_uint256)dyn_storage))"
      },
      {
        "astId": 9605,
        "contract": "contracts/DAOGovernorBooster.sol:DAOGovernorBooster",
        "label": "votesOf",
        "offset": 0,
        "slot": "9",
        "type": "t_mapping(t_uint256,t_struct(Vote)15867_storage)"
      },
      {
        "astId": 9609,
        "contract": "contracts/DAOGovernorBooster.sol:DAOGovernorBooster",
        "label": "adminOf",
        "offset": 0,
        "slot": "10",
        "type": "t_mapping(t_uint256,t_address)"
      }
    ],
    "types": {
      "t_address": {
        "encoding": "inplace",
        "label": "address",
        "numberOfBytes": "20"
      },
      "t_array(t_uint256)dyn_storage": {
        "base": "t_uint256",
        "encoding": "dynamic_array",
        "label": "uint256[]",
        "numberOfBytes": "32"
      },
      "t_bytes32": {
        "encoding": "inplace",
        "label": "bytes32",
        "numberOfBytes": "32"
      },
      "t_enum(ProposalState)15837": {
        "encoding": "inplace",
        "label": "enum IDAOGovernorBooster.ProposalState",
        "numberOfBytes": "1"
      },
      "t_mapping(t_address,t_mapping(t_uint256,t_array(t_uint256)dyn_storage))": {
        "encoding": "mapping",
        "key": "t_address",
        "label": "mapping(address => mapping(uint256 => uint256[]))",
        "numberOfBytes": "32",
        "value": "t_mapping(t_uint256,t_array(t_uint256)dyn_storage)"
      },
      "t_mapping(t_address,t_mapping(t_uint256,t_struct(StakeRecord)15885_storage))": {
        "encoding": "mapping",
        "key": "t_address",
        "label": "mapping(address => mapping(uint256 => struct IDAOGovernorBooster.StakeRecord))",
        "numberOfBytes": "32",
        "value": "t_mapping(t_uint256,t_struct(StakeRecord)15885_storage)"
      },
      "t_mapping(t_uint256,t_address)": {
        "encoding": "mapping",
        "key": "t_uint256",
        "label": "mapping(uint256 => address)",
        "numberOfBytes": "32",
        "value": "t_address"
      },
      "t_mapping(t_uint256,t_array(t_uint256)dyn_storage)": {
        "encoding": "mapping",
        "key": "t_uint256",
        "label": "mapping(uint256 => uint256[])",
        "numberOfBytes": "32",
        "value": "t_array(t_uint256)dyn_storage"
      },
      "t_mapping(t_uint256,t_mapping(t_uint256,t_struct(Proposal)15855_storage))": {
        "encoding": "mapping",
        "key": "t_uint256",
        "label": "mapping(uint256 => mapping(uint256 => struct IDAOGovernorBooster.Proposal))",
        "numberOfBytes": "32",
        "value": "t_mapping(t_uint256,t_struct(Proposal)15855_storage)"
      },
      "t_mapping(t_uint256,t_mapping(t_uint256,t_uint256))": {
        "encoding": "mapping",
        "key": "t_uint256",
        "label": "mapping(uint256 => mapping(uint256 => uint256))",
        "numberOfBytes": "32",
        "value": "t_mapping(t_uint256,t_uint256)"
      },
      "t_mapping(t_uint256,t_struct(Counter)4499_storage)": {
        "encoding": "mapping",
        "key": "t_uint256",
        "label": "mapping(uint256 => struct Counters.Counter)",
        "numberOfBytes": "32",
        "value": "t_struct(Counter)4499_storage"
      },
      "t_mapping(t_uint256,t_struct(Proposal)15855_storage)": {
        "encoding": "mapping",
        "key": "t_uint256",
        "label": "mapping(uint256 => struct IDAOGovernorBooster.Proposal)",
        "numberOfBytes": "32",
        "value": "t_struct(Proposal)15855_storage"
      },
      "t_mapping(t_uint256,t_struct(StakeRecord)15885_storage)": {
        "encoding": "mapping",
        "key": "t_uint256",
        "label": "mapping(uint256 => struct IDAOGovernorBooster.StakeRecord)",
        "numberOfBytes": "32",
        "value": "t_struct(StakeRecord)15885_storage"
      },
      "t_mapping(t_uint256,t_struct(Vote)15867_storage)": {
        "encoding": "mapping",
        "key": "t_uint256",
        "label": "mapping(uint256 => struct IDAOGovernorBooster.Vote)",
        "numberOfBytes": "32",
        "value": "t_struct(Vote)15867_storage"
      },
      "t_mapping(t_uint256,t_uint256)": {
        "encoding": "mapping",
        "key": "t_uint256",
        "label": "mapping(uint256 => uint256)",
        "numberOfBytes": "32",
        "value": "t_uint256"
      },
      "t_string_storage": {
        "encoding": "bytes",
        "label": "string",
        "numberOfBytes": "32"
      },
      "t_struct(Counter)4499_storage": {
        "encoding": "inplace",
        "label": "struct Counters.Counter",
        "members": [
          {
            "astId": 4498,
            "contract": "contracts/DAOGovernorBooster.sol:DAOGovernorBooster",
            "label": "_value",
            "offset": 0,
            "slot": "0",
            "type": "t_uint256"
          }
        ],
        "numberOfBytes": "32"
      },
      "t_struct(Proposal)15855_storage": {
        "encoding": "inplace",
        "label": "struct IDAOGovernorBooster.Proposal",
        "members": [
          {
            "astId": 15839,
            "contract": "contracts/DAOGovernorBooster.sol:DAOGovernorBooster",
            "label": "uri",
            "offset": 0,
            "slot": "0",
            "type": "t_string_storage"
          },
          {
            "astId": 15841,
            "contract": "contracts/DAOGovernorBooster.sol:DAOGovernorBooster",
            "label": "id",
            "offset": 0,
            "slot": "1",
            "type": "t_uint256"
          },
          {
            "astId": 15843,
            "contract": "contracts/DAOGovernorBooster.sol:DAOGovernorBooster",
            "label": "hash",
            "offset": 0,
            "slot": "2",
            "type": "t_bytes32"
          },
          {
            "astId": 15845,
            "contract": "contracts/DAOGovernorBooster.sol:DAOGovernorBooster",
            "label": "start",
            "offset": 0,
            "slot": "3",
            "type": "t_uint256"
          },
          {
            "astId": 15847,
            "contract": "contracts/DAOGovernorBooster.sol:DAOGovernorBooster",
            "label": "end",
            "offset": 0,
            "slot": "4",
            "type": "t_uint256"
          },
          {
            "astId": 15849,
            "contract": "contracts/DAOGovernorBooster.sol:DAOGovernorBooster",
            "label": "minVoters",
            "offset": 0,
            "slot": "5",
            "type": "t_uint256"
          },
          {
            "astId": 15851,
            "contract": "contracts/DAOGovernorBooster.sol:DAOGovernorBooster",
            "label": "minVotes",
            "offset": 0,
            "slot": "6",
            "type": "t_uint256"
          },
          {
            "astId": 15854,
            "contract": "contracts/DAOGovernorBooster.sol:DAOGovernorBooster",
            "label": "state",
            "offset": 0,
            "slot": "7",
            "type": "t_enum(ProposalState)15837"
          }
        ],
        "numberOfBytes": "256"
      },
      "t_struct(StakeRecord)15885_storage": {
        "encoding": "inplace",
        "label": "struct IDAOGovernorBooster.StakeRecord",
        "members": [
          {
            "astId": 15876,
            "contract": "contracts/DAOGovernorBooster.sol:DAOGovernorBooster",
            "label": "tier",
            "offset": 0,
            "slot": "0",
            "type": "t_uint256"
          },
          {
            "astId": 15878,
            "contract": "contracts/DAOGovernorBooster.sol:DAOGovernorBooster",
            "label": "amount",
            "offset": 0,
            "slot": "1",
            "type": "t_uint256"
          },
          {
            "astId": 15880,
            "contract": "contracts/DAOGovernorBooster.sol:DAOGovernorBooster",
            "label": "point",
            "offset": 0,
            "slot": "2",
            "type": "t_uint256"
          },
          {
            "astId": 15882,
            "contract": "contracts/DAOGovernorBooster.sol:DAOGovernorBooster",
            "label": "stakeAt",
            "offset": 0,
            "slot": "3",
            "type": "t_uint256"
          },
          {
            "astId": 15884,
            "contract": "contracts/DAOGovernorBooster.sol:DAOGovernorBooster",
            "label": "expiry",
            "offset": 0,
            "slot": "4",
            "type": "t_uint256"
          }
        ],
        "numberOfBytes": "160"
      },
      "t_struct(Vote)15867_storage": {
        "encoding": "inplace",
        "label": "struct IDAOGovernorBooster.Vote",
        "members": [
          {
            "astId": 15864,
            "contract": "contracts/DAOGovernorBooster.sol:DAOGovernorBooster",
            "label": "totalVoters",
            "offset": 0,
            "slot": "0",
            "type": "t_uint256"
          },
          {
            "astId": 15866,
            "contract": "contracts/DAOGovernorBooster.sol:DAOGovernorBooster",
            "label": "totalVotes",
            "offset": 0,
            "slot": "1",
            "type": "t_uint256"
          }
        ],
        "numberOfBytes": "64"
      },
      "t_uint256": {
        "encoding": "inplace",
        "label": "uint256",
        "numberOfBytes": "32"
      }
    }
  }
}