{
  "address": "0x98D133D9f9Ea4D60Cb1f1AD782E7093B377dC368",
  "abi": [
    {
      "inputs": [
        {
          "internalType": "contract ITerminalDirectory",
          "name": "_terminalDirectory",
          "type": "address"
        }
      ],
      "stateMutability": "nonpayable",
      "type": "constructor"
    },
    {
      "inputs": [],
      "name": "BadCycleLimit",
      "type": "error"
    },
    {
      "inputs": [],
      "name": "BadDuration",
      "type": "error"
    },
    {
      "inputs": [],
      "name": "BadLockRate",
      "type": "error"
    },
    {
      "inputs": [],
      "name": "InsufficientBalance",
      "type": "error"
    },
    {
      "inputs": [],
      "name": "UnAuthorized",
      "type": "error"
    },
    {
      "anonymous": false,
      "inputs": [
        {
          "indexed": true,
          "internalType": "uint256",
          "name": "fundingCycleId",
          "type": "uint256"
        },
        {
          "indexed": true,
          "internalType": "uint256",
          "name": "projectId",
          "type": "uint256"
        },
        {
          "indexed": false,
          "internalType": "uint256",
          "name": "reconfigured",
          "type": "uint256"
        },
        {
          "indexed": false,
          "internalType": "address",
          "name": "caller",
          "type": "address"
        }
      ],
      "name": "Configure",
      "type": "event"
    },
    {
      "anonymous": false,
      "inputs": [
        {
          "indexed": true,
          "internalType": "uint256",
          "name": "fundingCycleId",
          "type": "uint256"
        },
        {
          "indexed": true,
          "internalType": "uint256",
          "name": "projectId",
          "type": "uint256"
        },
        {
          "indexed": false,
          "internalType": "uint256",
          "name": "reconfigured",
          "type": "uint256"
        },
        {
          "indexed": false,
          "internalType": "address",
          "name": "caller",
          "type": "address"
        }
      ],
      "name": "FundingCycleExist",
      "type": "event"
    },
    {
      "anonymous": false,
      "inputs": [
        {
          "indexed": true,
          "internalType": "uint256",
          "name": "fundingCycleId",
          "type": "uint256"
        },
        {
          "indexed": true,
          "internalType": "uint256",
          "name": "projectId",
          "type": "uint256"
        },
        {
          "indexed": false,
          "internalType": "uint256",
          "name": "previous",
          "type": "uint256"
        },
        {
          "indexed": false,
          "internalType": "uint256",
          "name": "start",
          "type": "uint256"
        },
        {
          "indexed": false,
          "internalType": "uint256",
          "name": "duration",
          "type": "uint256"
        },
        {
          "indexed": false,
          "internalType": "uint256",
          "name": "target",
          "type": "uint256"
        },
        {
          "indexed": false,
          "internalType": "uint256",
          "name": "lockRate",
          "type": "uint256"
        }
      ],
      "name": "Init",
      "type": "event"
    },
    {
      "anonymous": false,
      "inputs": [
        {
          "indexed": true,
          "internalType": "uint256",
          "name": "fundingCycleId",
          "type": "uint256"
        },
        {
          "components": [
            {
              "internalType": "uint256",
              "name": "id",
              "type": "uint256"
            },
            {
              "internalType": "uint256",
              "name": "salePrice",
              "type": "uint256"
            },
            {
              "internalType": "uint256",
              "name": "saleAmount",
              "type": "uint256"
            },
            {
              "internalType": "uint256",
              "name": "communityAmount",
              "type": "uint256"
            },
            {
              "internalType": "address",
              "name": "communityVoucher",
              "type": "address"
            },
            {
              "internalType": "uint256",
              "name": "reservedAmount",
              "type": "uint256"
            }
          ],
          "indexed": false,
          "internalType": "struct AuctionedPass",
          "name": "autionPass",
          "type": "tuple"
        }
      ],
      "name": "InitAuctionedPass",
      "type": "event"
    },
    {
      "anonymous": false,
      "inputs": [
        {
          "indexed": true,
          "internalType": "uint256",
          "name": "projectId",
          "type": "uint256"
        },
        {
          "indexed": true,
          "internalType": "uint256",
          "name": "fundingCycleId",
          "type": "uint256"
        },
        {
          "indexed": false,
          "internalType": "uint256",
          "name": "tapAmount",
          "type": "uint256"
        }
      ],
      "name": "Tap",
      "type": "event"
    },
    {
      "anonymous": false,
      "inputs": [
        {
          "indexed": true,
          "internalType": "uint256",
          "name": "projectId",
          "type": "uint256"
        },
        {
          "indexed": true,
          "internalType": "uint256",
          "name": "fundingCycleId",
          "type": "uint256"
        },
        {
          "indexed": false,
          "internalType": "uint256",
          "name": "unlockAmount",
          "type": "uint256"
        },
        {
          "indexed": false,
          "internalType": "uint256",
          "name": "totalUnlockedAmount",
          "type": "uint256"
        }
      ],
      "name": "Unlock",
      "type": "event"
    },
    {
      "anonymous": false,
      "inputs": [
        {
          "indexed": true,
          "internalType": "uint256",
          "name": "projectId",
          "type": "uint256"
        },
        {
          "indexed": true,
          "internalType": "uint256",
          "name": "fundingCycleId",
          "type": "uint256"
        },
        {
          "indexed": false,
          "internalType": "uint256",
          "name": "depositAmount",
          "type": "uint256"
        },
        {
          "indexed": false,
          "internalType": "uint256",
          "name": "totalDepositedAmount",
          "type": "uint256"
        }
      ],
      "name": "UpdateLocked",
      "type": "event"
    },
    {
      "inputs": [],
      "name": "MAX_CYCLE_LIMIT",
      "outputs": [
        {
          "internalType": "uint8",
          "name": "",
          "type": "uint8"
        }
      ],
      "stateMutability": "view",
      "type": "function"
    },
    {
      "inputs": [
        {
          "internalType": "uint256",
          "name": "_projectId",
          "type": "uint256"
        },
        {
          "components": [
            {
              "internalType": "uint16",
              "name": "lockRate",
              "type": "uint16"
            },
            {
              "internalType": "uint16",
              "name": "duration",
              "type": "uint16"
            },
            {
              "internalType": "uint256",
              "name": "cycleLimit",
              "type": "uint256"
            },
            {
              "internalType": "uint256",
              "name": "target",
              "type": "uint256"
            }
          ],
          "internalType": "struct FundingCycleParameter",
          "name": "_params",
          "type": "tuple"
        },
        {
          "components": [
            {
              "internalType": "uint256",
              "name": "id",
              "type": "uint256"
            },
            {
              "internalType": "uint256",
              "name": "salePrice",
              "type": "uint256"
            },
            {
              "internalType": "uint256",
              "name": "saleAmount",
              "type": "uint256"
            },
            {
              "internalType": "uint256",
              "name": "communityAmount",
              "type": "uint256"
            },
            {
              "internalType": "address",
              "name": "communityVoucher",
              "type": "address"
            },
            {
              "internalType": "uint256",
              "name": "reservedAmount",
              "type": "uint256"
            }
          ],
          "internalType": "struct AuctionedPass[]",
          "name": "_auctionedPass",
          "type": "tuple[]"
        }
      ],
      "name": "configure",
      "outputs": [
        {
          "components": [
            {
              "internalType": "uint256",
              "name": "id",
              "type": "uint256"
            },
            {
              "internalType": "uint256",
              "name": "projectId",
              "type": "uint256"
            },
            {
              "internalType": "uint256",
              "name": "previousId",
              "type": "uint256"
            },
            {
              "internalType": "uint256",
              "name": "start",
              "type": "uint256"
            },
            {
              "internalType": "uint256",
              "name": "target",
              "type": "uint256"
            },
            {
              "internalType": "uint256",
              "name": "lockRate",
              "type": "uint256"
            },
            {
              "internalType": "uint16",
              "name": "duration",
              "type": "uint16"
            },
            {
              "internalType": "bool",
              "name": "isPaused",
              "type": "bool"
            },
            {
              "internalType": "uint256",
              "name": "cycleLimit",
              "type": "uint256"
            }
          ],
          "internalType": "struct FundingCycleProperties",
          "name": "",
          "type": "tuple"
        }
      ],
      "stateMutability": "nonpayable",
      "type": "function"
    },
    {
      "inputs": [],
      "name": "count",
      "outputs": [
        {
          "internalType": "uint256",
          "name": "",
          "type": "uint256"
        }
      ],
      "stateMutability": "view",
      "type": "function"
    },
    {
      "inputs": [
        {
          "internalType": "uint256",
          "name": "_projectId",
          "type": "uint256"
        }
      ],
      "name": "currentOf",
      "outputs": [
        {
          "components": [
            {
              "internalType": "uint256",
              "name": "id",
              "type": "uint256"
            },
            {
              "internalType": "uint256",
              "name": "projectId",
              "type": "uint256"
            },
            {
              "internalType": "uint256",
              "name": "previousId",
              "type": "uint256"
            },
            {
              "internalType": "uint256",
              "name": "start",
              "type": "uint256"
            },
            {
              "internalType": "uint256",
              "name": "target",
              "type": "uint256"
            },
            {
              "internalType": "uint256",
              "name": "lockRate",
              "type": "uint256"
            },
            {
              "internalType": "uint16",
              "name": "duration",
              "type": "uint16"
            },
            {
              "internalType": "bool",
              "name": "isPaused",
              "type": "bool"
            },
            {
              "internalType": "uint256",
              "name": "cycleLimit",
              "type": "uint256"
            }
          ],
          "internalType": "struct FundingCycleProperties",
          "name": "",
          "type": "tuple"
        }
      ],
      "stateMutability": "view",
      "type": "function"
    },
    {
      "inputs": [
        {
          "internalType": "uint256",
          "name": "",
          "type": "uint256"
        }
      ],
      "name": "fundingCycleProperties",
      "outputs": [
        {
          "internalType": "uint256",
          "name": "id",
          "type": "uint256"
        },
        {
          "internalType": "uint256",
          "name": "projectId",
          "type": "uint256"
        },
        {
          "internalType": "uint256",
          "name": "previousId",
          "type": "uint256"
        },
        {
          "internalType": "uint256",
          "name": "start",
          "type": "uint256"
        },
        {
          "internalType": "uint256",
          "name": "target",
          "type": "uint256"
        },
        {
          "internalType": "uint256",
          "name": "lockRate",
          "type": "uint256"
        },
        {
          "internalType": "uint16",
          "name": "duration",
          "type": "uint16"
        },
        {
          "internalType": "bool",
          "name": "isPaused",
          "type": "bool"
        },
        {
          "internalType": "uint256",
          "name": "cycleLimit",
          "type": "uint256"
        }
      ],
      "stateMutability": "view",
      "type": "function"
    },
    {
      "inputs": [
        {
          "internalType": "uint256",
          "name": "_fundingCycleId",
          "type": "uint256"
        },
        {
          "internalType": "uint256",
          "name": "_tierId",
          "type": "uint256"
        }
      ],
      "name": "getAutionedPass",
      "outputs": [
        {
          "components": [
            {
              "internalType": "uint256",
              "name": "id",
              "type": "uint256"
            },
            {
              "internalType": "uint256",
              "name": "salePrice",
              "type": "uint256"
            },
            {
              "internalType": "uint256",
              "name": "saleAmount",
              "type": "uint256"
            },
            {
              "internalType": "uint256",
              "name": "communityAmount",
              "type": "uint256"
            },
            {
              "internalType": "address",
              "name": "communityVoucher",
              "type": "address"
            },
            {
              "internalType": "uint256",
              "name": "reservedAmount",
              "type": "uint256"
            }
          ],
          "internalType": "struct AuctionedPass",
          "name": "",
          "type": "tuple"
        }
      ],
      "stateMutability": "view",
      "type": "function"
    },
    {
      "inputs": [
        {
          "internalType": "uint256",
          "name": "_fundingCycleId",
          "type": "uint256"
        }
      ],
      "name": "getFundingCycle",
      "outputs": [
        {
          "components": [
            {
              "internalType": "uint256",
              "name": "id",
              "type": "uint256"
            },
            {
              "internalType": "uint256",
              "name": "projectId",
              "type": "uint256"
            },
            {
              "internalType": "uint256",
              "name": "previousId",
              "type": "uint256"
            },
            {
              "internalType": "uint256",
              "name": "start",
              "type": "uint256"
            },
            {
              "internalType": "uint256",
              "name": "target",
              "type": "uint256"
            },
            {
              "internalType": "uint256",
              "name": "lockRate",
              "type": "uint256"
            },
            {
              "internalType": "uint16",
              "name": "duration",
              "type": "uint16"
            },
            {
              "internalType": "bool",
              "name": "isPaused",
              "type": "bool"
            },
            {
              "internalType": "uint256",
              "name": "cycleLimit",
              "type": "uint256"
            }
          ],
          "internalType": "struct FundingCycleProperties",
          "name": "",
          "type": "tuple"
        }
      ],
      "stateMutability": "view",
      "type": "function"
    },
    {
      "inputs": [
        {
          "internalType": "uint256",
          "name": "_fundingCycleId",
          "type": "uint256"
        }
      ],
      "name": "getFundingCycleState",
      "outputs": [
        {
          "internalType": "enum FundingCycleState",
          "name": "",
          "type": "uint8"
        }
      ],
      "stateMutability": "view",
      "type": "function"
    },
    {
      "inputs": [
        {
          "internalType": "uint256",
          "name": "_fundingCycleId",
          "type": "uint256"
        }
      ],
      "name": "getTappableAmount",
      "outputs": [
        {
          "internalType": "uint256",
          "name": "_totalTappable",
          "type": "uint256"
        }
      ],
      "stateMutability": "view",
      "type": "function"
    },
    {
      "inputs": [
        {
          "internalType": "uint256",
          "name": "",
          "type": "uint256"
        }
      ],
      "name": "latestIdFundingProject",
      "outputs": [
        {
          "internalType": "uint256",
          "name": "",
          "type": "uint256"
        }
      ],
      "stateMutability": "view",
      "type": "function"
    },
    {
      "inputs": [
        {
          "internalType": "uint256",
          "name": "_projectId",
          "type": "uint256"
        },
        {
          "internalType": "bool",
          "name": "_paused",
          "type": "bool"
        }
      ],
      "name": "setPauseFundingCycle",
      "outputs": [
        {
          "internalType": "bool",
          "name": "",
          "type": "bool"
        }
      ],
      "stateMutability": "nonpayable",
      "type": "function"
    },
    {
      "inputs": [
        {
          "internalType": "uint256",
          "name": "_projectId",
          "type": "uint256"
        },
        {
          "internalType": "uint256",
          "name": "_fundingCycleId",
          "type": "uint256"
        },
        {
          "internalType": "uint256",
          "name": "_amount",
          "type": "uint256"
        }
      ],
      "name": "tap",
      "outputs": [],
      "stateMutability": "nonpayable",
      "type": "function"
    },
    {
      "inputs": [],
      "name": "terminalDirectory",
      "outputs": [
        {
          "internalType": "contract ITerminalDirectory",
          "name": "",
          "type": "address"
        }
      ],
      "stateMutability": "view",
      "type": "function"
    },
    {
      "inputs": [
        {
          "internalType": "uint256",
          "name": "_projectId",
          "type": "uint256"
        },
        {
          "internalType": "uint256",
          "name": "_fundingCycleId",
          "type": "uint256"
        },
        {
          "internalType": "uint256",
          "name": "_amount",
          "type": "uint256"
        }
      ],
      "name": "unlock",
      "outputs": [],
      "stateMutability": "nonpayable",
      "type": "function"
    },
    {
      "inputs": [
        {
          "internalType": "uint256",
          "name": "_projectId",
          "type": "uint256"
        },
        {
          "internalType": "uint256",
          "name": "_fundingCycleId",
          "type": "uint256"
        },
        {
          "internalType": "uint256",
          "name": "_amount",
          "type": "uint256"
        }
      ],
      "name": "updateLocked",
      "outputs": [],
      "stateMutability": "nonpayable",
      "type": "function"
    }
  ],
  "transactionHash": "0x80dd83af50a3c93084acfdbb52bb99a1d0ec8bc4b839dfbc7a000c742743da04",
  "args": [
    "0x22f3c559e8b31817f25Df62786924b593cC5776E"
  ],
  "numDeployments": 1,
  "solcInputHash": "4e9316abea9744a68b7555d93f5656d5",
  "bytecode": "0x60a060405234801561001057600080fd5b506040516119c43803806119c483398101604081905261002f91610044565b60601b6001600160601b031916608052610072565b600060208284031215610055578081fd5b81516001600160a01b038116811461006b578182fd5b9392505050565b60805160601c6119116100b3600039600081816101fc015281816103fd0152818161064a0152818161093501528181610b1f0152610c2701526119116000f3fe608060405234801561001057600080fd5b50600436106100f55760003560e01c80636f336d2211610097578063bec7cbda11610066578063bec7cbda146102df578063c71dea2014610302578063c7abc21d14610315578063d614edc5146103c157600080fd5b80636f336d22146102365780637084ee16146102995780637ab950ea146102b9578063a2e57646146102cc57600080fd5b8063276a7115116100d3578063276a71151461014b57806343a266c21461015e578063506df65b146101e45780636abcf8e3146101f757600080fd5b806306661abd146100fa57806307171bae14610116578063226fdb5a1461012b575b600080fd5b61010360045481565b6040519081526020015b60405180910390f35b610129610124366004611721565b6103db565b005b610103610139366004611625565b60066020526000908152604090205481565b610103610159366004611625565b610512565b61017161016c366004611625565b610601565b60405161010d9190600061012082019050825182526020830151602083015260408301516040830152606083015160608301526080830151608083015260a083015160a083015261ffff60c08401511660c083015260e0830151151560e083015261010080840151818401525092915050565b6101296101f2366004611721565b610628565b61021e7f000000000000000000000000000000000000000000000000000000000000000081565b6040516001600160a01b03909116815260200161010d565b610249610244366004611700565b61077b565b60405161010d9190815181526020808301519082015260408083015190820152606080830151908201526080808301516001600160a01b03169082015260a0918201519181019190915260c00190565b6102ac6102a7366004611625565b610847565b60405161010d9190611764565b6101296102c7366004611721565b610913565b6101716102da366004611625565b610a6f565b6102f26102ed36600461163d565b610afa565b604051901515815260200161010d565b610171610310366004611670565b610bfd565b610377610323366004611625565b600560208190526000918252604090912080546001820154600283015460038401546004850154958501546006860154600790960154949693959294919392909161ffff82169162010000900460ff169089565b60408051998a5260208a0198909852968801959095526060870193909352608086019190915260a085015261ffff1660c0840152151560e08301526101008201526101200161010d565b6103c9602081565b60405160ff909116815260200161010d565b604051634fe0eced60e01b815260048101849052839033906001600160a01b037f00000000000000000000000000000000000000000000000000000000000000001690634fe0eced9060240160206040518083038186803b15801561043f57600080fd5b505afa158015610453573d6000803e3d6000fd5b505050506040513d601f19601f8201168201806040525081019061047791906115e7565b6001600160a01b03161461049e5760405163be24598360e01b815260040160405180910390fd5b600083815260016020526040812080548492906104bc9084906117e0565b909155505060008381526001602090815260409182902054825185815291820152849186917fc692ddf01b04d523457f344c3a8f774000d79fb057c39fcd8eff46bb92dd2ca6910160405180910390a350505050565b60008181526005602081815260408084208151610120810183528154815260018201549381019390935260028101549183019190915260038101546060830152600481015460808301529182015460a0820152600682015461ffff811660c083015262010000900460ff16151560e08201526007909101546101008201528161059a8461126c565b905060006127108360a001516127106105b39190611837565b6105bd9084611818565b6105c791906117f8565b60008681526020818152604080832054600290925290912054919250906105ee90836117e0565b6105f89190611837565b95945050505050565b610609611595565b60008281526006602052604090205461062181610a6f565b9392505050565b604051634fe0eced60e01b815260048101849052839033906001600160a01b037f00000000000000000000000000000000000000000000000000000000000000001690634fe0eced9060240160206040518083038186803b15801561068c57600080fd5b505afa1580156106a0573d6000803e3d6000fd5b505050506040513d601f19601f820116820180604052508101906106c491906115e7565b6001600160a01b0316146106eb5760405163be24598360e01b815260040160405180910390fd5b60006106f684610512565b90508083111561071957604051631e9acf1760e31b815260040160405180910390fd5b600084815260208190526040812080548592906107379084906117e0565b9091555050604051838152849086907fac50cbabebf8c001f711845e239613f5e3a2bbab79ae1417191859237ec0ba3e906020015b60405180910390a35050505050565b6107bd6040518060c001604052806000815260200160008152602001600081526020016000815260200160006001600160a01b03168152602001600081525090565b600083836040516020016107d292919061174c565b60408051808303601f190181528282528051602091820120600090815260038083529083902060c0850184528054855260018101549285019290925260028201549284019290925290810154606083015260048101546001600160a01b031660808301526005015460a0820152949350505050565b600081815260056020818152604080842081516101208101835281548152600182015493810193909352600281015491830191909152600381015460608301819052600482015460808401529281015460a0830152600681015461ffff811660c084015262010000900460ff16151560e083015260070154610100820152904210156108d65750600092915050565b610e108160c0015161ffff166108ec9190611818565b81606001516108fb91906117e0565b421061090a5750600292915050565b50600192915050565b604051634fe0eced60e01b815260048101849052839033906001600160a01b037f00000000000000000000000000000000000000000000000000000000000000001690634fe0eced9060240160206040518083038186803b15801561097757600080fd5b505afa15801561098b573d6000803e3d6000fd5b505050506040513d601f19601f820116820180604052508101906109af91906115e7565b6001600160a01b0316146109d65760405163be24598360e01b815260040160405180910390fd5b60006109e18461130f565b905080831115610a0457604051631e9acf1760e31b815260040160405180910390fd5b60008481526002602052604081208054859290610a229084906117e0565b909155505060008481526002602090815260409182902054825186815291820152859187917f570529193eb76a0ea4dfa570cc1ea8f79680a9e476ebf63f9f6d48105755236c910161076c565b610a77611595565b506000908152600560208181526040928390208351610120810185528154815260018201549281019290925260028101549382019390935260038301546060820152600483015460808201529082015460a0820152600682015461ffff811660c083015262010000900460ff16151560e082015260079091015461010082015290565b604051634fe0eced60e01b815260048101839052600090839033906001600160a01b037f00000000000000000000000000000000000000000000000000000000000000001690634fe0eced9060240160206040518083038186803b158015610b6157600080fd5b505afa158015610b75573d6000803e3d6000fd5b505050506040513d601f19601f82011682018060405250810190610b9991906115e7565b6001600160a01b031614610bc05760405163be24598360e01b815260040160405180910390fd5b60008481526006602081815260408084205484526005909152909120018054841515620100000262ff000019909116179055600191505092915050565b610c05611595565b604051634fe0eced60e01b815260048101869052859033906001600160a01b037f00000000000000000000000000000000000000000000000000000000000000001690634fe0eced9060240160206040518083038186803b158015610c6957600080fd5b505afa158015610c7d573d6000803e3d6000fd5b505050506040513d601f19601f82011682018060405250810190610ca191906115e7565b6001600160a01b031614610cc85760405163be24598360e01b815260040160405180910390fd5b61ffff610cdb6040870160208801611603565b61ffff1610610cfd57604051634d84c2e960e01b815260040160405180910390fd5b612710610d0d6020870187611603565b61ffff161115610d3057604051632e0e8e6760e11b815260040160405180910390fd5b602060408601351115610d5657604051635eea9f8560e11b815260040160405180910390fd5b6000868152600660205260409020544290610ed9576000610d79886000896113d4565b905060005b85811015610e8a57600082888884818110610da957634e487b7160e01b600052603260045260246000fd5b905060c0020160000135604051602001610dc492919061174c565b604051602081830303815290604052805190602001209050878783818110610dfc57634e487b7160e01b600052603260045260246000fd5b905060c00201600360008381526020019081526020016000208181610e219190611864565b905050827f448284beb633f5f2261b0cfacd7586785b291d66e50b50d084a50741df2a4012898985818110610e6657634e487b7160e01b600052603260045260246000fd5b905060c00201604051610e79919061178c565b60405180910390a250600101610d7e565b5060408051838152336020820152899183917f24567c10c2bacd9076278266d7dd57fceb2b45a7f927a4929fd977e66e964065910160405180910390a3610ed081610a6f565b93505050611263565b60008781526006602081815260408084205480855260058084529482902082516101208101845281548152600182015494810194909452600281015492840192909252600382015460608401819052600483015460808501529482015460a08401529281015461ffff811660c084015262010000900460ff16151560e08301526007015461010082015290914210801590610f985750610e108160c0015161ffff16610f859190611818565b8160600151610f9491906117e0565b4211155b15610fe357604080518481523360208201528a9184917f55fe54a23e0c4786601e34bb5216a93a1b3f0826a41066ee96eab5f2ac661281910160405180910390a39350611263915050565b6000610ff08a848b6113d4565b905060005b87811015611216576000828a8a8481811061102057634e487b7160e01b600052603260045260246000fd5b905060c002016000013560405160200161103b92919061174c565b60408051601f198184030181529181528151602092830120600081815260039093529120600501549091508a8a8481811061108657634e487b7160e01b600052603260045260246000fd5b905060c0020160a001358b8b858181106110b057634e487b7160e01b600052603260045260246000fd5b905060c00201606001358c8c868181106110da57634e487b7160e01b600052603260045260246000fd5b905060c00201604001356110ee91906117e0565b6110f891906117e0565b111561111757604051631e9acf1760e31b815260040160405180910390fd5b89898381811061113757634e487b7160e01b600052603260045260246000fd5b905060c0020160036000858d8d8781811061116257634e487b7160e01b600052603260045260246000fd5b905060c002016000013560405160200161117d92919061174c565b60405160208183030381529060405280519060200120815260200190815260200160002081816111ad9190611864565b905050827f448284beb633f5f2261b0cfacd7586785b291d66e50b50d084a50741df2a40128b8b858181106111f257634e487b7160e01b600052603260045260246000fd5b905060c00201604051611205919061178c565b60405180910390a250600101610ff5565b50604080518581523360208201528b9183917f24567c10c2bacd9076278266d7dd57fceb2b45a7f927a4929fd977e66e964065910160405180910390a361125c81610a6f565b9550505050505b50949350505050565b60008181526005602081815260408084208151610120810183528154815260018083015482860152600283015482850152600383015460608301526004830154608083019081529583015460a0830152600683015461ffff811660c084015262010000900460ff16151560e0830152600790920154610100820152868652925283205491519091908110156113015780611307565b81608001515b949350505050565b60008181526005602081815260408084208151610120810183528154815260018201549381019390935260028101549183019190915260038101546060830152600481015460808301529182015460a0820152600682015461ffff811660c083015262010000900460ff16151560e0820152600790910154610100820152816113978461126c565b905060006127108360a00151836113ae9190611818565b6113b891906117f8565b6000868152600260205260409020549091506105f89082611837565b60006001600460008282546113e991906117e0565b92505081905550600060405180610120016040528060045481526020018681526020018581526020014261012c61142091906117e0565b8152602001846060013581526020018460000160208101906114429190611603565b61ffff16815260200184602001602081019061145e9190611603565b61ffff908116825260006020808401829052604088810180359582019590955285518b84526006808452828520919091556004805485526005808552948390208851815588850151600182015592880151600284015560608801516003840181905560808901518483015560a08901519584019590955560c0880151918301805460e08a01511515620100000262ffffff19909116939097169290921795909517905561010086015160079091015591549394508893927ffb5ee844b8ab1b9d38b89424e2e3bd0f6d325e4d844ad6ac4e396f2bb8506b1c92899291611545918a01611603565b606089013561155760208b018b611603565b60408051958652602086019490945261ffff92831693850193909352606084015216608082015260a00160405180910390a350506004549392505050565b604051806101200160405280600081526020016000815260200160008152602001600081526020016000815260200160008152602001600061ffff168152602001600015158152602001600081525090565b6000602082840312156115f8578081fd5b8151610621816118c3565b600060208284031215611614578081fd5b813561ffff81168114610621578182fd5b600060208284031215611636578081fd5b5035919050565b6000806040838503121561164f578081fd5b8235915060208301358015158114611665578182fd5b809150509250929050565b60008060008084860360c0811215611686578283fd5b853594506080601f198201121561169b578283fd5b5060208501925060a085013567ffffffffffffffff808211156116bc578384fd5b818701915087601f8301126116cf578384fd5b8135818111156116dd578485fd5b88602060c0830285010111156116f1578485fd5b95989497505060200194505050565b60008060408385031215611712578182fd5b50508035926020909101359150565b600080600060608486031215611735578283fd5b505081359360208301359350604090920135919050565b918252602d60f81b6020830152602182015260410190565b602081016003831061178657634e487b7160e01b600052602160045260246000fd5b91905290565b600060c0820190508235825260208301356020830152604083013560408301526060830135606083015260808301356117c4816118c3565b6001600160a01b0316608083015260a092830135919092015290565b600082198211156117f3576117f361184e565b500190565b60008261181357634e487b7160e01b81526012600452602481fd5b500490565b60008160001904831182151516156118325761183261184e565b500290565b6000828210156118495761184961184e565b500390565b634e487b7160e01b600052601160045260246000fd5b81358155602082013560018201556040820135600282015560608201356003820155600481016080830135611898816118c3565b81546001600160a01b0319166001600160a01b039190911617905560a0919091013560059190910155565b6001600160a01b03811681146118d857600080fd5b5056fea264697066735822122074a61452a842c2df7c7ad44bd5866fe115b6f76f656867281a76cf22239e0cb064736f6c63430008040033",
  "devdoc": {
    "kind": "dev",
    "methods": {
      "configure(uint256,(uint16,uint16,uint256,uint256),(uint256,uint256,uint256,uint256,address,uint256)[])": {
        "params": {
          "_auctionedPass": "auction pass information",
          "_params": "The parameters for Funding Cycle",
          "_projectId": "Dao Id"
        }
      },
      "currentOf(uint256)": {
        "params": {
          "_projectId": "The ID of project"
        }
      },
      "getFundingCycle(uint256)": {
        "params": {
          "_fundingCycleId": "The ID of the funding cycle to get"
        }
      },
      "getFundingCycleState(uint256)": {
        "params": {
          "_fundingCycleId": "The ID of funding cycle to get state"
        }
      },
      "getTappableAmount(uint256)": {
        "params": {
          "_fundingCycleId": "The ID of funding cycle to get max tappable amount"
        }
      },
      "setPauseFundingCycle(uint256,bool)": {
        "params": {
          "_paused": "Paused or not",
          "_projectId": "The project ID to update"
        }
      },
      "tap(uint256,uint256,uint256)": {
        "params": {
          "_amount": "The amount of tap",
          "_fundingCycleId": "The ID of funding cycle to tap funds",
          "_projectId": "The project ID of funding cycle belongs to"
        }
      },
      "unlock(uint256,uint256,uint256)": {
        "params": {
          "_amount": "The amount of unlock",
          "_fundingCycleId": "The ID of funding cycle to unlock funds",
          "_projectId": "The project ID of funding cycle belongs to"
        }
      },
      "updateLocked(uint256,uint256,uint256)": {
        "params": {
          "_amount": "The amount of tap",
          "_fundingCycleId": "The ID of funding cycle to update records",
          "_projectId": "The project ID of funding cycle belongs to"
        }
      }
    },
    "stateVariables": {
      "count": {
        "details": "Funding cycles have IDs > 0."
      }
    },
    "version": 1
  },
  "userdoc": {
    "kind": "user",
    "methods": {
      "configure(uint256,(uint16,uint16,uint256,uint256),(uint256,uint256,uint256,uint256,address,uint256)[])": {
        "notice": "configure funding cycle return a new funding cycle by call init if there is no funding cycle exist in the project return existing funding cycle if the funding cycle still active in the project return new funding cycle if there is no active funding cycle"
      },
      "count()": {
        "notice": "The total number of funding cycles created, which is used for issuing funding cycle IDs."
      },
      "currentOf(uint256)": {
        "notice": "Current active funding cycle of this dao project"
      },
      "getFundingCycle(uint256)": {
        "notice": " Get the funding cycle with the given ID"
      },
      "getFundingCycleState(uint256)": {
        "notice": "Return the state of giving funding cycle"
      },
      "getTappableAmount(uint256)": {
        "notice": "Get the tappable amount of giving funding cycle"
      },
      "setPauseFundingCycle(uint256,bool)": {
        "notice": "Update the contribute status of giving project"
      },
      "tap(uint256,uint256,uint256)": {
        "notice": "Tap the funds from funding cycle"
      },
      "unlock(uint256,uint256,uint256)": {
        "notice": "Unlock the funds in project's treasury, only can unlock by funding cycle"
      },
      "updateLocked(uint256,uint256,uint256)": {
        "notice": "Update the total deposited funds of funding cycle, include overflowed funds"
      }
    },
    "version": 1
  },
  "storageLayout": {
    "storage": [
      {
        "astId": 10634,
        "contract": "contracts/FundingCycles.sol:FundingCycles",
        "label": "_tappedOf",
        "offset": 0,
        "slot": "0",
        "type": "t_mapping(t_uint256,t_uint256)"
      },
      {
        "astId": 10638,
        "contract": "contracts/FundingCycles.sol:FundingCycles",
        "label": "_depositedOf",
        "offset": 0,
        "slot": "1",
        "type": "t_mapping(t_uint256,t_uint256)"
      },
      {
        "astId": 10642,
        "contract": "contracts/FundingCycles.sol:FundingCycles",
        "label": "_unLockedOf",
        "offset": 0,
        "slot": "2",
        "type": "t_mapping(t_uint256,t_uint256)"
      },
      {
        "astId": 10647,
        "contract": "contracts/FundingCycles.sol:FundingCycles",
        "label": "_fundingCycleIdAuctionedPass",
        "offset": 0,
        "slot": "3",
        "type": "t_mapping(t_bytes32,t_struct(AuctionedPass)16061_storage)"
      },
      {
        "astId": 10655,
        "contract": "contracts/FundingCycles.sol:FundingCycles",
        "label": "count",
        "offset": 0,
        "slot": "4",
        "type": "t_uint256"
      },
      {
        "astId": 10660,
        "contract": "contracts/FundingCycles.sol:FundingCycles",
        "label": "fundingCycleProperties",
        "offset": 0,
        "slot": "5",
        "type": "t_mapping(t_uint256,t_struct(FundingCycleProperties)16080_storage)"
      },
      {
        "astId": 10665,
        "contract": "contracts/FundingCycles.sol:FundingCycles",
        "label": "latestIdFundingProject",
        "offset": 0,
        "slot": "6",
        "type": "t_mapping(t_uint256,t_uint256)"
      }
    ],
    "types": {
      "t_address": {
        "encoding": "inplace",
        "label": "address",
        "numberOfBytes": "20"
      },
      "t_bool": {
        "encoding": "inplace",
        "label": "bool",
        "numberOfBytes": "1"
      },
      "t_bytes32": {
        "encoding": "inplace",
        "label": "bytes32",
        "numberOfBytes": "32"
      },
      "t_mapping(t_bytes32,t_struct(AuctionedPass)16061_storage)": {
        "encoding": "mapping",
        "key": "t_bytes32",
        "label": "mapping(bytes32 => struct AuctionedPass)",
        "numberOfBytes": "32",
        "value": "t_struct(AuctionedPass)16061_storage"
      },
      "t_mapping(t_uint256,t_struct(FundingCycleProperties)16080_storage)": {
        "encoding": "mapping",
        "key": "t_uint256",
        "label": "mapping(uint256 => struct FundingCycleProperties)",
        "numberOfBytes": "32",
        "value": "t_struct(FundingCycleProperties)16080_storage"
      },
      "t_mapping(t_uint256,t_uint256)": {
        "encoding": "mapping",
        "key": "t_uint256",
        "label": "mapping(uint256 => uint256)",
        "numberOfBytes": "32",
        "value": "t_uint256"
      },
      "t_struct(AuctionedPass)16061_storage": {
        "encoding": "inplace",
        "label": "struct AuctionedPass",
        "members": [
          {
            "astId": 16050,
            "contract": "contracts/FundingCycles.sol:FundingCycles",
            "label": "id",
            "offset": 0,
            "slot": "0",
            "type": "t_uint256"
          },
          {
            "astId": 16052,
            "contract": "contracts/FundingCycles.sol:FundingCycles",
            "label": "salePrice",
            "offset": 0,
            "slot": "1",
            "type": "t_uint256"
          },
          {
            "astId": 16054,
            "contract": "contracts/FundingCycles.sol:FundingCycles",
            "label": "saleAmount",
            "offset": 0,
            "slot": "2",
            "type": "t_uint256"
          },
          {
            "astId": 16056,
            "contract": "contracts/FundingCycles.sol:FundingCycles",
            "label": "communityAmount",
            "offset": 0,
            "slot": "3",
            "type": "t_uint256"
          },
          {
            "astId": 16058,
            "contract": "contracts/FundingCycles.sol:FundingCycles",
            "label": "communityVoucher",
            "offset": 0,
            "slot": "4",
            "type": "t_address"
          },
          {
            "astId": 16060,
            "contract": "contracts/FundingCycles.sol:FundingCycles",
            "label": "reservedAmount",
            "offset": 0,
            "slot": "5",
            "type": "t_uint256"
          }
        ],
        "numberOfBytes": "192"
      },
      "t_struct(FundingCycleProperties)16080_storage": {
        "encoding": "inplace",
        "label": "struct FundingCycleProperties",
        "members": [
          {
            "astId": 16063,
            "contract": "contracts/FundingCycles.sol:FundingCycles",
            "label": "id",
            "offset": 0,
            "slot": "0",
            "type": "t_uint256"
          },
          {
            "astId": 16065,
            "contract": "contracts/FundingCycles.sol:FundingCycles",
            "label": "projectId",
            "offset": 0,
            "slot": "1",
            "type": "t_uint256"
          },
          {
            "astId": 16067,
            "contract": "contracts/FundingCycles.sol:FundingCycles",
            "label": "previousId",
            "offset": 0,
            "slot": "2",
            "type": "t_uint256"
          },
          {
            "astId": 16069,
            "contract": "contracts/FundingCycles.sol:FundingCycles",
            "label": "start",
            "offset": 0,
            "slot": "3",
            "type": "t_uint256"
          },
          {
            "astId": 16071,
            "contract": "contracts/FundingCycles.sol:FundingCycles",
            "label": "target",
            "offset": 0,
            "slot": "4",
            "type": "t_uint256"
          },
          {
            "astId": 16073,
            "contract": "contracts/FundingCycles.sol:FundingCycles",
            "label": "lockRate",
            "offset": 0,
            "slot": "5",
            "type": "t_uint256"
          },
          {
            "astId": 16075,
            "contract": "contracts/FundingCycles.sol:FundingCycles",
            "label": "duration",
            "offset": 0,
            "slot": "6",
            "type": "t_uint16"
          },
          {
            "astId": 16077,
            "contract": "contracts/FundingCycles.sol:FundingCycles",
            "label": "isPaused",
            "offset": 2,
            "slot": "6",
            "type": "t_bool"
          },
          {
            "astId": 16079,
            "contract": "contracts/FundingCycles.sol:FundingCycles",
            "label": "cycleLimit",
            "offset": 0,
            "slot": "7",
            "type": "t_uint256"
          }
        ],
        "numberOfBytes": "256"
      },
      "t_uint16": {
        "encoding": "inplace",
        "label": "uint16",
        "numberOfBytes": "2"
      },
      "t_uint256": {
        "encoding": "inplace",
        "label": "uint256",
        "numberOfBytes": "32"
      }
    }
  }
}