{
  "address": "0xB07bdBdCdC9fCb85b568A6179fB6dB235692602C",
  "abi": [
    {
      "inputs": [
        {
          "internalType": "contract ITerminalDirectory",
          "name": "_terminalDirectory",
          "type": "address"
        },
        {
          "internalType": "contract IConfigStore",
          "name": "_configStore",
          "type": "address"
        },
        {
          "internalType": "contract IFundingCycles",
          "name": "_fundingCycles",
          "type": "address"
        }
      ],
      "stateMutability": "nonpayable",
      "type": "constructor"
    },
    {
      "inputs": [],
      "name": "ProjectNotExist",
      "type": "error"
    },
    {
      "inputs": [],
      "name": "UnAuthorized",
      "type": "error"
    },
    {
      "anonymous": false,
      "inputs": [
        {
          "indexed": true,
          "internalType": "address",
          "name": "from",
          "type": "address"
        },
        {
          "indexed": true,
          "internalType": "uint256",
          "name": "projectId",
          "type": "uint256"
        },
        {
          "indexed": false,
          "internalType": "uint256[]",
          "name": "tiers",
          "type": "uint256[]"
        },
        {
          "indexed": false,
          "internalType": "uint256[]",
          "name": "amounts",
          "type": "uint256[]"
        }
      ],
      "name": "AirdropBatchMintTicket",
      "type": "event"
    },
    {
      "anonymous": false,
      "inputs": [
        {
          "indexed": true,
          "internalType": "address",
          "name": "from",
          "type": "address"
        },
        {
          "indexed": true,
          "internalType": "uint256",
          "name": "projectId",
          "type": "uint256"
        },
        {
          "indexed": false,
          "internalType": "uint256[]",
          "name": "tiers",
          "type": "uint256[]"
        },
        {
          "indexed": false,
          "internalType": "uint256[]",
          "name": "amounts",
          "type": "uint256[]"
        }
      ],
      "name": "BatchMintTicket",
      "type": "event"
    },
    {
      "anonymous": false,
      "inputs": [
        {
          "indexed": true,
          "internalType": "uint256",
          "name": "projectId",
          "type": "uint256"
        },
        {
          "indexed": false,
          "internalType": "address",
          "name": "beneficiary",
          "type": "address"
        },
        {
          "indexed": false,
          "internalType": "uint256[]",
          "name": "merkleRootIds",
          "type": "uint256[]"
        },
        {
          "indexed": false,
          "internalType": "uint256[]",
          "name": "amounts",
          "type": "uint256[]"
        }
      ],
      "name": "ClaimRoyaltyFee",
      "type": "event"
    },
    {
      "anonymous": false,
      "inputs": [
        {
          "indexed": true,
          "internalType": "uint256",
          "name": "projectId",
          "type": "uint256"
        },
        {
          "indexed": false,
          "internalType": "uint256",
          "name": "merkleRootId",
          "type": "uint256"
        },
        {
          "indexed": false,
          "internalType": "uint256",
          "name": "distributeAmount",
          "type": "uint256"
        },
        {
          "indexed": false,
          "internalType": "uint256",
          "name": "distributeAt",
          "type": "uint256"
        },
        {
          "indexed": false,
          "internalType": "string",
          "name": "ipfsHash",
          "type": "string"
        }
      ],
      "name": "DistributeRoyaltyFee",
      "type": "event"
    },
    {
      "anonymous": false,
      "inputs": [
        {
          "indexed": true,
          "internalType": "uint256",
          "name": "projectId",
          "type": "uint256"
        },
        {
          "indexed": false,
          "internalType": "address",
          "name": "membershipPass",
          "type": "address"
        },
        {
          "indexed": false,
          "internalType": "address",
          "name": "royaltyDistributor",
          "type": "address"
        },
        {
          "indexed": false,
          "internalType": "uint256[]",
          "name": "tierFee",
          "type": "uint256[]"
        },
        {
          "indexed": false,
          "internalType": "uint256[]",
          "name": "tierCapacity",
          "type": "uint256[]"
        },
        {
          "indexed": false,
          "internalType": "uint256[]",
          "name": "multipers",
          "type": "uint256[]"
        }
      ],
      "name": "Issue",
      "type": "event"
    },
    {
      "inputs": [
        {
          "internalType": "uint256",
          "name": "_projectId",
          "type": "uint256"
        },
        {
          "internalType": "uint256",
          "name": "_fundingCycleId",
          "type": "uint256"
        },
        {
          "internalType": "address",
          "name": "_from",
          "type": "address"
        },
        {
          "internalType": "uint256[]",
          "name": "_tierIds",
          "type": "uint256[]"
        },
        {
          "internalType": "uint256[]",
          "name": "_amounts",
          "type": "uint256[]"
        }
      ],
      "name": "airdropBatchMintTicket",
      "outputs": [],
      "stateMutability": "nonpayable",
      "type": "function"
    },
    {
      "inputs": [
        {
          "internalType": "uint256",
          "name": "",
          "type": "uint256"
        },
        {
          "internalType": "uint256",
          "name": "",
          "type": "uint256"
        }
      ],
      "name": "airdropClaimedAmountOf",
      "outputs": [
        {
          "internalType": "uint256",
          "name": "",
          "type": "uint256"
        }
      ],
      "stateMutability": "view",
      "type": "function"
    },
    {
      "inputs": [
        {
          "internalType": "address",
          "name": "",
          "type": "address"
        },
        {
          "internalType": "uint256",
          "name": "",
          "type": "uint256"
        }
      ],
      "name": "airdropClaimedOf",
      "outputs": [
        {
          "internalType": "bool",
          "name": "",
          "type": "bool"
        }
      ],
      "stateMutability": "view",
      "type": "function"
    },
    {
      "inputs": [
        {
          "internalType": "uint256",
          "name": "_projectId",
          "type": "uint256"
        },
        {
          "internalType": "uint256",
          "name": "_fundingCycleId",
          "type": "uint256"
        },
        {
          "internalType": "address",
          "name": "_from",
          "type": "address"
        },
        {
          "internalType": "uint256[]",
          "name": "_amounts",
          "type": "uint256[]"
        }
      ],
      "name": "batchMintTicket",
      "outputs": [],
      "stateMutability": "nonpayable",
      "type": "function"
    },
    {
      "inputs": [
        {
          "internalType": "uint256",
          "name": "_projectId",
          "type": "uint256"
        },
        {
          "internalType": "uint256[]",
          "name": "_merkleRootIds",
          "type": "uint256[]"
        },
        {
          "internalType": "bytes32[][]",
          "name": "_merkleProofs",
          "type": "bytes32[][]"
        },
        {
          "internalType": "uint256[]",
          "name": "_amounts",
          "type": "uint256[]"
        }
      ],
      "name": "claimRoyaltyFee",
      "outputs": [],
      "stateMutability": "nonpayable",
      "type": "function"
    },
    {
      "inputs": [
        {
          "internalType": "address",
          "name": "",
          "type": "address"
        },
        {
          "internalType": "uint256",
          "name": "",
          "type": "uint256"
        }
      ],
      "name": "claimedOf",
      "outputs": [
        {
          "internalType": "bool",
          "name": "",
          "type": "bool"
        }
      ],
      "stateMutability": "view",
      "type": "function"
    },
    {
      "inputs": [],
      "name": "configStore",
      "outputs": [
        {
          "internalType": "contract IConfigStore",
          "name": "",
          "type": "address"
        }
      ],
      "stateMutability": "view",
      "type": "function"
    },
    {
      "inputs": [
        {
          "internalType": "address",
          "name": "",
          "type": "address"
        },
        {
          "internalType": "uint256",
          "name": "",
          "type": "uint256"
        },
        {
          "internalType": "uint256",
          "name": "",
          "type": "uint256"
        }
      ],
      "name": "depositedWeightBy",
      "outputs": [
        {
          "internalType": "uint256",
          "name": "amount",
          "type": "uint256"
        },
        {
          "internalType": "uint256",
          "name": "sqrtWeight",
          "type": "uint256"
        }
      ],
      "stateMutability": "view",
      "type": "function"
    },
    {
      "inputs": [
        {
          "internalType": "uint256",
          "name": "_projectId",
          "type": "uint256"
        },
        {
          "internalType": "uint256",
          "name": "_distributeAmount",
          "type": "uint256"
        },
        {
          "internalType": "bytes32",
          "name": "_merkleRoot",
          "type": "bytes32"
        },
        {
          "internalType": "string",
          "name": "_ipfsHash",
          "type": "string"
        },
        {
          "internalType": "bytes",
          "name": "_signature",
          "type": "bytes"
        }
      ],
      "name": "distributeRoyaltyFee",
      "outputs": [],
      "stateMutability": "nonpayable",
      "type": "function"
    },
    {
      "inputs": [],
      "name": "fundingCycles",
      "outputs": [
        {
          "internalType": "contract IFundingCycles",
          "name": "",
          "type": "address"
        }
      ],
      "stateMutability": "view",
      "type": "function"
    },
    {
      "inputs": [
        {
          "internalType": "uint256",
          "name": "_projectId",
          "type": "uint256"
        },
        {
          "internalType": "uint256",
          "name": "_fundingCycleId",
          "type": "uint256"
        },
        {
          "internalType": "uint256[]",
          "name": "_biddingAmounts",
          "type": "uint256[]"
        },
        {
          "internalType": "uint256[]",
          "name": "_weights",
          "type": "uint256[]"
        }
      ],
      "name": "getEstimatingUserAllocation",
      "outputs": [
        {
          "internalType": "uint256[]",
          "name": "_allocations",
          "type": "uint256[]"
        }
      ],
      "stateMutability": "view",
      "type": "function"
    },
    {
      "inputs": [
        {
          "internalType": "address",
          "name": "_user",
          "type": "address"
        },
        {
          "internalType": "uint256",
          "name": "_projectId",
          "type": "uint256"
        },
        {
          "internalType": "uint256",
          "name": "_fundingCycleId",
          "type": "uint256"
        }
      ],
      "name": "getUserAllocation",
      "outputs": [
        {
          "internalType": "uint256[]",
          "name": "_allocations",
          "type": "uint256[]"
        }
      ],
      "stateMutability": "view",
      "type": "function"
    },
    {
      "inputs": [
        {
          "internalType": "uint256",
          "name": "_projectId",
          "type": "uint256"
        },
        {
          "internalType": "uint256[]",
          "name": "_tierFees",
          "type": "uint256[]"
        },
        {
          "internalType": "uint256[]",
          "name": "_tierCapacities",
          "type": "uint256[]"
        },
        {
          "internalType": "uint256[]",
          "name": "_multipers",
          "type": "uint256[]"
        }
      ],
      "name": "issue",
      "outputs": [
        {
          "internalType": "address",
          "name": "_membershipPass",
          "type": "address"
        }
      ],
      "stateMutability": "nonpayable",
      "type": "function"
    },
    {
      "inputs": [
        {
          "internalType": "uint256",
          "name": "",
          "type": "uint256"
        }
      ],
      "name": "membershipPassOf",
      "outputs": [
        {
          "internalType": "contract IMembershipPass",
          "name": "",
          "type": "address"
        }
      ],
      "stateMutability": "view",
      "type": "function"
    },
    {
      "inputs": [
        {
          "internalType": "uint256",
          "name": "",
          "type": "uint256"
        }
      ],
      "name": "royaltyDistributorOf",
      "outputs": [
        {
          "internalType": "contract IRoyaltyDistributor",
          "name": "",
          "type": "address"
        }
      ],
      "stateMutability": "view",
      "type": "function"
    },
    {
      "inputs": [
        {
          "internalType": "uint256",
          "name": "_projectId",
          "type": "uint256"
        },
        {
          "internalType": "uint256",
          "name": "_fundingCycleId",
          "type": "uint256"
        },
        {
          "internalType": "address",
          "name": "_from",
          "type": "address"
        },
        {
          "components": [
            {
              "internalType": "uint256",
              "name": "tier",
              "type": "uint256"
            },
            {
              "internalType": "uint256",
              "name": "amount",
              "type": "uint256"
            },
            {
              "internalType": "uint256",
              "name": "weight",
              "type": "uint256"
            }
          ],
          "internalType": "struct PayInfoWithWeight[]",
          "name": "_payInfos",
          "type": "tuple[]"
        }
      ],
      "name": "stake",
      "outputs": [],
      "stateMutability": "nonpayable",
      "type": "function"
    },
    {
      "inputs": [],
      "name": "terminalDirectory",
      "outputs": [
        {
          "internalType": "contract ITerminalDirectory",
          "name": "",
          "type": "address"
        }
      ],
      "stateMutability": "view",
      "type": "function"
    },
    {
      "inputs": [
        {
          "internalType": "uint256",
          "name": "",
          "type": "uint256"
        }
      ],
      "name": "tierSizeOf",
      "outputs": [
        {
          "internalType": "uint256",
          "name": "",
          "type": "uint256"
        }
      ],
      "stateMutability": "view",
      "type": "function"
    },
    {
      "inputs": [
        {
          "internalType": "uint256",
          "name": "",
          "type": "uint256"
        },
        {
          "internalType": "uint256",
          "name": "",
          "type": "uint256"
        }
      ],
      "name": "totalBiddingAmountBy",
      "outputs": [
        {
          "internalType": "uint256",
          "name": "",
          "type": "uint256"
        }
      ],
      "stateMutability": "view",
      "type": "function"
    },
    {
      "inputs": [
        {
          "internalType": "uint256",
          "name": "",
          "type": "uint256"
        },
        {
          "internalType": "uint256",
          "name": "",
          "type": "uint256"
        }
      ],
      "name": "totalSqrtWeightBy",
      "outputs": [
        {
          "internalType": "uint256",
          "name": "",
          "type": "uint256"
        }
      ],
      "stateMutability": "view",
      "type": "function"
    }
  ],
  "transactionHash": "0xab62559ce9cf9a3dc93b09397373afae81a09bc95f0f5c14b07081022f42f8e4",
  "args": [
    "0x22f3c559e8b31817f25Df62786924b593cC5776E",
    "0x680231Dc3f66D2B357d0d34b33384cE22f80e417",
    "0x98D133D9f9Ea4D60Cb1f1AD782E7093B377dC368"
  ],
  "numDeployments": 1,
  "solcInputHash": "4e9316abea9744a68b7555d93f5656d5",
  "bytecode": "0x60a06040523480156200001157600080fd5b5060405162005dc338038062005dc383398101604081905262000034916200007f565b60609290921b6001600160601b0319166080526001600055600a80546001600160a01b03199081166001600160a01b0393841617909155600b805490911691909216179055620000eb565b60008060006060848603121562000094578283fd5b8351620000a181620000d2565b6020850151909350620000b481620000d2565b6040850151909250620000c781620000d2565b809150509250925092565b6001600160a01b0381168114620000e857600080fd5b50565b60805160601c615c9d620001266000396000818161031901528181610a1901528181610c7a01528181610ed5015261120a0152615c9d6000f3fe60806040523480156200001157600080fd5b5060043610620001455760003560e01c80636abcf8e311620000bb578063c12c3f07116200007a578063c12c3f071462000391578063e4ae0ca114620003c2578063ec198dce14620003f0578063ed01066f146200041e578063fe0d584d146200043557600080fd5b80636abcf8e314620003135780636f545d4c146200033b578063882af66714620003525780639d69dc4e1462000366578063b220b866146200037a57600080fd5b80634cc1ed8411620001085780634cc1ed84146200025b57806350da457c1462000274578063552137f914620002b9578063557c878814620002e55780636255358014620002fc57600080fd5b80631c23431c146200014a5780631c645c9f146200018b578063256e8b2714620001cd5780632ac1ca4914620001f3578063442012c3146200020a575b600080fd5b620001786200015b3660046200210a565b600960209081526000928352604080842090915290825290205481565b6040519081526020015b60405180910390f35b620001bc6200019c36600462001d90565b600860209081526000928352604080842090915290825290205460ff1681565b604051901515815260200162000182565b620001e4620001de36600462001dbe565b62000458565b60405162000182919062002698565b620001e46200020436600462002310565b62000711565b620002456200021b36600462001dbe565b60066020908152600093845260408085208252928452828420905282529020805460019091015482565b6040805192835260208301919091520162000182565b620002726200026c3660046200212c565b620009f7565b005b620002a06200028536600462001e7b565b6003602052600090815260409020546001600160a01b031681565b6040516001600160a01b03909116815260200162000182565b620002a0620002ca36600462001e7b565b6002602052600090815260409020546001600160a01b031681565b62000272620002f636600462002281565b62000c58565b620002726200030d3660046200221b565b62000eb3565b620002a07f000000000000000000000000000000000000000000000000000000000000000081565b620002726200034c36600462001ead565b620010f7565b600b54620002a0906001600160a01b031681565b600a54620002a0906001600160a01b031681565b620002a06200038b36600462002061565b620011e5565b620001bc620003a236600462001d90565b600760209081526000928352604080842090915290825290205460ff1681565b62000178620003d33660046200210a565b600460209081526000928352604080842090915290825290205481565b62000178620004013660046200210a565b600560209081526000928352604080842090915290825290205481565b620002726200042f3660046200237e565b620013e8565b620001786200044636600462001e7b565b60016020526000908152604090205481565b6000828152600160205260409020546060906001600160401b038111156200049057634e487b7160e01b600052604160045260246000fd5b604051908082528060200260200182016040528015620004ba578160200160208202803683370190505b50905060005b6000848152600160205260409020548110156200070957600b54604051633799b69160e11b815260048101859052602481018390526000916001600160a01b031690636f336d229060440160c06040518083038186803b1580156200052457600080fd5b505afa15801562000539573d6000803e3d6000fd5b505050506040513d601f19601f820116820180604052508101906200055f919062001df5565b60400151905080620005a15760008383815181106200058e57634e487b7160e01b600052603260045260246000fd5b60200260200101818152505050620004c0565b60008481526004602090815260408083208584529091529020548110156200068657600084815260056020908152604080832085845290915290205415620006505760008481526005602090815260408083208584528252808320546001600160a01b038a168452600683528184208885528352818420868552909252909120600101546200064a91620f424091620006439190829064e8d4a5100062001640565b9062001655565b62000653565b60005b8383815181106200067457634e487b7160e01b600052603260045260246000fd5b602002602001018181525050620006ff565b6001600160a01b03861660009081526006602090815260408083208784528252808320858452909152902054620006d190620f42409062000643908490829064e8d4a5100062001640565b838381518110620006f257634e487b7160e01b600052603260045260246000fd5b6020026020010181815250505b50600101620004c0565b509392505050565b6000848152600160205260409020546060906001600160401b038111156200074957634e487b7160e01b600052604160045260246000fd5b60405190808252806020026020018201604052801562000773578160200160208202803683370190505b50905060005b600086815260016020526040902054811015620009ee57600b54604051633799b69160e11b815260048101879052602481018390526000916001600160a01b031690636f336d229060440160c06040518083038186803b158015620007dd57600080fd5b505afa158015620007f2573d6000803e3d6000fd5b505050506040513d601f19601f8201168201806040525081019062000818919062001df5565b604001519050806200085a5760008383815181106200084757634e487b7160e01b600052603260045260246000fd5b6020026020010181815250505062000779565b808583815181106200087c57634e487b7160e01b600052603260045260246000fd5b60209081029190910181015160008981526004835260408082208783529093529190912054620008ad919062002805565b111562000967576000620008e9858481518110620008db57634e487b7160e01b600052603260045260246000fd5b602002602001015162001663565b60008881526005602090815260408083208784529091529020549091506200093390620f42409062000643906200092290859062002805565b620006438564e8d4a5100062001640565b8484815181106200095457634e487b7160e01b600052603260045260246000fd5b60200260200101818152505050620009e4565b620009b6620f424062000643836200064364e8d4a510008a88815181106200099f57634e487b7160e01b600052603260045260246000fd5b60200260200101516200164090919063ffffffff16565b838381518110620009d757634e487b7160e01b600052603260045260246000fd5b6020026020010181815250505b5060010162000779565b50949350505050565b604051634fe0eced60e01b815260048101859052849033906001600160a01b037f00000000000000000000000000000000000000000000000000000000000000001690634fe0eced9060240160206040518083038186803b15801562000a5c57600080fd5b505afa15801562000a71573d6000803e3d6000fd5b505050506040513d601f19601f8201168201806040525081019062000a97919062001d71565b6001600160a01b03161462000abf5760405163be24598360e01b815260040160405180910390fd5b60005b825181101562000c5057600083828151811062000aef57634e487b7160e01b600052603260045260246000fd5b60200260200101519050600062000b18826040015183602001516200164090919063ffffffff16565b9050600062000b278262001663565b60008981526005602090815260408083208751845290915281208054929350839290919062000b5890849062002805565b909155505060208084015160008a81526004835260408082208751835290935291822080549192909162000b8e90849062002805565b90915550506001600160a01b03871660009081526006602090815260408083208b84528252808320865184528252918290208251808401845281548152600190910154818301528251808401909352908501518151919291829162000bf39162002805565b815260200183836020015162000c0a919062002805565b90526001600160a01b03891660009081526006602090815260408083208d8452825280832097518352968152959020815181559401516001948501555050500162000ac2565b505050505050565b604051634fe0eced60e01b815260048101869052859033906001600160a01b037f00000000000000000000000000000000000000000000000000000000000000001690634fe0eced9060240160206040518083038186803b15801562000cbd57600080fd5b505afa15801562000cd2573d6000803e3d6000fd5b505050506040513d601f19601f8201168201806040525081019062000cf8919062001d71565b6001600160a01b03161462000d205760405163be24598360e01b815260040160405180910390fd5b6001600160a01b03841660009081526008602090815260408083208884529091528120805460ff191660011790555b835181101562000ded5782818151811062000d7a57634e487b7160e01b600052603260045260246000fd5b602002602001015160096000888152602001908152602001600020600086848151811062000db857634e487b7160e01b600052603260045260246000fd5b60200260200101518152602001908152602001600020600082825462000ddf919062002805565b909155505060010162000d4f565b506000868152600260205260409081902054905163f209fc4f60e01b81526001600160a01b039091169063f209fc4f9062000e319087908790879060040162002654565b600060405180830381600087803b15801562000e4c57600080fd5b505af115801562000e61573d6000803e3d6000fd5b5050505085846001600160a01b03167f384b9376bdd9403b83064a2db83745f5bdf3632f1f0f2b7cb62d339b473e1769858560405162000ea3929190620026ad565b60405180910390a3505050505050565b604051634fe0eced60e01b815260048101859052849033906001600160a01b037f00000000000000000000000000000000000000000000000000000000000000001690634fe0eced9060240160206040518083038186803b15801562000f1857600080fd5b505afa15801562000f2d573d6000803e3d6000fd5b505050506040513d601f19601f8201168201806040525081019062000f53919062001d71565b6001600160a01b03161462000f7b5760405163be24598360e01b815260040160405180910390fd5b6001600160a01b03831660009081526007602090815260408083208784529091528120805460ff1916600117905582516001600160401b0381111562000fd157634e487b7160e01b600052604160045260246000fd5b60405190808252806020026020018201604052801562000ffb578160200160208202803683370190505b50905060005b83518110156200104157808282815181106200102d57634e487b7160e01b600052603260045260246000fd5b602090810291909101015260010162001001565b506000868152600260205260409081902054905163f209fc4f60e01b81526001600160a01b039091169063f209fc4f90620010859087908590889060040162002654565b600060405180830381600087803b158015620010a057600080fd5b505af1158015620010b5573d6000803e3d6000fd5b5050505085846001600160a01b03167f39cf8fafe51ae6c8b721aad7ac4b0578cda1419df3879ce43168aa06b169c3b1838660405162000ea3929190620026ad565b6000868152600360205260409020546001600160a01b0316806200112e5760405163253fa91f60e21b815260040160405180910390fd5b60405163056ef30f60e51b81526001600160a01b0382169063adde61e090620011669033908a908a908a908a908a9060040162002546565b600060405180830381600087803b1580156200118157600080fd5b505af115801562001196573d6000803e3d6000fd5b50505050867f1ebb5e8051dc7c8737216216bc06d3fd1bd5f229a02f8def749c8be8e79542763388888787604051620011d49594939291906200260c565b60405180910390a250505050505050565b604051634fe0eced60e01b815260048101889052600090889033906001600160a01b037f00000000000000000000000000000000000000000000000000000000000000001690634fe0eced9060240160206040518083038186803b1580156200124d57600080fd5b505afa15801562001262573d6000803e3d6000fd5b505050506040513d601f19601f8201168201806040525081019062001288919062001d71565b6001600160a01b031614620012b05760405163be24598360e01b815260040160405180910390fd5b6000604051620012c09062001c3c565b604051809103906000f080158015620012dd573d6000803e3d6000fd5b50905060008a828b8b8b8b600a60009054906101000a90046001600160a01b03166040516200130c9062001c4a565b6200131e9796959493929190620026df565b604051809103906000f0801580156200133b573d6000803e3d6000fd5b5060008c815260036020908152604080832080546001600160a01b038089166001600160a01b03199283161790925560028452828520805492871692909116919091179055600190915290819020899055519094508491508b907f9dca0a2d546b6f14b24b627903ea75ab4e5f48027e0a99683e205c97e7fd808790620013d290849086908f908f908f908f908f908f90620024dc565b60405180910390a2505050979650505050505050565b60026000541415620014415760405162461bcd60e51b815260206004820152601f60248201527f5265656e7472616e637947756172643a207265656e7472616e742063616c6c0060448201526064015b60405180910390fd5b60026000908155858152600360205260409020546001600160a01b0316806200147d5760405163253fa91f60e21b815260040160405180910390fd5b60008684878760405160200162001498949392919062002491565b60408051601f198184030181528282528051602091820120600a5463238ac93360e01b855292519094506001600160a01b039092169263238ac9339260048083019392829003018186803b158015620014f057600080fd5b505afa15801562001505573d6000803e3d6000fd5b505050506040513d601f19601f820116820180604052508101906200152b919062001d71565b6001600160a01b031662001540828562001860565b6001600160a01b031614620015685760405163be24598360e01b815260040160405180910390fd5b60405162804ac160e71b815260048101879052602481018690526000906001600160a01b03841690634025608090604401602060405180830381600087803b158015620015b457600080fd5b505af1158015620015c9573d6000803e3d6000fd5b505050506040513d601f19601f82011682018060405250810190620015ef919062001e94565b9050877f50992d2bd1ddc5c143a4d6372312c915304b03d29d30d0737035dbf775a9eb598289428960405162001629949392919062002737565b60405180910390a250506001600055505050505050565b60006200164e828462002841565b9392505050565b60006200164e828462002820565b6000816200167357506000919050565b50600181600160801b81106200168e5760409190911b9060801c5b680100000000000000008110620016aa5760209190911b9060401c5b6401000000008110620016c25760109190911b9060201c5b620100008110620016d85760089190911b9060101c5b6101008110620016ed5760049190911b9060081c5b60108110620017015760029190911b9060041c5b600881106200171257600182901b91505b60018284816200173257634e487b7160e01b600052601260045260246000fd5b048301901c915060018284816200175957634e487b7160e01b600052601260045260246000fd5b048301901c915060018284816200178057634e487b7160e01b600052601260045260246000fd5b048301901c91506001828481620017a757634e487b7160e01b600052601260045260246000fd5b048301901c91506001828481620017ce57634e487b7160e01b600052601260045260246000fd5b048301901c91506001828481620017f557634e487b7160e01b600052601260045260246000fd5b048301901c915060018284816200181c57634e487b7160e01b600052601260045260246000fd5b048301901c915060008284816200184357634e487b7160e01b600052601260045260246000fd5b0490508083101562001856578262001858565b805b949350505050565b600080600062001871858562001880565b915091506200070981620018f8565b600080825160411415620018bb5760208301516040840151606085015160001a620018ae8782858562001b0a565b94509450505050620018f1565b825160401415620018e95760208301516040840151620018dd86838362001bff565b935093505050620018f1565b506000905060025b9250929050565b60008160048111156200191b57634e487b7160e01b600052602160045260246000fd5b1415620019255750565b60018160048111156200194857634e487b7160e01b600052602160045260246000fd5b1415620019985760405162461bcd60e51b815260206004820152601860248201527f45434453413a20696e76616c6964207369676e61747572650000000000000000604482015260640162001438565b6002816004811115620019bb57634e487b7160e01b600052602160045260246000fd5b141562001a0b5760405162461bcd60e51b815260206004820152601f60248201527f45434453413a20696e76616c6964207369676e6174757265206c656e67746800604482015260640162001438565b600381600481111562001a2e57634e487b7160e01b600052602160045260246000fd5b141562001a895760405162461bcd60e51b815260206004820152602260248201527f45434453413a20696e76616c6964207369676e6174757265202773272076616c604482015261756560f01b606482015260840162001438565b600481600481111562001aac57634e487b7160e01b600052602160045260246000fd5b141562001b075760405162461bcd60e51b815260206004820152602260248201527f45434453413a20696e76616c6964207369676e6174757265202776272076616c604482015261756560f01b606482015260840162001438565b50565b6000807f7fffffffffffffffffffffffffffffff5d576e7357a4501ddfe92f46681b20a083111562001b43575060009050600362001bf6565b8460ff16601b1415801562001b5c57508460ff16601c14155b1562001b6f575060009050600462001bf6565b6040805160008082526020820180845289905260ff881692820192909252606081018690526080810185905260019060a0016020604051602081039080840390855afa15801562001bc4573d6000803e3d6000fd5b5050604051601f1901519150506001600160a01b03811662001bef5760006001925092505062001bf6565b9150600090505b94509492505050565b6000806001600160ff1b0383168162001c1e60ff86901c601b62002805565b905062001c2e8782888562001b0a565b935093505050935093915050565b610c6c80620028d983390190565b612723806200354583390190565b60006001600160401b0383111562001c745762001c74620028ac565b62001c89601f8401601f1916602001620027ac565b905082815283838301111562001c9e57600080fd5b828260208301376000602084830101529392505050565b60008083601f84011262001cc7578182fd5b5081356001600160401b0381111562001cde578182fd5b6020830191508360208260051b8501011115620018f157600080fd5b600082601f83011262001d0b578081fd5b8135602062001d2462001d1e83620027df565b620027ac565b80838252828201915082860187848660051b890101111562001d44578586fd5b855b8581101562001d645781358452928401929084019060010162001d46565b5090979650505050505050565b60006020828403121562001d83578081fd5b81516200164e81620028c2565b6000806040838503121562001da3578081fd5b823562001db081620028c2565b946020939093013593505050565b60008060006060848603121562001dd3578081fd5b833562001de081620028c2565b95602085013595506040909401359392505050565b600060c0828403121562001e07578081fd5b60405160c081018181106001600160401b038211171562001e2c5762001e2c620028ac565b806040525082518152602083015160208201526040830151604082015260608301516060820152608083015162001e6381620028c2565b608082015260a0928301519281019290925250919050565b60006020828403121562001e8d578081fd5b5035919050565b60006020828403121562001ea6578081fd5b5051919050565b6000806000806000806080878903121562001ec6578384fd5b863595506001600160401b036020880135111562001ee2578384fd5b62001ef4886020890135890162001cb5565b90955093506001600160401b036040880135111562001f11578182fd5b6040870135870188601f82011262001f27578283fd5b62001f3762001d1e8235620027df565b8082358252602082019150602083018b6020853560051b860101111562001f5c578586fd5b855b84358110156200201e576001600160401b038235111562001f7d578687fd5b8c603f83358701011262001f8f578687fd5b62001fa562001d1e6020843588010135620027df565b8060208435880101358252602082019150604084358801018f6040602087358b01013560051b87358b010101111562001fdc57898afd5b895b602086358a0101358110156200200557813584526020938401939091019060010162001fde565b5050855250602093840193919091019060010162001f5e565b50508095505050506001600160401b03606088013511156200203e578182fd5b62002050886060890135890162001cb5565b969995985093965091949293915050565b60008060008060008060006080888a0312156200207c578485fd5b8735965060208801356001600160401b03808211156200209a578687fd5b620020a88b838c0162001cb5565b909850965060408a0135915080821115620020c1578283fd5b620020cf8b838c0162001cb5565b909650945060608a0135915080821115620020e8578283fd5b50620020f78a828b0162001cb5565b989b979a50959850939692959293505050565b600080604083850312156200211d578182fd5b50508035926020909101359150565b6000806000806080858703121562002142578182fd5b8435935060208086013593506040808701356200215f81620028c2565b93506060878101356001600160401b038111156200217b578485fd5b8801601f81018a136200218c578485fd5b80356200219d62001d1e82620027df565b81815285810190838701858402850188018e1015620021ba578889fd5b8894505b83851015620022095785818f031215620021d6578889fd5b620021e062002781565b8135815288820135898201528782013588820152835260019490940193918701918501620021be565b50999c989b5096995050505050505050565b6000806000806080858703121562002231578182fd5b843593506020850135925060408501356200224c81620028c2565b915060608501356001600160401b0381111562002267578182fd5b620022758782880162001cfa565b91505092959194509250565b600080600080600060a0868803121562002299578283fd5b85359450602086013593506040860135620022b481620028c2565b925060608601356001600160401b0380821115620022d0578283fd5b620022de89838a0162001cfa565b93506080880135915080821115620022f4578283fd5b50620023038882890162001cfa565b9150509295509295909350565b6000806000806080858703121562002326578182fd5b843593506020850135925060408501356001600160401b03808211156200234b578384fd5b620023598883890162001cfa565b935060608701359150808211156200236f578283fd5b50620022758782880162001cfa565b600080600080600060a0868803121562002396578283fd5b85359450602086013593506040860135925060608601356001600160401b0380821115620023c2578283fd5b818801915088601f830112620023d6578283fd5b620023e78983356020850162001c58565b93506080880135915080821115620023fd578283fd5b508601601f810188136200240f578182fd5b620023038882356020840162001c58565b81835260006001600160fb1b0383111562002439578081fd5b8260051b80836020870137939093016020019283525090919050565b6000815180845260208085019450808401835b83811015620024865781518752958201959082019060010162002468565b509495945050505050565b8481526000602d60f81b8060208401528551620024b6816021860160208a0162002863565b909201602181018390526022810194909452506042830152604382015260630192915050565b6001600160a01b0389811682528816602082015260a0604082018190526000906200250b908301888a62002420565b82810360608401526200252081878962002420565b905082810360808401526200253781858762002420565b9b9a5050505050505050505050565b6001600160a01b0387168152608060208083018290526000916200256e908401888a62002420565b8381036040850152865180825282820190600581901b83018401848a01865b83811015620025e457858303601f190185528151805180855290880190888501908a5b81811015620025ce5783518352928a0192918a0191600101620025b0565b505095880195935050908601906001016200258d565b50508681036060880152620025fb81898b62002420565b9d9c50505050505050505050505050565b6001600160a01b038616815260606020820181905260009062002633908301868862002420565b82810360408401526200264881858762002420565b98975050505050505050565b6001600160a01b03841681526060602082018190526000906200267a9083018562002455565b82810360408401526200268e818562002455565b9695505050505050565b6020815260006200164e602083018462002455565b604081526000620026c2604083018562002455565b8281036020840152620026d6818562002455565b95945050505050565b878152600060018060a01b03808916602084015260a060408401526200270a60a08401888a62002420565b83810360608501526200271f81878962002420565b92505080841660808401525098975050505050505050565b84815283602082015282604082015260806060820152600082518060808401526200276a8160a085016020870162002863565b601f01601f19169190910160a00195945050505050565b604051606081016001600160401b0381118282101715620027a657620027a6620028ac565b60405290565b604051601f8201601f191681016001600160401b0381118282101715620027d757620027d7620028ac565b604052919050565b60006001600160401b03821115620027fb57620027fb620028ac565b5060051b60200190565b600082198211156200281b576200281b62002896565b500190565b6000826200283c57634e487b7160e01b81526012600452602481fd5b500490565b60008160001904831182151516156200285e576200285e62002896565b500290565b60005b838110156200288057818101518382015260200162002866565b8381111562002890576000848401525b50505050565b634e487b7160e01b600052601160045260246000fd5b634e487b7160e01b600052604160045260246000fd5b6001600160a01b038116811462001b0757600080fdfe608060405234801561001057600080fd5b5061001a33610023565b60018055610073565b600080546001600160a01b038381166001600160a01b0319831681178455604051919092169283917f8be0079c531659141344cd1fd0a4f28419497f9722a3daafe3b4186f6b6457e09190a35050565b610bea806100826000396000f3fe608060405234801561001057600080fd5b506004361061009e5760003560e01c8063715018a611610066578063715018a61461012d5780638da5cb5b14610137578063adde61e014610152578063c12c3f0714610165578063f2fde38b1461019357600080fd5b80633abb2f84146100a357806340256080146100d657806357b4d18e146100e9578063666eb3fc146100f15780636e2c7d33146100fa575b600080fd5b6100c36100b1366004610a7b565b60046020526000908152604090205481565b6040519081526020015b60405180910390f35b6100c36100e4366004610a93565b6101a6565b6100c3610289565b6100c360035481565b61011d610108366004610a7b565b60056020526000908152604090205460ff1681565b60405190151581526020016100cd565b61013561029e565b005b6000546040516001600160a01b0390911681526020016100cd565b6101356101603660046108a5565b6102d4565b61011d610173366004610a52565b600660209081526000928352604080842090915290825290205460ff1681565b6101356101a1366004610884565b61057d565b600080546001600160a01b031633146101da5760405162461bcd60e51b81526004016101d190610ab4565b60405180910390fd5b60008281526005602052604090205460ff161561020a57604051632869905760e11b815260040160405180910390fd5b610212610289565b8311156102325760405163128f103960e31b815260040160405180910390fd5b60038054600190810182556000848152600560209081526040808320805460ff191690941790935592548152600490925281208390556002805485929061027a908490610b3e565b90915550506003549392505050565b6000600254476102999190610b56565b905090565b6000546001600160a01b031633146102c85760405162461bcd60e51b81526004016101d190610ab4565b6102d26000610618565b565b6000546001600160a01b031633146102fe5760405162461bcd60e51b81526004016101d190610ab4565b600260015414156103515760405162461bcd60e51b815260206004820152601f60248201527f5265656e7472616e637947756172643a207265656e7472616e742063616c6c0060448201526064016101d1565b60026001558251600090851415806103695750848214155b1561038757604051630b661e2560e41b815260040160405180910390fd5b60005b858110156105655760008787838181106103b457634e487b7160e01b600052603260045260246000fd5b9050602002013590506000818a8787868181106103e157634e487b7160e01b600052603260045260246000fd5b9050602002013560405160200161043193929190928352602d60f81b6020840181905260609290921b6bffffffffffffffffffffffff191660218401526035830191909152603682015260560190565b60405160208183030381529060405280519060200120905060006004600084815260200190815260200160002054905061049388858151811061048457634e487b7160e01b600052603260045260246000fd5b60200260200101518284610668565b6104b05760405163be24598360e01b815260040160405180910390fd5b6001600160a01b038b16600090815260066020908152604080832086845290915290205460ff16156104f557604051630c8d9eab60e31b815260040160405180910390fd5b86868581811061051557634e487b7160e01b600052603260045260246000fd5b90506020020135856105279190610b3e565b6001600160a01b038c16600090815260066020908152604080832096835295905293909320805460ff1916600190811790915592945050500161038a565b50610570878261067e565b5050600180555050505050565b6000546001600160a01b031633146105a75760405162461bcd60e51b81526004016101d190610ab4565b6001600160a01b03811661060c5760405162461bcd60e51b815260206004820152602660248201527f4f776e61626c653a206e6577206f776e657220697320746865207a65726f206160448201526564647265737360d01b60648201526084016101d1565b61061581610618565b50565b600080546001600160a01b038381166001600160a01b0319831681178455604051919092169283917f8be0079c531659141344cd1fd0a4f28419497f9722a3daafe3b4186f6b6457e09190a35050565b600082610675858461079c565b14949350505050565b804710156106ce5760405162461bcd60e51b815260206004820152601d60248201527f416464726573733a20696e73756666696369656e742062616c616e636500000060448201526064016101d1565b6000826001600160a01b03168260405160006040518083038185875af1925050503d806000811461071b576040519150601f19603f3d011682016040523d82523d6000602084013e610720565b606091505b50509050806107975760405162461bcd60e51b815260206004820152603a60248201527f416464726573733a20756e61626c6520746f2073656e642076616c75652c207260448201527f6563697069656e74206d6179206861766520726576657274656400000000000060648201526084016101d1565b505050565b600081815b84518110156108165760008582815181106107cc57634e487b7160e01b600052603260045260246000fd5b602002602001015190508083116107f25760008381526020829052604090209250610803565b600081815260208490526040902092505b508061080e81610b6d565b9150506107a1565b509392505050565b80356001600160a01b038116811461083557600080fd5b919050565b60008083601f84011261084b578182fd5b50813567ffffffffffffffff811115610862578182fd5b6020830191508360208260051b850101111561087d57600080fd5b9250929050565b600060208284031215610895578081fd5b61089e8261081e565b9392505050565b600080600080600080608087890312156108bd578182fd5b6108c68761081e565b955067ffffffffffffffff602088013511156108e0578182fd5b6108f0886020890135890161083a565b909550935067ffffffffffffffff6040880135111561090d578182fd5b6040870135870188601f820112610922578283fd5b61093461092f8235610b1a565b610ae9565b8082358252602082019150602083018b6020853560051b8601011115610958578586fd5b855b8435811015610a115767ffffffffffffffff82351115610978578687fd5b8c603f833587010112610989578687fd5b61099c61092f6020843588010135610b1a565b8060208435880101358252602082019150604084358801018f6040602087358b01013560051b87358b01010111156109d257898afd5b895b602086358a0101358110156109f95781358452602093840193909101906001016109d4565b5050855250602093840193919091019060010161095a565b505080955050505067ffffffffffffffff60608801351115610a31578182fd5b610a41886060890135890161083a565b969995985093965091949293915050565b60008060408385031215610a64578182fd5b610a6d8361081e565b946020939093013593505050565b600060208284031215610a8c578081fd5b5035919050565b60008060408385031215610aa5578182fd5b50508035926020909101359150565b6020808252818101527f4f776e61626c653a2063616c6c6572206973206e6f7420746865206f776e6572604082015260600190565b604051601f8201601f1916810167ffffffffffffffff81118282101715610b1257610b12610b9e565b604052919050565b600067ffffffffffffffff821115610b3457610b34610b9e565b5060051b60200190565b60008219821115610b5157610b51610b88565b500190565b600082821015610b6857610b68610b88565b500390565b6000600019821415610b8157610b81610b88565b5060010190565b634e487b7160e01b600052601160045260246000fd5b634e487b7160e01b600052604160045260246000fdfea2646970667358221220a5c6a148e756feb83bb452a78d91732a558202605de142e949663d3b343426f964736f6c6343000804003360a06040523480156200001157600080fd5b5060405162002723380380620027238339810160408190526200003491620003c5565b6040805160208101909152600081526200004e816200020d565b506200005a3362000226565b82516200007a576040516304f60b8560e11b815260040160405180910390fd5b6001600160a01b038116620000a257604051634658f70b60e01b815260040160405180910390fd5b6000805b8451811015620001d157838181518110620000d157634e487b7160e01b600052603260045260246000fd5b602002602001015160001415620000fb576040516374770ded60e01b815260040160405180910390fd5b6103e88582815181106200011f57634e487b7160e01b600052603260045260246000fd5b60200260200101511115620001475760405163917f1a5360e01b815260040160405180910390fd5b8481815181106200016857634e487b7160e01b600052603260045260246000fd5b60200260200101516006600084815260200190815260200160002081905550838181518110620001a857634e487b7160e01b600052603260045260246000fd5b6020908102919091018101516000848152600490925260409091205560019182019101620000a6565b50506080949094525050600880546001600160a01b039384166001600160a01b03199182161790915560078054929093169116179055620004ce565b80516200022290600290602084019062000278565b5050565b600380546001600160a01b038381166001600160a01b0319831681179093556040519116919082907f8be0079c531659141344cd1fd0a4f28419497f9722a3daafe3b4186f6b6457e090600090a35050565b828054620002869062000462565b90600052602060002090601f016020900481019282620002aa5760008555620002f5565b82601f10620002c557805160ff1916838001178555620002f5565b82800160010185558215620002f5579182015b82811115620002f5578251825591602001919060010190620002d8565b506200030392915062000307565b5090565b5b8082111562000303576000815560010162000308565b600082601f8301126200032f578081fd5b815160206001600160401b03808311156200034e576200034e6200049f565b8260051b604051601f19603f830116810181811084821117156200037657620003766200049f565b6040528481528381019250868401828801850189101562000395578687fd5b8692505b85831015620003b957805184529284019260019290920191840162000399565b50979650505050505050565b600080600080600060a08688031215620003dd578081fd5b855194506020860151620003f181620004b5565b60408701519094506001600160401b03808211156200040e578283fd5b6200041c89838a016200031e565b9450606088015191508082111562000432578283fd5b5062000441888289016200031e565b92505060808601516200045481620004b5565b809150509295509295909350565b600181811c908216806200047757607f821691505b602082108114156200049957634e487b7160e01b600052602260045260246000fd5b50919050565b634e487b7160e01b600052604160045260246000fd5b6001600160a01b0381168114620004cb57600080fd5b50565b608051612232620004f16000396000818161052f0152610a1c01526122326000f3fe608060405234801561001057600080fd5b50600436106101415760003560e01c80639d69dc4e116100b8578063e8a3d4851161007c578063e8a3d48514610302578063e985e9c51461030a578063f209fc4f14610346578063f242432a14610359578063f2fde38b1461036c578063f6252ff21461037f57600080fd5b80639d69dc4e14610296578063a22cb465146102a9578063c415b95c146102bc578063d2c35ce8146102cf578063dce92048146102e257600080fd5b80632eb2c2d61161010a5780632eb2c2d6146102015780634e1273f4146102165780635613e09f1461023657806369edeb9d14610256578063715018a6146102695780638da5cb5b1461027157600080fd5b8062fdd58e1461014657806301ffc9a71461016c5780630e89341c1461018f578063225f2acb146101af5780632a55205a146101cf575b600080fd5b610159610154366004611a42565b610392565b6040519081526020015b60405180910390f35b61017f61017a366004611b68565b610429565b6040519015158152602001610163565b6101a261019d366004611c1e565b61047b565b6040516101639190611e20565b6101596101bd366004611c1e565b60046020526000908152604090205481565b6101e26101dd366004611c36565b610585565b604080516001600160a01b039093168352602083019190915201610163565b61021461020f36600461188e565b6105cb565b005b610229610224366004611a9d565b610662565b6040516101639190611ddf565b610159610244366004611c1e565b60066020526000908152604090205481565b610214610264366004611a6b565b6107c4565b6102146108d7565b6003546001600160a01b03165b6040516001600160a01b039091168152602001610163565b60085461027e906001600160a01b031681565b6102146102b7366004611a08565b61090d565b60075461027e906001600160a01b031681565b6102146102dd366004611842565b61091c565b6101596102f0366004611c1e565b60056020526000908152604090205481565b6101a2610968565b61017f61031836600461185c565b6001600160a01b03918216600090815260016020908152604080832093909416825291909152205460ff1690565b610214610354366004611997565b610a67565b610214610367366004611934565b610c0a565b61021461037a366004611842565b610c91565b61015961038d366004611c1e565b610d2c565b60006001600160a01b0383166104035760405162461bcd60e51b815260206004820152602b60248201527f455243313135353a2062616c616e636520717565727920666f7220746865207a60448201526a65726f206164647265737360a81b60648201526084015b60405180910390fd5b506000908152602081815260408083206001600160a01b03949094168352929052205490565b60006001600160e01b03198216636cdb3d1360e11b148061045a57506001600160e01b031982166303a24d0760e21b145b8061047557506301ffc9a760e01b6001600160e01b03198316145b92915050565b60606000600860009054906101000a90046001600160a01b03166001600160a01b0316636c0360eb6040518163ffffffff1660e01b815260040160006040518083038186803b1580156104cd57600080fd5b505afa1580156104e1573d6000803e3d6000fd5b505050506040513d6000823e601f3d908101601f191682016040526105099190810190611ba0565b90506000815111610529576040518060200160405280600081525061057e565b806105537f0000000000000000000000000000000000000000000000000000000000000000610d50565b61055c85610d50565b60405160200161056e93929190611cec565b6040516020818303038152906040525b9392505050565b600754600083815260066020526040812054909182916001600160a01b03909116906105c090612710906105ba908790610e72565b90610e7e565b915091509250929050565b6001600160a01b0385163314806105e757506105e78533610318565b61064e5760405162461bcd60e51b815260206004820152603260248201527f455243313135353a207472616e736665722063616c6c6572206973206e6f74206044820152711bdddb995c881b9bdc88185c1c1c9bdd995960721b60648201526084016103fa565b61065b8585858585610e8a565b5050505050565b606081518351146106c75760405162461bcd60e51b815260206004820152602960248201527f455243313135353a206163636f756e747320616e6420696473206c656e677468604482015268040dad2e6dac2e8c6d60bb1b60648201526084016103fa565b6000835167ffffffffffffffff8111156106f157634e487b7160e01b600052604160045260246000fd5b60405190808252806020026020018201604052801561071a578160200160208202803683370190505b50905060005b84518110156107bc5761078185828151811061074c57634e487b7160e01b600052603260045260246000fd5b602002602001015185838151811061077457634e487b7160e01b600052603260045260246000fd5b6020026020010151610392565b8282815181106107a157634e487b7160e01b600052603260045260246000fd5b60209081029190910101526107b5816120d3565b9050610720565b509392505050565b6003546001600160a01b031633146107ee5760405162461bcd60e51b81526004016103fa90611f0a565b60008281526004602052604090205461081a57604051634658f70b60e01b815260040160405180910390fd5b61082382610d2c565b81111561084357604051631e9acf1760e31b815260040160405180910390fd5b60008281526005602052604090205461085c9082611042565b600560008481526020019081526020016000208190555061088e8383836040518060200160405280600081525061104e565b81836001600160a01b03167f86751008fdfd4a30780bd7858fe667ed1616dce8503b9fa5b7b2402f234f2e4e836040516108ca91815260200190565b60405180910390a3505050565b6003546001600160a01b031633146109015760405162461bcd60e51b81526004016103fa90611f0a565b61090b600061111e565b565b610918338383611170565b5050565b6003546001600160a01b031633146109465760405162461bcd60e51b81526004016103fa90611f0a565b600780546001600160a01b0319166001600160a01b0392909216919091179055565b60606000600860009054906101000a90046001600160a01b03166001600160a01b03166380f2152e6040518163ffffffff1660e01b815260040160006040518083038186803b1580156109ba57600080fd5b505afa1580156109ce573d6000803e3d6000fd5b505050506040513d6000823e601f3d908101601f191682016040526109f69190810190611ba0565b90506000815111610a165760405180602001604052806000815250610a61565b80610a407f0000000000000000000000000000000000000000000000000000000000000000610d50565b604051602001610a51929190611cbd565b6040516020818303038152906040525b91505090565b6003546001600160a01b03163314610a915760405162461bcd60e51b81526004016103fa90611f0a565b60005b8251811015610ba6576000838281518110610abf57634e487b7160e01b600052603260045260246000fd5b60200260200101519050600460008281526020019081526020016000205460001415610afe57604051634658f70b60e01b815260040160405180910390fd5b610b0781610d2c565b838381518110610b2757634e487b7160e01b600052603260045260246000fd5b60200260200101511115610b4e57604051631e9acf1760e31b815260040160405180910390fd5b828281518110610b6e57634e487b7160e01b600052603260045260246000fd5b6020026020010151600560008381526020019081526020016000206000828254610b989190612014565b909155505050600101610a94565b50610bc283838360405180602001604052806000815250611249565b826001600160a01b03167fcf03f4b6ac4e837faee74041d92ddaa72145e2416e464de8742c9b9f6b48056d8383604051610bfd929190611df2565b60405180910390a2505050565b6001600160a01b038516331480610c265750610c268533610318565b610c845760405162461bcd60e51b815260206004820152602960248201527f455243313135353a2063616c6c6572206973206e6f74206f776e6572206e6f7260448201526808185c1c1c9bdd995960ba1b60648201526084016103fa565b61065b85858585856113b0565b6003546001600160a01b03163314610cbb5760405162461bcd60e51b81526004016103fa90611f0a565b6001600160a01b038116610d205760405162461bcd60e51b815260206004820152602660248201527f4f776e61626c653a206e6577206f776e657220697320746865207a65726f206160448201526564647265737360d01b60648201526084016103fa565b610d298161111e565b50565b6000818152600560209081526040808320546004909252822054610475919061205f565b606081610d745750506040805180820190915260018152600360fc1b602082015290565b8160005b8115610d9e5780610d88816120d3565b9150610d979050600a8361202c565b9150610d78565b60008167ffffffffffffffff811115610dc757634e487b7160e01b600052604160045260246000fd5b6040519080825280601f01601f191660200182016040528015610df1576020820181803683370190505b5090505b8415610e6a57610e0660018361205f565b9150610e13600a866120ee565b610e1e906030612014565b60f81b818381518110610e4157634e487b7160e01b600052603260045260246000fd5b60200101906001600160f81b031916908160001a905350610e63600a8661202c565b9450610df5565b949350505050565b600061057e8284612040565b600061057e828461202c565b8151835114610eab5760405162461bcd60e51b81526004016103fa90611f3f565b6001600160a01b038416610ed15760405162461bcd60e51b81526004016103fa90611e7b565b3360005b8451811015610fd4576000858281518110610f0057634e487b7160e01b600052603260045260246000fd5b602002602001015190506000858381518110610f2c57634e487b7160e01b600052603260045260246000fd5b602090810291909101810151600084815280835260408082206001600160a01b038e168352909352919091205490915081811015610f7c5760405162461bcd60e51b81526004016103fa90611ec0565b6000838152602081815260408083206001600160a01b038e8116855292528083208585039055908b16825281208054849290610fb9908490612014565b9250508190555050505080610fcd906120d3565b9050610ed5565b50846001600160a01b0316866001600160a01b0316826001600160a01b03167f4a39dc06d4c0dbc64b70af90fd698a233a518aa5d07e595d983b8c0526c8f7fb8787604051611024929190611df2565b60405180910390a461103a8187878787876114cd565b505050505050565b600061057e8284612014565b6001600160a01b0384166110745760405162461bcd60e51b81526004016103fa90611f87565b3361108e8160008761108588611638565b61065b88611638565b6000848152602081815260408083206001600160a01b0389168452909152812080548592906110be908490612014565b909155505060408051858152602081018590526001600160a01b0380881692600092918516917fc3d58168c5ae7397731d063d5bbf3d657854427343f4c083240f7aacaa2d0f62910160405180910390a461065b81600087878787611691565b600380546001600160a01b038381166001600160a01b0319831681179093556040519116919082907f8be0079c531659141344cd1fd0a4f28419497f9722a3daafe3b4186f6b6457e090600090a35050565b816001600160a01b0316836001600160a01b031614156111e45760405162461bcd60e51b815260206004820152602960248201527f455243313135353a2073657474696e6720617070726f76616c20737461747573604482015268103337b91039b2b63360b91b60648201526084016103fa565b6001600160a01b03838116600081815260016020908152604080832094871680845294825291829020805460ff191686151590811790915591519182527f17307eab39ab6107e8899845ad3d59bd9653f200f220920489ca2b5937696c3191016108ca565b6001600160a01b03841661126f5760405162461bcd60e51b81526004016103fa90611f87565b81518351146112905760405162461bcd60e51b81526004016103fa90611f3f565b3360005b8451811015611348578381815181106112bd57634e487b7160e01b600052603260045260246000fd5b60200260200101516000808784815181106112e857634e487b7160e01b600052603260045260246000fd5b602002602001015181526020019081526020016000206000886001600160a01b03166001600160a01b0316815260200190815260200160002060008282546113309190612014565b90915550819050611340816120d3565b915050611294565b50846001600160a01b031660006001600160a01b0316826001600160a01b03167f4a39dc06d4c0dbc64b70af90fd698a233a518aa5d07e595d983b8c0526c8f7fb8787604051611399929190611df2565b60405180910390a461065b816000878787876114cd565b6001600160a01b0384166113d65760405162461bcd60e51b81526004016103fa90611e7b565b336113e681878761108588611638565b6000848152602081815260408083206001600160a01b038a168452909152902054838110156114275760405162461bcd60e51b81526004016103fa90611ec0565b6000858152602081815260408083206001600160a01b038b8116855292528083208785039055908816825281208054869290611464908490612014565b909155505060408051868152602081018690526001600160a01b03808916928a821692918616917fc3d58168c5ae7397731d063d5bbf3d657854427343f4c083240f7aacaa2d0f62910160405180910390a46114c4828888888888611691565b50505050505050565b6001600160a01b0384163b1561103a5760405163bc197c8160e01b81526001600160a01b0385169063bc197c81906115119089908990889088908890600401611d3c565b602060405180830381600087803b15801561152b57600080fd5b505af192505050801561155b575060408051601f3d908101601f1916820190925261155891810190611b84565b60015b61160857611567612144565b806308c379a014156115a1575061157c61215c565b8061158757506115a3565b8060405162461bcd60e51b81526004016103fa9190611e20565b505b60405162461bcd60e51b815260206004820152603460248201527f455243313135353a207472616e7366657220746f206e6f6e20455243313135356044820152732932b1b2b4bb32b91034b6b83632b6b2b73a32b960611b60648201526084016103fa565b6001600160e01b0319811663bc197c8160e01b146114c45760405162461bcd60e51b81526004016103fa90611e33565b6040805160018082528183019092526060916000919060208083019080368337019050509050828160008151811061168057634e487b7160e01b600052603260045260246000fd5b602090810291909101015292915050565b6001600160a01b0384163b1561103a5760405163f23a6e6160e01b81526001600160a01b0385169063f23a6e61906116d59089908990889088908890600401611d9a565b602060405180830381600087803b1580156116ef57600080fd5b505af192505050801561171f575060408051601f3d908101601f1916820190925261171c91810190611b84565b60015b61172b57611567612144565b6001600160e01b0319811663f23a6e6160e01b146114c45760405162461bcd60e51b81526004016103fa90611e33565b80356001600160a01b038116811461177257600080fd5b919050565b600082601f830112611787578081fd5b8135602061179482611fc8565b6040516117a182826120a6565b8381528281019150858301600585901b870184018810156117c0578586fd5b855b858110156117de578135845292840192908401906001016117c2565b5090979650505050505050565b600082601f8301126117fb578081fd5b813561180681611fec565b60405161181382826120a6565b828152856020848701011115611827578384fd5b82602086016020830137918201602001929092529392505050565b600060208284031215611853578081fd5b61057e8261175b565b6000806040838503121561186e578081fd5b6118778361175b565b91506118856020840161175b565b90509250929050565b600080600080600060a086880312156118a5578081fd5b6118ae8661175b565b94506118bc6020870161175b565b9350604086013567ffffffffffffffff808211156118d8578283fd5b6118e489838a01611777565b945060608801359150808211156118f9578283fd5b61190589838a01611777565b9350608088013591508082111561191a578283fd5b50611927888289016117eb565b9150509295509295909350565b600080600080600060a0868803121561194b578081fd5b6119548661175b565b94506119626020870161175b565b93506040860135925060608601359150608086013567ffffffffffffffff81111561198b578182fd5b611927888289016117eb565b6000806000606084860312156119ab578283fd5b6119b48461175b565b9250602084013567ffffffffffffffff808211156119d0578384fd5b6119dc87838801611777565b935060408601359150808211156119f1578283fd5b506119fe86828701611777565b9150509250925092565b60008060408385031215611a1a578182fd5b611a238361175b565b915060208301358015158114611a37578182fd5b809150509250929050565b60008060408385031215611a54578182fd5b611a5d8361175b565b946020939093013593505050565b600080600060608486031215611a7f578081fd5b611a888461175b565b95602085013595506040909401359392505050565b60008060408385031215611aaf578182fd5b823567ffffffffffffffff80821115611ac6578384fd5b818501915085601f830112611ad9578384fd5b81356020611ae682611fc8565b604051611af382826120a6565b8381528281019150858301600585901b870184018b1015611b12578889fd5b8896505b84871015611b3b57611b278161175b565b835260019690960195918301918301611b16565b5096505086013592505080821115611b51578283fd5b50611b5e85828601611777565b9150509250929050565b600060208284031215611b79578081fd5b813561057e816121e6565b600060208284031215611b95578081fd5b815161057e816121e6565b600060208284031215611bb1578081fd5b815167ffffffffffffffff811115611bc7578182fd5b8201601f81018413611bd7578182fd5b8051611be281611fec565b604051611bef82826120a6565b828152866020848601011115611c03578485fd5b611c14836020830160208701612076565b9695505050505050565b600060208284031215611c2f578081fd5b5035919050565b60008060408385031215611c48578182fd5b50508035926020909101359150565b6000815180845260208085019450808401835b83811015611c8657815187529582019590820190600101611c6a565b509495945050505050565b60008151808452611ca9816020860160208601612076565b601f01601f19169290920160200192915050565b60008351611ccf818460208801612076565b835190830190611ce3818360208801612076565b01949350505050565b60008451611cfe818460208901612076565b845190830190611d12818360208901612076565b602f60f81b91019081528351611d2f816001840160208801612076565b0160010195945050505050565b6001600160a01b0386811682528516602082015260a060408201819052600090611d6890830186611c57565b8281036060840152611d7a8186611c57565b90508281036080840152611d8e8185611c91565b98975050505050505050565b6001600160a01b03868116825285166020820152604081018490526060810183905260a060808201819052600090611dd490830184611c91565b979650505050505050565b60208152600061057e6020830184611c57565b604081526000611e056040830185611c57565b8281036020840152611e178185611c57565b95945050505050565b60208152600061057e6020830184611c91565b60208082526028908201527f455243313135353a204552433131353552656365697665722072656a656374656040820152676420746f6b656e7360c01b606082015260800190565b60208082526025908201527f455243313135353a207472616e7366657220746f20746865207a65726f206164604082015264647265737360d81b606082015260800190565b6020808252602a908201527f455243313135353a20696e73756666696369656e742062616c616e636520666f60408201526939103a3930b739b332b960b11b606082015260800190565b6020808252818101527f4f776e61626c653a2063616c6c6572206973206e6f7420746865206f776e6572604082015260600190565b60208082526028908201527f455243313135353a2069647320616e6420616d6f756e7473206c656e677468206040820152670dad2e6dac2e8c6d60c31b606082015260800190565b60208082526021908201527f455243313135353a206d696e7420746f20746865207a65726f206164647265736040820152607360f81b606082015260800190565b600067ffffffffffffffff821115611fe257611fe261212e565b5060051b60200190565b600067ffffffffffffffff8211156120065761200661212e565b50601f01601f191660200190565b6000821982111561202757612027612102565b500190565b60008261203b5761203b612118565b500490565b600081600019048311821515161561205a5761205a612102565b500290565b60008282101561207157612071612102565b500390565b60005b83811015612091578181015183820152602001612079565b838111156120a0576000848401525b50505050565b601f8201601f1916810167ffffffffffffffff811182821017156120cc576120cc61212e565b6040525050565b60006000198214156120e7576120e7612102565b5060010190565b6000826120fd576120fd612118565b500690565b634e487b7160e01b600052601160045260246000fd5b634e487b7160e01b600052601260045260246000fd5b634e487b7160e01b600052604160045260246000fd5b600060033d111561215957600481823e5160e01c5b90565b600060443d101561216a5790565b6040516003193d81016004833e81513d67ffffffffffffffff816024840111818411171561219a57505050505090565b82850191508151818111156121b25750505050505090565b843d87010160208285010111156121cc5750505050505090565b6121db602082860101876120a6565b509095945050505050565b6001600160e01b031981168114610d2957600080fdfea2646970667358221220b81e4f23a250b55f50cfeb10e0882c337c9fcd441e67671b05a781b56bbd850764736f6c63430008040033a2646970667358221220cde8caa24a2564df1cf84e79bab18abd03d56ba140928ed88fa5a87865d0036364736f6c63430008040033",
  "devdoc": {
    "kind": "dev",
    "methods": {
      "airdropBatchMintTicket(uint256,uint256,address,uint256[],uint256[])": {
        "params": {
          "_amounts": "The payment information for this transaction",
          "_from": "The wallet address of owner",
          "_fundingCycleId": "The ID of the funding cycle period",
          "_projectId": "The ID of the DAO",
          "_tierIds": "The special token ids"
        }
      },
      "batchMintTicket(uint256,uint256,address,uint256[])": {
        "params": {
          "_amounts": "The payment information for this transaction",
          "_from": "The wallet address of owner",
          "_fundingCycleId": "The ID of the funding cycle period",
          "_projectId": "The ID of the DAO"
        }
      },
      "claimRoyaltyFee(uint256,uint256[],bytes32[][],uint256[])": {
        "params": {
          "_amounts": "Claim amounts",
          "_merkleProofs": "Merkle tree proofs",
          "_merkleRootIds": "Merkle tree root ids",
          "_projectId": "The project ID "
        }
      },
      "distributeRoyaltyFee(uint256,uint256,bytes32,string,bytes)": {
        "params": {
          "_distributeAmount": "The distribute amount of this cycle",
          "_ipfsHash": "The ipfs hash of merkle tree",
          "_merkleRoot": "Merkle tree root, record distribution amount of each member",
          "_projectId": "The project ID",
          "_signature": "The signature signed by signer"
        }
      },
      "getEstimatingUserAllocation(uint256,uint256,uint256[],uint256[])": {
        "params": {
          "_fundingCycleId": "the funding cycle id",
          "_projectId": "the project id of contribute dao",
          "_weights": "ticket weights by tier"
        }
      },
      "getUserAllocation(address,uint256,uint256)": {
        "params": {
          "_fundingCycleId": "The funding cycle id",
          "_projectId": "The ID of the DAO being contribute to",
          "_user": "The address of the calling user"
        }
      },
      "issue(uint256,uint256[],uint256[],uint256[])": {
        "params": {
          "_projectId": "The project ID",
          "_tierCapacities": "Total supply for each token",
          "_tierFees": "Royalty fees"
        }
      },
      "stake(uint256,uint256,address,(uint256,uint256,uint256)[])": {
        "params": {
          "_from": "The wallet address of the contributo",
          "_fundingCycleId": "The funding cycle ID",
          "_payInfos": "The payment information for this transaction",
          "_projectId": "The project ID"
        }
      }
    },
    "version": 1
  },
  "userdoc": {
    "kind": "user",
    "methods": {
      "airdropBatchMintTicket(uint256,uint256,address,uint256[],uint256[])": {
        "notice": "Batch mint special nfts for the address who have community token"
      },
      "batchMintTicket(uint256,uint256,address,uint256[])": {
        "notice": "Batch mint tickets"
      },
      "claimRoyaltyFee(uint256,uint256[],bytes32[][],uint256[])": {
        "notice": "Claim according to votes share"
      },
      "distributeRoyaltyFee(uint256,uint256,bytes32,string,bytes)": {
        "notice": "Start a new distribution"
      },
      "getEstimatingUserAllocation(uint256,uint256,uint256[],uint256[])": {
        "notice": "Get estimated allocations by funding cycle allocation 100000 means 0.1(10%), 1 meanss 0.000001(0.0001%), 1000000 means 1(100%)"
      },
      "getUserAllocation(address,uint256,uint256)": {
        "notice": "Get allocations by funding cycle allocation 100000 means 0.1(10%), 1 meanss 0.000001(0.0001%), 1000000 means 1(100%)"
      },
      "issue(uint256,uint256[],uint256[],uint256[])": {
        "notice": "Initialize the membershiopass for dao"
      },
      "stake(uint256,uint256,address,(uint256,uint256,uint256)[])": {
        "notice": "For the contribution that user need to deposit the fund to the pool"
      }
    },
    "version": 1
  },
  "storageLayout": {
    "storage": [
      {
        "astId": 1137,
        "contract": "contracts/MembershipPassBooth.sol:MembershipPassBooth",
        "label": "_status",
        "offset": 0,
        "slot": "0",
        "type": "t_uint256"
      },
      {
        "astId": 11835,
        "contract": "contracts/MembershipPassBooth.sol:MembershipPassBooth",
        "label": "tierSizeOf",
        "offset": 0,
        "slot": "1",
        "type": "t_mapping(t_uint256,t_uint256)"
      },
      {
        "astId": 11841,
        "contract": "contracts/MembershipPassBooth.sol:MembershipPassBooth",
        "label": "membershipPassOf",
        "offset": 0,
        "slot": "2",
        "type": "t_mapping(t_uint256,t_contract(IMembershipPass)16365)"
      },
      {
        "astId": 11847,
        "contract": "contracts/MembershipPassBooth.sol:MembershipPassBooth",
        "label": "royaltyDistributorOf",
        "offset": 0,
        "slot": "3",
        "type": "t_mapping(t_uint256,t_contract(IRoyaltyDistributor)16792)"
      },
      {
        "astId": 11854,
        "contract": "contracts/MembershipPassBooth.sol:MembershipPassBooth",
        "label": "totalBiddingAmountBy",
        "offset": 0,
        "slot": "4",
        "type": "t_mapping(t_uint256,t_mapping(t_uint256,t_uint256))"
      },
      {
        "astId": 11861,
        "contract": "contracts/MembershipPassBooth.sol:MembershipPassBooth",
        "label": "totalSqrtWeightBy",
        "offset": 0,
        "slot": "5",
        "type": "t_mapping(t_uint256,t_mapping(t_uint256,t_uint256))"
      },
      {
        "astId": 11871,
        "contract": "contracts/MembershipPassBooth.sol:MembershipPassBooth",
        "label": "depositedWeightBy",
        "offset": 0,
        "slot": "6",
        "type": "t_mapping(t_address,t_mapping(t_uint256,t_mapping(t_uint256,t_struct(WeightInfo)16383_storage)))"
      },
      {
        "astId": 11878,
        "contract": "contracts/MembershipPassBooth.sol:MembershipPassBooth",
        "label": "claimedOf",
        "offset": 0,
        "slot": "7",
        "type": "t_mapping(t_address,t_mapping(t_uint256,t_bool))"
      },
      {
        "astId": 11885,
        "contract": "contracts/MembershipPassBooth.sol:MembershipPassBooth",
        "label": "airdropClaimedOf",
        "offset": 0,
        "slot": "8",
        "type": "t_mapping(t_address,t_mapping(t_uint256,t_bool))"
      },
      {
        "astId": 11892,
        "contract": "contracts/MembershipPassBooth.sol:MembershipPassBooth",
        "label": "airdropClaimedAmountOf",
        "offset": 0,
        "slot": "9",
        "type": "t_mapping(t_uint256,t_mapping(t_uint256,t_uint256))"
      },
      {
        "astId": 11895,
        "contract": "contracts/MembershipPassBooth.sol:MembershipPassBooth",
        "label": "configStore",
        "offset": 0,
        "slot": "10",
        "type": "t_contract(IConfigStore)15827"
      },
      {
        "astId": 11898,
        "contract": "contracts/MembershipPassBooth.sol:MembershipPassBooth",
        "label": "fundingCycles",
        "offset": 0,
        "slot": "11",
        "type": "t_contract(IFundingCycles)16278"
      }
    ],
    "types": {
      "t_address": {
        "encoding": "inplace",
        "label": "address",
        "numberOfBytes": "20"
      },
      "t_bool": {
        "encoding": "inplace",
        "label": "bool",
        "numberOfBytes": "1"
      },
      "t_contract(IConfigStore)15827": {
        "encoding": "inplace",
        "label": "contract IConfigStore",
        "numberOfBytes": "20"
      },
      "t_contract(IFundingCycles)16278": {
        "encoding": "inplace",
        "label": "contract IFundingCycles",
        "numberOfBytes": "20"
      },
      "t_contract(IMembershipPass)16365": {
        "encoding": "inplace",
        "label": "contract IMembershipPass",
        "numberOfBytes": "20"
      },
      "t_contract(IRoyaltyDistributor)16792": {
        "encoding": "inplace",
        "label": "contract IRoyaltyDistributor",
        "numberOfBytes": "20"
      },
      "t_mapping(t_address,t_mapping(t_uint256,t_bool))": {
        "encoding": "mapping",
        "key": "t_address",
        "label": "mapping(address => mapping(uint256 => bool))",
        "numberOfBytes": "32",
        "value": "t_mapping(t_uint256,t_bool)"
      },
      "t_mapping(t_address,t_mapping(t_uint256,t_mapping(t_uint256,t_struct(WeightInfo)16383_storage)))": {
        "encoding": "mapping",
        "key": "t_address",
        "label": "mapping(address => mapping(uint256 => mapping(uint256 => struct WeightInfo)))",
        "numberOfBytes": "32",
        "value": "t_mapping(t_uint256,t_mapping(t_uint256,t_struct(WeightInfo)16383_storage))"
      },
      "t_mapping(t_uint256,t_bool)": {
        "encoding": "mapping",
        "key": "t_uint256",
        "label": "mapping(uint256 => bool)",
        "numberOfBytes": "32",
        "value": "t_bool"
      },
      "t_mapping(t_uint256,t_contract(IMembershipPass)16365)": {
        "encoding": "mapping",
        "key": "t_uint256",
        "label": "mapping(uint256 => contract IMembershipPass)",
        "numberOfBytes": "32",
        "value": "t_contract(IMembershipPass)16365"
      },
      "t_mapping(t_uint256,t_contract(IRoyaltyDistributor)16792)": {
        "encoding": "mapping",
        "key": "t_uint256",
        "label": "mapping(uint256 => contract IRoyaltyDistributor)",
        "numberOfBytes": "32",
        "value": "t_contract(IRoyaltyDistributor)16792"
      },
      "t_mapping(t_uint256,t_mapping(t_uint256,t_struct(WeightInfo)16383_storage))": {
        "encoding": "mapping",
        "key": "t_uint256",
        "label": "mapping(uint256 => mapping(uint256 => struct WeightInfo))",
        "numberOfBytes": "32",
        "value": "t_mapping(t_uint256,t_struct(WeightInfo)16383_storage)"
      },
      "t_mapping(t_uint256,t_mapping(t_uint256,t_uint256))": {
        "encoding": "mapping",
        "key": "t_uint256",
        "label": "mapping(uint256 => mapping(uint256 => uint256))",
        "numberOfBytes": "32",
        "value": "t_mapping(t_uint256,t_uint256)"
      },
      "t_mapping(t_uint256,t_struct(WeightInfo)16383_storage)": {
        "encoding": "mapping",
        "key": "t_uint256",
        "label": "mapping(uint256 => struct WeightInfo)",
        "numberOfBytes": "32",
        "value": "t_struct(WeightInfo)16383_storage"
      },
      "t_mapping(t_uint256,t_uint256)": {
        "encoding": "mapping",
        "key": "t_uint256",
        "label": "mapping(uint256 => uint256)",
        "numberOfBytes": "32",
        "value": "t_uint256"
      },
      "t_struct(WeightInfo)16383_storage": {
        "encoding": "inplace",
        "label": "struct WeightInfo",
        "members": [
          {
            "astId": 16380,
            "contract": "contracts/MembershipPassBooth.sol:MembershipPassBooth",
            "label": "amount",
            "offset": 0,
            "slot": "0",
            "type": "t_uint256"
          },
          {
            "astId": 16382,
            "contract": "contracts/MembershipPassBooth.sol:MembershipPassBooth",
            "label": "sqrtWeight",
            "offset": 0,
            "slot": "1",
            "type": "t_uint256"
          }
        ],
        "numberOfBytes": "64"
      },
      "t_uint256": {
        "encoding": "inplace",
        "label": "uint256",
        "numberOfBytes": "32"
      }
    }
  }
}