{
  "address": "0x51594e62953CCc186d235ffB7bE004ca27096CA7",
  "abi": [
    {
      "inputs": [
        {
          "internalType": "contract IProjects",
          "name": "_projects",
          "type": "address"
        },
        {
          "internalType": "contract ITerminalDirectory",
          "name": "_terminalDirectory",
          "type": "address"
        }
      ],
      "stateMutability": "nonpayable",
      "type": "constructor"
    },
    {
      "inputs": [],
      "name": "BadAddress",
      "type": "error"
    },
    {
      "inputs": [],
      "name": "BadPercentage",
      "type": "error"
    },
    {
      "inputs": [],
      "name": "BadTotalPercentage",
      "type": "error"
    },
    {
      "inputs": [],
      "name": "NoOp",
      "type": "error"
    },
    {
      "inputs": [],
      "name": "UnAuthorized",
      "type": "error"
    },
    {
      "anonymous": false,
      "inputs": [
        {
          "indexed": true,
          "internalType": "uint256",
          "name": "projectId",
          "type": "uint256"
        },
        {
          "indexed": true,
          "internalType": "uint256",
          "name": "fundingCycleId",
          "type": "uint256"
        },
        {
          "components": [
            {
              "internalType": "uint16",
              "name": "percent",
              "type": "uint16"
            },
            {
              "internalType": "address payable",
              "name": "beneficiary",
              "type": "address"
            }
          ],
          "indexed": false,
          "internalType": "struct PayoutMod",
          "name": "mod",
          "type": "tuple"
        },
        {
          "indexed": false,
          "internalType": "address",
          "name": "caller",
          "type": "address"
        }
      ],
      "name": "SetPayoutMod",
      "type": "event"
    },
    {
      "inputs": [
        {
          "internalType": "uint256",
          "name": "_fundingCycleId",
          "type": "uint256"
        }
      ],
      "name": "payoutModsOf",
      "outputs": [
        {
          "components": [
            {
              "internalType": "uint16",
              "name": "percent",
              "type": "uint16"
            },
            {
              "internalType": "address payable",
              "name": "beneficiary",
              "type": "address"
            }
          ],
          "internalType": "struct PayoutMod[]",
          "name": "",
          "type": "tuple[]"
        }
      ],
      "stateMutability": "view",
      "type": "function"
    },
    {
      "inputs": [],
      "name": "projects",
      "outputs": [
        {
          "internalType": "contract IProjects",
          "name": "",
          "type": "address"
        }
      ],
      "stateMutability": "view",
      "type": "function"
    },
    {
      "inputs": [
        {
          "internalType": "uint256",
          "name": "_projectId",
          "type": "uint256"
        },
        {
          "internalType": "uint256",
          "name": "_fundingCycleId",
          "type": "uint256"
        },
        {
          "components": [
            {
              "internalType": "uint16",
              "name": "percent",
              "type": "uint16"
            },
            {
              "internalType": "address payable",
              "name": "beneficiary",
              "type": "address"
            }
          ],
          "internalType": "struct PayoutMod[]",
          "name": "_mods",
          "type": "tuple[]"
        }
      ],
      "name": "setPayoutMods",
      "outputs": [],
      "stateMutability": "nonpayable",
      "type": "function"
    },
    {
      "inputs": [],
      "name": "terminalDirectory",
      "outputs": [
        {
          "internalType": "contract ITerminalDirectory",
          "name": "",
          "type": "address"
        }
      ],
      "stateMutability": "view",
      "type": "function"
    }
  ],
  "transactionHash": "0x6717e37ede1be41adb9b7fed3b5a3e43ea51f6a00cbe81a8eeb75fb8e7173bc1",
  "args": [
    "0x145499F59c7C919266C7B2268c323eE7dB3B0079",
    "0x22f3c559e8b31817f25Df62786924b593cC5776E"
  ],
  "numDeployments": 1,
  "solcInputHash": "4e9316abea9744a68b7555d93f5656d5",
  "bytecode": "0x60c060405234801561001057600080fd5b5060405161083338038061083383398101604081905261002f9161004e565b6001600160601b0319606091821b811660805291901b1660a05261009f565b60008060408385031215610060578182fd5b825161006b81610087565b602084015190925061007c81610087565b809150509250929050565b6001600160a01b038116811461009c57600080fd5b50565b60805160601c60a05160601c6107646100cf6000396000609a0152600081816056015261011301526107646000f3fe608060405234801561001057600080fd5b506004361061004c5760003560e01c80636abcf8e3146100515780638b79543c14610095578063e5467d7f146100bc578063fe7a8524146100d1575b600080fd5b6100787f000000000000000000000000000000000000000000000000000000000000000081565b6040516001600160a01b0390911681526020015b60405180910390f35b6100787f000000000000000000000000000000000000000000000000000000000000000081565b6100cf6100ca366004610529565b6100f1565b005b6100e46100df366004610511565b61042a565b60405161008c9190610621565b604051634fe0eced60e01b815260048101849052839033906001600160a01b037f00000000000000000000000000000000000000000000000000000000000000001690634fe0eced9060240160206040518083038186803b15801561015557600080fd5b505afa158015610169573d6000803e3d6000fd5b505050506040513d601f19601f8201168201806040525081019061018d91906104ee565b6001600160a01b0316146101b45760405163be24598360e01b815260040160405180910390fd5b60008251116101d55760405162219cf160e01b815260040160405180910390fd5b60008381526020819052604081206101ec916104aa565b6000805b835181101561042257600084828151811061021b57634e487b7160e01b600052603260045260246000fd5b60200260200101516000015161ffff16101561024a576040516302b958c960e11b815260040160405180910390fd5b83818151811061026a57634e487b7160e01b600052603260045260246000fd5b60200260200101516000015161ffff168261028591906106df565b91506127108211156102aa57604051630a7e9e1560e21b815260040160405180910390fd5b60006001600160a01b03168482815181106102d557634e487b7160e01b600052603260045260246000fd5b6020026020010151602001516001600160a01b03161415610309576040516332691b5760e01b815260040160405180910390fd5b6000858152602081905260409020845185908390811061033957634e487b7160e01b600052603260045260246000fd5b602090810291909101810151825460018101845560009384529282902081519301805491909201516001600160a01b031662010000026001600160b01b031990911661ffff909316929092179190911790558351859087907f58f6654899043f89afc51667a0b5c72a15a544828752af9183da4140b21eadef908790859081106103d357634e487b7160e01b600052603260045260246000fd5b602002602001015133604051610412929190825161ffff1681526020928301516001600160a01b03908116938201939093529116604082015260600190565b60405180910390a36001016101f0565b505050505050565b600081815260208181526040808320805482518185028101850190935280835260609492939192909184015b8282101561049f576000848152602090819020604080518082019091529084015461ffff811682526201000090046001600160a01b031681830152825260019092019101610456565b505050509050919050565b50805460008255906000526020600020908101906104c891906104cb565b50565b5b808211156104ea5780546001600160b01b03191681556001016104cc565b5090565b6000602082840312156104ff578081fd5b815161050a81610719565b9392505050565b600060208284031215610522578081fd5b5035919050565b60008060006060848603121561053d578182fd5b83359250602080850135925060408086013567ffffffffffffffff80821115610564578485fd5b818801915088601f830112610577578485fd5b81358181111561058957610589610703565b610597858260051b016106ae565b8181528581019250838601600683901b850187018c10156105b6578788fd5b8794505b828510156106105785818d0312156105d0578788fd5b6105d8610685565b813561ffff811681146105e957898afd5b8152818801356105f881610719565b818901528452600194909401939286019285016105ba565b508096505050505050509250925092565b602080825282518282018190526000919060409081850190868401855b8281101561067857610668848351805161ffff1682526020908101516001600160a01b0316910152565b928401929085019060010161063e565b5091979650505050505050565b6040805190810167ffffffffffffffff811182821017156106a8576106a8610703565b60405290565b604051601f8201601f1916810167ffffffffffffffff811182821017156106d7576106d7610703565b604052919050565b600082198211156106fe57634e487b7160e01b81526011600452602481fd5b500190565b634e487b7160e01b600052604160045260246000fd5b6001600160a01b03811681146104c857600080fdfea264697066735822122099cf2d68514a4c3d8cb26ca6ad2055a97bf4c461404a5b63bf92325ee41a856564736f6c63430008040033",
  "devdoc": {
    "details": "Mods can be used to distribute a percentage of payments or tickets to preconfigured beneficiaries.",
    "kind": "dev",
    "methods": {
      "constructor": {
        "params": {
          "_projects": "The contract storing project information",
          "_terminalDirectory": "A directory of a project's current Juicebox terminal to receive payments in."
        }
      },
      "payoutModsOf(uint256)": {
        "params": {
          "_fundingCycleId": "The ID of the fundingCycle to get mods for."
        },
        "returns": {
          "_0": "An array of all mods for the project."
        }
      },
      "setPayoutMods(uint256,uint256,(uint16,address)[])": {
        "details": "Only the owner or operator of a project can make this call, or the current terminal of the project.",
        "params": {
          "_mods": "The payout mods to set.",
          "_projectId": "The project to add a mod to."
        }
      }
    },
    "version": 1
  },
  "userdoc": {
    "kind": "user",
    "methods": {
      "payoutModsOf(uint256)": {
        "notice": " Get all payout mods for the specified project ID."
      },
      "projects()": {
        "notice": "The contract storing project information."
      },
      "setPayoutMods(uint256,uint256,(uint16,address)[])": {
        "notice": " Adds a mod to the payout mods list."
      }
    },
    "notice": "Stores mods for each project.the fundingCycleID is unique, then there is no need to store ProjectId in SmartContract. ",
    "version": 1
  },
  "storageLayout": {
    "storage": [
      {
        "astId": 12866,
        "contract": "contracts/PayoutStore.sol:PayoutStore",
        "label": "_payoutModsOf",
        "offset": 0,
        "slot": "0",
        "type": "t_mapping(t_uint256,t_array(t_struct(PayoutMod)16624_storage)dyn_storage)"
      }
    ],
    "types": {
      "t_address_payable": {
        "encoding": "inplace",
        "label": "address payable",
        "numberOfBytes": "20"
      },
      "t_array(t_struct(PayoutMod)16624_storage)dyn_storage": {
        "base": "t_struct(PayoutMod)16624_storage",
        "encoding": "dynamic_array",
        "label": "struct PayoutMod[]",
        "numberOfBytes": "32"
      },
      "t_mapping(t_uint256,t_array(t_struct(PayoutMod)16624_storage)dyn_storage)": {
        "encoding": "mapping",
        "key": "t_uint256",
        "label": "mapping(uint256 => struct PayoutMod[])",
        "numberOfBytes": "32",
        "value": "t_array(t_struct(PayoutMod)16624_storage)dyn_storage"
      },
      "t_struct(PayoutMod)16624_storage": {
        "encoding": "inplace",
        "label": "struct PayoutMod",
        "members": [
          {
            "astId": 16621,
            "contract": "contracts/PayoutStore.sol:PayoutStore",
            "label": "percent",
            "offset": 0,
            "slot": "0",
            "type": "t_uint16"
          },
          {
            "astId": 16623,
            "contract": "contracts/PayoutStore.sol:PayoutStore",
            "label": "beneficiary",
            "offset": 2,
            "slot": "0",
            "type": "t_address_payable"
          }
        ],
        "numberOfBytes": "32"
      },
      "t_uint16": {
        "encoding": "inplace",
        "label": "uint16",
        "numberOfBytes": "2"
      },
      "t_uint256": {
        "encoding": "inplace",
        "label": "uint256",
        "numberOfBytes": "32"
      }
    }
  }
}