{
  "address": "0x145499F59c7C919266C7B2268c323eE7dB3B0079",
  "abi": [
    {
      "inputs": [
        {
          "internalType": "address",
          "name": "_superAdmin",
          "type": "address"
        }
      ],
      "stateMutability": "nonpayable",
      "type": "constructor"
    },
    {
      "inputs": [],
      "name": "EmptyHandle",
      "type": "error"
    },
    {
      "inputs": [],
      "name": "TakenedHandle",
      "type": "error"
    },
    {
      "inputs": [],
      "name": "UnAuthorized",
      "type": "error"
    },
    {
      "anonymous": false,
      "inputs": [
        {
          "indexed": true,
          "internalType": "address",
          "name": "owner",
          "type": "address"
        },
        {
          "indexed": true,
          "internalType": "address",
          "name": "approved",
          "type": "address"
        },
        {
          "indexed": true,
          "internalType": "uint256",
          "name": "tokenId",
          "type": "uint256"
        }
      ],
      "name": "Approval",
      "type": "event"
    },
    {
      "anonymous": false,
      "inputs": [
        {
          "indexed": true,
          "internalType": "address",
          "name": "owner",
          "type": "address"
        },
        {
          "indexed": true,
          "internalType": "address",
          "name": "operator",
          "type": "address"
        },
        {
          "indexed": false,
          "internalType": "bool",
          "name": "approved",
          "type": "bool"
        }
      ],
      "name": "ApprovalForAll",
      "type": "event"
    },
    {
      "anonymous": false,
      "inputs": [
        {
          "indexed": true,
          "internalType": "uint256",
          "name": "projectId",
          "type": "uint256"
        },
        {
          "indexed": true,
          "internalType": "address",
          "name": "owner",
          "type": "address"
        },
        {
          "indexed": false,
          "internalType": "bytes32",
          "name": "handle",
          "type": "bytes32"
        },
        {
          "indexed": false,
          "internalType": "address",
          "name": "caller",
          "type": "address"
        }
      ],
      "name": "Create",
      "type": "event"
    },
    {
      "anonymous": false,
      "inputs": [
        {
          "indexed": true,
          "internalType": "address",
          "name": "previousOwner",
          "type": "address"
        },
        {
          "indexed": true,
          "internalType": "address",
          "name": "newOwner",
          "type": "address"
        }
      ],
      "name": "OwnershipTransferred",
      "type": "event"
    },
    {
      "anonymous": false,
      "inputs": [
        {
          "indexed": false,
          "internalType": "string",
          "name": "baseURI",
          "type": "string"
        }
      ],
      "name": "SetBaseURI",
      "type": "event"
    },
    {
      "anonymous": false,
      "inputs": [
        {
          "indexed": true,
          "internalType": "uint256",
          "name": "projectId",
          "type": "uint256"
        },
        {
          "indexed": true,
          "internalType": "bytes32",
          "name": "handle",
          "type": "bytes32"
        },
        {
          "indexed": false,
          "internalType": "address",
          "name": "caller",
          "type": "address"
        }
      ],
      "name": "SetHandle",
      "type": "event"
    },
    {
      "anonymous": false,
      "inputs": [
        {
          "indexed": true,
          "internalType": "address",
          "name": "from",
          "type": "address"
        },
        {
          "indexed": true,
          "internalType": "address",
          "name": "to",
          "type": "address"
        },
        {
          "indexed": true,
          "internalType": "uint256",
          "name": "tokenId",
          "type": "uint256"
        }
      ],
      "name": "Transfer",
      "type": "event"
    },
    {
      "inputs": [
        {
          "internalType": "address",
          "name": "to",
          "type": "address"
        },
        {
          "internalType": "uint256",
          "name": "tokenId",
          "type": "uint256"
        }
      ],
      "name": "approve",
      "outputs": [],
      "stateMutability": "nonpayable",
      "type": "function"
    },
    {
      "inputs": [
        {
          "internalType": "address",
          "name": "owner",
          "type": "address"
        }
      ],
      "name": "balanceOf",
      "outputs": [
        {
          "internalType": "uint256",
          "name": "",
          "type": "uint256"
        }
      ],
      "stateMutability": "view",
      "type": "function"
    },
    {
      "inputs": [],
      "name": "count",
      "outputs": [
        {
          "internalType": "uint256",
          "name": "",
          "type": "uint256"
        }
      ],
      "stateMutability": "view",
      "type": "function"
    },
    {
      "inputs": [
        {
          "internalType": "address",
          "name": "_owner",
          "type": "address"
        },
        {
          "internalType": "bytes32",
          "name": "_handle",
          "type": "bytes32"
        },
        {
          "internalType": "contract ITerminal",
          "name": "_terminal",
          "type": "address"
        }
      ],
      "name": "create",
      "outputs": [
        {
          "internalType": "uint256",
          "name": "",
          "type": "uint256"
        }
      ],
      "stateMutability": "nonpayable",
      "type": "function"
    },
    {
      "inputs": [
        {
          "internalType": "uint256",
          "name": "_projectId",
          "type": "uint256"
        }
      ],
      "name": "exists",
      "outputs": [
        {
          "internalType": "bool",
          "name": "",
          "type": "bool"
        }
      ],
      "stateMutability": "view",
      "type": "function"
    },
    {
      "inputs": [
        {
          "internalType": "uint256",
          "name": "tokenId",
          "type": "uint256"
        }
      ],
      "name": "getApproved",
      "outputs": [
        {
          "internalType": "address",
          "name": "",
          "type": "address"
        }
      ],
      "stateMutability": "view",
      "type": "function"
    },
    {
      "inputs": [
        {
          "internalType": "uint256",
          "name": "",
          "type": "uint256"
        }
      ],
      "name": "handleOf",
      "outputs": [
        {
          "internalType": "bytes32",
          "name": "",
          "type": "bytes32"
        }
      ],
      "stateMutability": "view",
      "type": "function"
    },
    {
      "inputs": [
        {
          "internalType": "address",
          "name": "owner",
          "type": "address"
        },
        {
          "internalType": "address",
          "name": "operator",
          "type": "address"
        }
      ],
      "name": "isApprovedForAll",
      "outputs": [
        {
          "internalType": "bool",
          "name": "",
          "type": "bool"
        }
      ],
      "stateMutability": "view",
      "type": "function"
    },
    {
      "inputs": [],
      "name": "name",
      "outputs": [
        {
          "internalType": "string",
          "name": "",
          "type": "string"
        }
      ],
      "stateMutability": "view",
      "type": "function"
    },
    {
      "inputs": [],
      "name": "owner",
      "outputs": [
        {
          "internalType": "address",
          "name": "",
          "type": "address"
        }
      ],
      "stateMutability": "view",
      "type": "function"
    },
    {
      "inputs": [
        {
          "internalType": "uint256",
          "name": "tokenId",
          "type": "uint256"
        }
      ],
      "name": "ownerOf",
      "outputs": [
        {
          "internalType": "address",
          "name": "",
          "type": "address"
        }
      ],
      "stateMutability": "view",
      "type": "function"
    },
    {
      "inputs": [
        {
          "internalType": "bytes32",
          "name": "",
          "type": "bytes32"
        }
      ],
      "name": "projectFor",
      "outputs": [
        {
          "internalType": "uint256",
          "name": "",
          "type": "uint256"
        }
      ],
      "stateMutability": "view",
      "type": "function"
    },
    {
      "inputs": [],
      "name": "renounceOwnership",
      "outputs": [],
      "stateMutability": "nonpayable",
      "type": "function"
    },
    {
      "inputs": [
        {
          "internalType": "address",
          "name": "from",
          "type": "address"
        },
        {
          "internalType": "address",
          "name": "to",
          "type": "address"
        },
        {
          "internalType": "uint256",
          "name": "tokenId",
          "type": "uint256"
        }
      ],
      "name": "safeTransferFrom",
      "outputs": [],
      "stateMutability": "nonpayable",
      "type": "function"
    },
    {
      "inputs": [
        {
          "internalType": "address",
          "name": "from",
          "type": "address"
        },
        {
          "internalType": "address",
          "name": "to",
          "type": "address"
        },
        {
          "internalType": "uint256",
          "name": "tokenId",
          "type": "uint256"
        },
        {
          "internalType": "bytes",
          "name": "_data",
          "type": "bytes"
        }
      ],
      "name": "safeTransferFrom",
      "outputs": [],
      "stateMutability": "nonpayable",
      "type": "function"
    },
    {
      "inputs": [
        {
          "internalType": "address",
          "name": "operator",
          "type": "address"
        },
        {
          "internalType": "bool",
          "name": "approved",
          "type": "bool"
        }
      ],
      "name": "setApprovalForAll",
      "outputs": [],
      "stateMutability": "nonpayable",
      "type": "function"
    },
    {
      "inputs": [
        {
          "internalType": "string",
          "name": "_uri",
          "type": "string"
        }
      ],
      "name": "setBaseURI",
      "outputs": [],
      "stateMutability": "nonpayable",
      "type": "function"
    },
    {
      "inputs": [
        {
          "internalType": "uint256",
          "name": "_projectId",
          "type": "uint256"
        },
        {
          "internalType": "bytes32",
          "name": "_handle",
          "type": "bytes32"
        }
      ],
      "name": "setHandle",
      "outputs": [],
      "stateMutability": "nonpayable",
      "type": "function"
    },
    {
      "inputs": [
        {
          "internalType": "bytes4",
          "name": "interfaceId",
          "type": "bytes4"
        }
      ],
      "name": "supportsInterface",
      "outputs": [
        {
          "internalType": "bool",
          "name": "",
          "type": "bool"
        }
      ],
      "stateMutability": "view",
      "type": "function"
    },
    {
      "inputs": [],
      "name": "symbol",
      "outputs": [
        {
          "internalType": "string",
          "name": "",
          "type": "string"
        }
      ],
      "stateMutability": "view",
      "type": "function"
    },
    {
      "inputs": [
        {
          "internalType": "uint256",
          "name": "tokenId",
          "type": "uint256"
        }
      ],
      "name": "tokenURI",
      "outputs": [
        {
          "internalType": "string",
          "name": "",
          "type": "string"
        }
      ],
      "stateMutability": "view",
      "type": "function"
    },
    {
      "inputs": [
        {
          "internalType": "address",
          "name": "from",
          "type": "address"
        },
        {
          "internalType": "address",
          "name": "to",
          "type": "address"
        },
        {
          "internalType": "uint256",
          "name": "tokenId",
          "type": "uint256"
        }
      ],
      "name": "transferFrom",
      "outputs": [],
      "stateMutability": "nonpayable",
      "type": "function"
    },
    {
      "inputs": [
        {
          "internalType": "address",
          "name": "newOwner",
          "type": "address"
        }
      ],
      "name": "transferOwnership",
      "outputs": [],
      "stateMutability": "nonpayable",
      "type": "function"
    }
  ],
  "transactionHash": "0xdbef8d58fd4f549d45b164ac969fffef0231b14aedfcdc7a832151041aea47e4",
  "args": [
    "0xc45D314D16957f8C72aB4cA27A619bd0042A00c6"
  ],
  "numDeployments": 1,
  "solcInputHash": "4e9316abea9744a68b7555d93f5656d5",
  "bytecode": "0x60806040523480156200001157600080fd5b5060405162001e8a38038062001e8a8339810160408190526200003491620002ce565b6040518060400160405280601481526020017f4e65696768626f72686f6f642070726f6a6563740000000000000000000000008152506040518060400160405280601481526020017f4e45494748484f52484f4f442050524f4a4543540000000000000000000000008152508160009080519060200190620000b892919062000228565b508051620000ce90600190602084019062000228565b505050620000eb620000e5620000fd60201b60201c565b62000101565b620000f68162000153565b506200033b565b3390565b600680546001600160a01b038381166001600160a01b0319831681179093556040519116919082907f8be0079c531659141344cd1fd0a4f28419497f9722a3daafe3b4186f6b6457e090600090a35050565b6006546001600160a01b03163314620001b35760405162461bcd60e51b815260206004820181905260248201527f4f776e61626c653a2063616c6c6572206973206e6f7420746865206f776e657260448201526064015b60405180910390fd5b6001600160a01b0381166200021a5760405162461bcd60e51b815260206004820152602660248201527f4f776e61626c653a206e6577206f776e657220697320746865207a65726f206160448201526564647265737360d01b6064820152608401620001aa565b620002258162000101565b50565b8280546200023690620002fe565b90600052602060002090601f0160209004810192826200025a5760008555620002a5565b82601f106200027557805160ff1916838001178555620002a5565b82800160010185558215620002a5579182015b82811115620002a557825182559160200191906001019062000288565b50620002b3929150620002b7565b5090565b5b80821115620002b35760008155600101620002b8565b600060208284031215620002e0578081fd5b81516001600160a01b0381168114620002f7578182fd5b9392505050565b600181811c908216806200031357607f821691505b602082108114156200033557634e487b7160e01b600052602260045260246000fd5b50919050565b611b3f806200034b6000396000f3fe608060405234801561001057600080fd5b506004361061014d5760003560e01c806370a08231116100c3578063a22cb4651161007c578063a22cb465146102cc578063b88d4fde146102df578063c87b56dd146102f2578063e8f830cb14610305578063e985e9c514610318578063f2fde38b1461035457600080fd5b806370a0823114610265578063715018a61461027857806375549979146102805780638da5cb5b1461029357806395402960146102a457806395d89b41146102c457600080fd5b806323b872dd1161011557806323b872dd146101e657806342842e0e146101f9578063494919871461020c5780634f558e791461022c57806355f804b31461023f5780636352211e1461025257600080fd5b806301ffc9a71461015257806306661abd1461017a57806306fdde0314610191578063081812fc146101a6578063095ea7b3146101d1575b600080fd5b610165610160366004611785565b610367565b60405190151581526020015b60405180910390f35b61018360085481565b604051908152602001610171565b6101996103b9565b60405161017191906118d8565b6101b96101b436600461176d565b61044b565b6040516001600160a01b039091168152602001610171565b6101e46101df366004611742565b6104e5565b005b6101e46101f4366004611613565b6105fb565b6101e4610207366004611613565b61062c565b61018361021a36600461176d565b60096020526000908152604090205481565b61016561023a36600461176d565b610647565b6101e461024d3660046117d9565b610666565b6101b961026036600461176d565b6106de565b6101836102733660046115bf565b610755565b6101e46107dc565b6101e461028e36600461181f565b610812565b6006546001600160a01b03166101b9565b6101836102b236600461176d565b600a6020526000908152604090205481565b610199610903565b6101e46102da3660046116d0565b610912565b6101e46102ed366004611653565b610921565b61019961030036600461176d565b610959565b610183610313366004611701565b610a34565b6101656103263660046115db565b6001600160a01b03918216600090815260056020908152604080832093909416825291909152205460ff1690565b6101e46103623660046115bf565b610c03565b60006001600160e01b031982166380ac58cd60e01b148061039857506001600160e01b03198216635b5e139f60e01b145b806103b357506301ffc9a760e01b6001600160e01b03198316145b92915050565b6060600080546103c890611a32565b80601f01602080910402602001604051908101604052809291908181526020018280546103f490611a32565b80156104415780601f1061041657610100808354040283529160200191610441565b820191906000526020600020905b81548152906001019060200180831161042457829003601f168201915b5050505050905090565b6000818152600260205260408120546001600160a01b03166104c95760405162461bcd60e51b815260206004820152602c60248201527f4552433732313a20617070726f76656420717565727920666f72206e6f6e657860448201526b34b9ba32b73a103a37b5b2b760a11b60648201526084015b60405180910390fd5b506000908152600460205260409020546001600160a01b031690565b60006104f0826106de565b9050806001600160a01b0316836001600160a01b0316141561055e5760405162461bcd60e51b815260206004820152602160248201527f4552433732313a20617070726f76616c20746f2063757272656e74206f776e656044820152603960f91b60648201526084016104c0565b336001600160a01b038216148061057a575061057a8133610326565b6105ec5760405162461bcd60e51b815260206004820152603860248201527f4552433732313a20617070726f76652063616c6c6572206973206e6f74206f7760448201527f6e6572206e6f7220617070726f76656420666f7220616c6c000000000000000060648201526084016104c0565b6105f68383610c9e565b505050565b6106053382610d0c565b6106215760405162461bcd60e51b81526004016104c090611972565b6105f6838383610e03565b6105f683838360405180602001604052806000815250610921565b6000818152600260205260408120546001600160a01b031615156103b3565b6006546001600160a01b031633146106905760405162461bcd60e51b81526004016104c09061193d565b80516106a39060079060208401906114b0565b507f23c8c9488efebfd474e85a7956de6f39b17c7ab88502d42a623db2d8e382bbaa816040516106d391906118d8565b60405180910390a150565b6000818152600260205260408120546001600160a01b0316806103b35760405162461bcd60e51b815260206004820152602960248201527f4552433732313a206f776e657220717565727920666f72206e6f6e657869737460448201526832b73a103a37b5b2b760b91b60648201526084016104c0565b60006001600160a01b0382166107c05760405162461bcd60e51b815260206004820152602a60248201527f4552433732313a2062616c616e636520717565727920666f7220746865207a65604482015269726f206164647265737360b01b60648201526084016104c0565b506001600160a01b031660009081526003602052604090205490565b6006546001600160a01b031633146108065760405162461bcd60e51b81526004016104c09061193d565b6108106000610f9f565b565b8161081c816106de565b6001600160a01b0316336001600160a01b03161461084d5760405163be24598360e01b815260040160405180910390fd5b8161086b576040516375ebfc4960e01b815260040160405180910390fd5b6000828152600a6020526040902054156108985760405163e2fe07e360e01b815260040160405180910390fd5b600083815260096020818152604080842080548552600a8352818520859055868552818520889055938790529181529184905551338152839185917e079d7af084def275bc880ac88a2e556cf9a2001231b27a71d0082607876ac591015b60405180910390a3505050565b6060600180546103c890611a32565b61091d338383610ff1565b5050565b61092b3383610d0c565b6109475760405162461bcd60e51b81526004016104c090611972565b610953848484846110b8565b50505050565b6000818152600260205260409020546060906001600160a01b03166109d85760405162461bcd60e51b815260206004820152602f60248201527f4552433732314d657461646174613a2055524920717565727920666f72206e6f60448201526e3732bc34b9ba32b73a103a37b5b2b760891b60648201526084016104c0565b60006109e26110eb565b90506000815111610a025760405180602001604052806000815250610a2d565b80610a0c846110fa565b604051602001610a1d92919061186c565b6040516020818303038152906040525b9392505050565b600082610a54576040516375ebfc4960e01b815260040160405180910390fd5b6000838152600a602052604090205415610a815760405163e2fe07e360e01b815260040160405180910390fd5b60088054906000610a9183611a6d565b9190505550610aa284600854611214565b6008805460009081526009602090815260408083208790559254868352600a909152919020556001600160a01b03821615610bb157816001600160a01b0316636abcf8e36040518163ffffffff1660e01b815260040160206040518083038186803b158015610b1057600080fd5b505afa158015610b24573d6000803e3d6000fd5b505050506040513d601f19601f82011682018060405250810190610b4891906117bd565b600854604051639fc9ea4760e01b815260048101919091526001600160a01b0384811660248301529190911690639fc9ea4790604401600060405180830381600087803b158015610b9857600080fd5b505af1158015610bac573d6000803e3d6000fd5b505050505b600854604080518581523360208201526001600160a01b03871692917f9fb90b5b0dce30ba7ab26100976710804da1a6dd42aa62c16dceea90ad88f914910160405180910390a3506008549392505050565b6006546001600160a01b03163314610c2d5760405162461bcd60e51b81526004016104c09061193d565b6001600160a01b038116610c925760405162461bcd60e51b815260206004820152602660248201527f4f776e61626c653a206e6577206f776e657220697320746865207a65726f206160448201526564647265737360d01b60648201526084016104c0565b610c9b81610f9f565b50565b600081815260046020526040902080546001600160a01b0319166001600160a01b0384169081179091558190610cd3826106de565b6001600160a01b03167f8c5be1e5ebec7d5bd14f71427d1e84f3dd0314c0f7b2291e5b200ac8c7c3b92560405160405180910390a45050565b6000818152600260205260408120546001600160a01b0316610d855760405162461bcd60e51b815260206004820152602c60248201527f4552433732313a206f70657261746f7220717565727920666f72206e6f6e657860448201526b34b9ba32b73a103a37b5b2b760a11b60648201526084016104c0565b6000610d90836106de565b9050806001600160a01b0316846001600160a01b03161480610dcb5750836001600160a01b0316610dc08461044b565b6001600160a01b0316145b80610dfb57506001600160a01b0380821660009081526005602090815260408083209388168352929052205460ff165b949350505050565b826001600160a01b0316610e16826106de565b6001600160a01b031614610e7a5760405162461bcd60e51b815260206004820152602560248201527f4552433732313a207472616e736665722066726f6d20696e636f72726563742060448201526437bbb732b960d91b60648201526084016104c0565b6001600160a01b038216610edc5760405162461bcd60e51b8152602060048201526024808201527f4552433732313a207472616e7366657220746f20746865207a65726f206164646044820152637265737360e01b60648201526084016104c0565b610ee7600082610c9e565b6001600160a01b0383166000908152600360205260408120805460019290610f109084906119ef565b90915550506001600160a01b0382166000908152600360205260408120805460019290610f3e9084906119c3565b909155505060008181526002602052604080822080546001600160a01b0319166001600160a01b0386811691821790925591518493918716917fddf252ad1be2c89b69c2b068fc378daa952ba7f163c4a11628f55a4df523b3ef91a4505050565b600680546001600160a01b038381166001600160a01b0319831681179093556040519116919082907f8be0079c531659141344cd1fd0a4f28419497f9722a3daafe3b4186f6b6457e090600090a35050565b816001600160a01b0316836001600160a01b031614156110535760405162461bcd60e51b815260206004820152601960248201527f4552433732313a20617070726f766520746f2063616c6c65720000000000000060448201526064016104c0565b6001600160a01b03838116600081815260056020908152604080832094871680845294825291829020805460ff191686151590811790915591519182527f17307eab39ab6107e8899845ad3d59bd9653f200f220920489ca2b5937696c3191016108f6565b6110c3848484610e03565b6110cf8484848461122e565b6109535760405162461bcd60e51b81526004016104c0906118eb565b6060600780546103c890611a32565b60608161111e5750506040805180820190915260018152600360fc1b602082015290565b8160005b8115611148578061113281611a6d565b91506111419050600a836119db565b9150611122565b60008167ffffffffffffffff81111561117157634e487b7160e01b600052604160045260246000fd5b6040519080825280601f01601f19166020018201604052801561119b576020820181803683370190505b5090505b8415610dfb576111b06001836119ef565b91506111bd600a86611a88565b6111c89060306119c3565b60f81b8183815181106111eb57634e487b7160e01b600052603260045260246000fd5b60200101906001600160f81b031916908160001a90535061120d600a866119db565b945061119f565b61091d82826040518060200160405280600081525061133b565b60006001600160a01b0384163b1561133057604051630a85bd0160e11b81526001600160a01b0385169063150b7a029061127290339089908890889060040161189b565b602060405180830381600087803b15801561128c57600080fd5b505af19250505080156112bc575060408051601f3d908101601f191682019092526112b9918101906117a1565b60015b611316573d8080156112ea576040519150601f19603f3d011682016040523d82523d6000602084013e6112ef565b606091505b50805161130e5760405162461bcd60e51b81526004016104c0906118eb565b805181602001fd5b6001600160e01b031916630a85bd0160e11b149050610dfb565b506001949350505050565b611345838361136e565b611352600084848461122e565b6105f65760405162461bcd60e51b81526004016104c0906118eb565b6001600160a01b0382166113c45760405162461bcd60e51b815260206004820181905260248201527f4552433732313a206d696e7420746f20746865207a65726f206164647265737360448201526064016104c0565b6000818152600260205260409020546001600160a01b0316156114295760405162461bcd60e51b815260206004820152601c60248201527f4552433732313a20746f6b656e20616c7265616479206d696e7465640000000060448201526064016104c0565b6001600160a01b03821660009081526003602052604081208054600192906114529084906119c3565b909155505060008181526002602052604080822080546001600160a01b0319166001600160a01b03861690811790915590518392907fddf252ad1be2c89b69c2b068fc378daa952ba7f163c4a11628f55a4df523b3ef908290a45050565b8280546114bc90611a32565b90600052602060002090601f0160209004810192826114de5760008555611524565b82601f106114f757805160ff1916838001178555611524565b82800160010185558215611524579182015b82811115611524578251825591602001919060010190611509565b50611530929150611534565b5090565b5b808211156115305760008155600101611535565b600067ffffffffffffffff8084111561156457611564611ac8565b604051601f8501601f19908116603f0116810190828211818310171561158c5761158c611ac8565b816040528093508581528686860111156115a557600080fd5b858560208301376000602087830101525050509392505050565b6000602082840312156115d0578081fd5b8135610a2d81611ade565b600080604083850312156115ed578081fd5b82356115f881611ade565b9150602083013561160881611ade565b809150509250929050565b600080600060608486031215611627578081fd5b833561163281611ade565b9250602084013561164281611ade565b929592945050506040919091013590565b60008060008060808587031215611668578081fd5b843561167381611ade565b9350602085013561168381611ade565b925060408501359150606085013567ffffffffffffffff8111156116a5578182fd5b8501601f810187136116b5578182fd5b6116c487823560208401611549565b91505092959194509250565b600080604083850312156116e2578182fd5b82356116ed81611ade565b915060208301358015158114611608578182fd5b600080600060608486031215611715578283fd5b833561172081611ade565b925060208401359150604084013561173781611ade565b809150509250925092565b60008060408385031215611754578182fd5b823561175f81611ade565b946020939093013593505050565b60006020828403121561177e578081fd5b5035919050565b600060208284031215611796578081fd5b8135610a2d81611af3565b6000602082840312156117b2578081fd5b8151610a2d81611af3565b6000602082840312156117ce578081fd5b8151610a2d81611ade565b6000602082840312156117ea578081fd5b813567ffffffffffffffff811115611800578182fd5b8201601f81018413611810578182fd5b610dfb84823560208401611549565b60008060408385031215611831578182fd5b50508035926020909101359150565b60008151808452611858816020860160208601611a06565b601f01601f19169290920160200192915050565b6000835161187e818460208801611a06565b835190830190611892818360208801611a06565b01949350505050565b6001600160a01b03858116825284166020820152604081018390526080606082018190526000906118ce90830184611840565b9695505050505050565b602081526000610a2d6020830184611840565b60208082526032908201527f4552433732313a207472616e7366657220746f206e6f6e20455243373231526560408201527131b2b4bb32b91034b6b83632b6b2b73a32b960711b606082015260800190565b6020808252818101527f4f776e61626c653a2063616c6c6572206973206e6f7420746865206f776e6572604082015260600190565b60208082526031908201527f4552433732313a207472616e736665722063616c6c6572206973206e6f74206f6040820152701ddb995c881b9bdc88185c1c1c9bdd9959607a1b606082015260800190565b600082198211156119d6576119d6611a9c565b500190565b6000826119ea576119ea611ab2565b500490565b600082821015611a0157611a01611a9c565b500390565b60005b83811015611a21578181015183820152602001611a09565b838111156109535750506000910152565b600181811c90821680611a4657607f821691505b60208210811415611a6757634e487b7160e01b600052602260045260246000fd5b50919050565b6000600019821415611a8157611a81611a9c565b5060010190565b600082611a9757611a97611ab2565b500690565b634e487b7160e01b600052601160045260246000fd5b634e487b7160e01b600052601260045260246000fd5b634e487b7160e01b600052604160045260246000fd5b6001600160a01b0381168114610c9b57600080fd5b6001600160e01b031981168114610c9b57600080fdfea2646970667358221220ff6aef712aff47136dca8c0f655f756722bf77893eb98b719e0f24a40af5b97764736f6c63430008040033",
  "devdoc": {
    "kind": "dev",
    "methods": {
      "approve(address,uint256)": {
        "details": "See {IERC721-approve}."
      },
      "balanceOf(address)": {
        "details": "See {IERC721-balanceOf}."
      },
      "create(address,bytes32,address)": {
        "params": {
          "_handle": "A unique handle for the project",
          "_owner": "The owner of the project",
          "_terminal": "The terminal to set for this project"
        }
      },
      "exists(uint256)": {
        "params": {
          "_projectId": "The project to check the existence of"
        },
        "returns": {
          "_0": "A flag indicating if the project exists"
        }
      },
      "getApproved(uint256)": {
        "details": "See {IERC721-getApproved}."
      },
      "isApprovedForAll(address,address)": {
        "details": "See {IERC721-isApprovedForAll}."
      },
      "name()": {
        "details": "See {IERC721Metadata-name}."
      },
      "owner()": {
        "details": "Returns the address of the current owner."
      },
      "ownerOf(uint256)": {
        "details": "See {IERC721-ownerOf}."
      },
      "renounceOwnership()": {
        "details": "Leaves the contract without owner. It will not be possible to call `onlyOwner` functions anymore. Can only be called by the current owner. NOTE: Renouncing ownership will leave the contract without an owner, thereby removing any functionality that is only available to the owner."
      },
      "safeTransferFrom(address,address,uint256)": {
        "details": "See {IERC721-safeTransferFrom}."
      },
      "safeTransferFrom(address,address,uint256,bytes)": {
        "details": "See {IERC721-safeTransferFrom}."
      },
      "setApprovalForAll(address,bool)": {
        "details": "See {IERC721-setApprovalForAll}."
      },
      "setHandle(uint256,bytes32)": {
        "details": "Only a project's owner or operator can set its handle",
        "params": {
          "_handle": "The new unique handle for the project",
          "_projectId": "The ID of the project"
        }
      },
      "supportsInterface(bytes4)": {
        "details": "See {IERC165-supportsInterface}."
      },
      "symbol()": {
        "details": "See {IERC721Metadata-symbol}."
      },
      "tokenURI(uint256)": {
        "details": "See {IERC721Metadata-tokenURI}."
      },
      "transferFrom(address,address,uint256)": {
        "details": "See {IERC721-transferFrom}."
      },
      "transferOwnership(address)": {
        "details": "Transfers ownership of the contract to a new account (`newOwner`). Can only be called by the current owner."
      }
    },
    "version": 1
  },
  "userdoc": {
    "kind": "user",
    "methods": {
      "create(address,bytes32,address)": {
        "notice": "Create a new project"
      },
      "exists(uint256)": {
        "notice": "Whether the specified project exists"
      },
      "setHandle(uint256,bytes32)": {
        "notice": "Allows a project owner to set the project's handle"
      }
    },
    "notice": "Each DAO has one owner who is the owner of this ERC721.",
    "version": 1
  },
  "storageLayout": {
    "storage": [
      {
        "astId": 2551,
        "contract": "contracts/Projects.sol:Projects",
        "label": "_name",
        "offset": 0,
        "slot": "0",
        "type": "t_string_storage"
      },
      {
        "astId": 2553,
        "contract": "contracts/Projects.sol:Projects",
        "label": "_symbol",
        "offset": 0,
        "slot": "1",
        "type": "t_string_storage"
      },
      {
        "astId": 2557,
        "contract": "contracts/Projects.sol:Projects",
        "label": "_owners",
        "offset": 0,
        "slot": "2",
        "type": "t_mapping(t_uint256,t_address)"
      },
      {
        "astId": 2561,
        "contract": "contracts/Projects.sol:Projects",
        "label": "_balances",
        "offset": 0,
        "slot": "3",
        "type": "t_mapping(t_address,t_uint256)"
      },
      {
        "astId": 2565,
        "contract": "contracts/Projects.sol:Projects",
        "label": "_tokenApprovals",
        "offset": 0,
        "slot": "4",
        "type": "t_mapping(t_uint256,t_address)"
      },
      {
        "astId": 2571,
        "contract": "contracts/Projects.sol:Projects",
        "label": "_operatorApprovals",
        "offset": 0,
        "slot": "5",
        "type": "t_mapping(t_address,t_mapping(t_address,t_bool))"
      },
      {
        "astId": 915,
        "contract": "contracts/Projects.sol:Projects",
        "label": "_owner",
        "offset": 0,
        "slot": "6",
        "type": "t_address"
      },
      {
        "astId": 13027,
        "contract": "contracts/Projects.sol:Projects",
        "label": "_baseURIextended",
        "offset": 0,
        "slot": "7",
        "type": "t_string_storage"
      },
      {
        "astId": 13030,
        "contract": "contracts/Projects.sol:Projects",
        "label": "count",
        "offset": 0,
        "slot": "8",
        "type": "t_uint256"
      },
      {
        "astId": 13035,
        "contract": "contracts/Projects.sol:Projects",
        "label": "handleOf",
        "offset": 0,
        "slot": "9",
        "type": "t_mapping(t_uint256,t_bytes32)"
      },
      {
        "astId": 13040,
        "contract": "contracts/Projects.sol:Projects",
        "label": "projectFor",
        "offset": 0,
        "slot": "10",
        "type": "t_mapping(t_bytes32,t_uint256)"
      }
    ],
    "types": {
      "t_address": {
        "encoding": "inplace",
        "label": "address",
        "numberOfBytes": "20"
      },
      "t_bool": {
        "encoding": "inplace",
        "label": "bool",
        "numberOfBytes": "1"
      },
      "t_bytes32": {
        "encoding": "inplace",
        "label": "bytes32",
        "numberOfBytes": "32"
      },
      "t_mapping(t_address,t_bool)": {
        "encoding": "mapping",
        "key": "t_address",
        "label": "mapping(address => bool)",
        "numberOfBytes": "32",
        "value": "t_bool"
      },
      "t_mapping(t_address,t_mapping(t_address,t_bool))": {
        "encoding": "mapping",
        "key": "t_address",
        "label": "mapping(address => mapping(address => bool))",
        "numberOfBytes": "32",
        "value": "t_mapping(t_address,t_bool)"
      },
      "t_mapping(t_address,t_uint256)": {
        "encoding": "mapping",
        "key": "t_address",
        "label": "mapping(address => uint256)",
        "numberOfBytes": "32",
        "value": "t_uint256"
      },
      "t_mapping(t_bytes32,t_uint256)": {
        "encoding": "mapping",
        "key": "t_bytes32",
        "label": "mapping(bytes32 => uint256)",
        "numberOfBytes": "32",
        "value": "t_uint256"
      },
      "t_mapping(t_uint256,t_address)": {
        "encoding": "mapping",
        "key": "t_uint256",
        "label": "mapping(uint256 => address)",
        "numberOfBytes": "32",
        "value": "t_address"
      },
      "t_mapping(t_uint256,t_bytes32)": {
        "encoding": "mapping",
        "key": "t_uint256",
        "label": "mapping(uint256 => bytes32)",
        "numberOfBytes": "32",
        "value": "t_bytes32"
      },
      "t_string_storage": {
        "encoding": "bytes",
        "label": "string",
        "numberOfBytes": "32"
      },
      "t_uint256": {
        "encoding": "inplace",
        "label": "uint256",
        "numberOfBytes": "32"
      }
    }
  }
}