{
  "address": "0x7d004CA6656961C383493E0b5730d26C9BaE8319",
  "abi": [
    {
      "inputs": [],
      "name": "AlreadyClaimed",
      "type": "error"
    },
    {
      "inputs": [],
      "name": "BadAmount",
      "type": "error"
    },
    {
      "inputs": [],
      "name": "BadLockRate",
      "type": "error"
    },
    {
      "inputs": [],
      "name": "BadOperationPeriod",
      "type": "error"
    },
    {
      "inputs": [],
      "name": "BadPayment",
      "type": "error"
    },
    {
      "inputs": [],
      "name": "BadTapFee",
      "type": "error"
    },
    {
      "inputs": [],
      "name": "FundingCycleActived",
      "type": "error"
    },
    {
      "inputs": [],
      "name": "FundingCycleNotExist",
      "type": "error"
    },
    {
      "inputs": [],
      "name": "FundingCyclePaused",
      "type": "error"
    },
    {
      "inputs": [],
      "name": "InsufficientBalance",
      "type": "error"
    },
    {
      "inputs": [],
      "name": "LastWeightMustBe1",
      "type": "error"
    },
    {
      "inputs": [],
      "name": "NoCommunityTicketLeft",
      "type": "error"
    },
    {
      "inputs": [],
      "name": "OnlyGovernor",
      "type": "error"
    },
    {
      "inputs": [
        {
          "internalType": "uint256",
          "name": "prod1",
          "type": "uint256"
        },
        {
          "internalType": "uint256",
          "name": "denominator",
          "type": "uint256"
        }
      ],
      "name": "PRBMath__MulDivOverflow",
      "type": "error"
    },
    {
      "inputs": [],
      "name": "UnAuthorized",
      "type": "error"
    },
    {
      "inputs": [
        {
          "internalType": "address",
          "name": "_voucher",
          "type": "address"
        }
      ],
      "name": "Voucher721",
      "type": "error"
    },
    {
      "inputs": [],
      "name": "ZeroAddress",
      "type": "error"
    },
    {
      "anonymous": false,
      "inputs": [
        {
          "indexed": true,
          "internalType": "uint256",
          "name": "projectId",
          "type": "uint256"
        },
        {
          "indexed": false,
          "internalType": "uint256",
          "name": "amount",
          "type": "uint256"
        },
        {
          "indexed": false,
          "internalType": "address",
          "name": "beneficiary",
          "type": "address"
        }
      ],
      "name": "AddToBalance",
      "type": "event"
    },
    {
      "anonymous": false,
      "inputs": [
        {
          "indexed": true,
          "internalType": "uint256",
          "name": "projectId",
          "type": "uint256"
        },
        {
          "indexed": true,
          "internalType": "uint256",
          "name": "fundingCycleId",
          "type": "uint256"
        },
        {
          "indexed": true,
          "internalType": "address",
          "name": "beneficiary",
          "type": "address"
        },
        {
          "indexed": false,
          "internalType": "uint256[]",
          "name": "tierIds",
          "type": "uint256[]"
        },
        {
          "indexed": false,
          "internalType": "uint256[]",
          "name": "amounts",
          "type": "uint256[]"
        },
        {
          "indexed": false,
          "internalType": "string",
          "name": "note",
          "type": "string"
        }
      ],
      "name": "Airdrop",
      "type": "event"
    },
    {
      "anonymous": false,
      "inputs": [
        {
          "indexed": true,
          "internalType": "uint256",
          "name": "projectId",
          "type": "uint256"
        },
        {
          "indexed": true,
          "internalType": "uint256",
          "name": "fundingCycleId",
          "type": "uint256"
        },
        {
          "indexed": true,
          "internalType": "address",
          "name": "beneficiary",
          "type": "address"
        },
        {
          "indexed": false,
          "internalType": "uint256",
          "name": "refundAmount",
          "type": "uint256"
        },
        {
          "indexed": false,
          "internalType": "uint256[]",
          "name": "offeringAmounts",
          "type": "uint256[]"
        }
      ],
      "name": "Claim",
      "type": "event"
    },
    {
      "anonymous": false,
      "inputs": [
        {
          "indexed": true,
          "internalType": "uint256",
          "name": "projectId",
          "type": "uint256"
        },
        {
          "indexed": true,
          "internalType": "uint256",
          "name": "fundingCycleId",
          "type": "uint256"
        },
        {
          "components": [
            {
              "internalType": "uint16",
              "name": "percent",
              "type": "uint16"
            },
            {
              "internalType": "address payable",
              "name": "beneficiary",
              "type": "address"
            }
          ],
          "indexed": false,
          "internalType": "struct PayoutMod",
          "name": "mod",
          "type": "tuple"
        },
        {
          "indexed": false,
          "internalType": "uint256",
          "name": "amount",
          "type": "uint256"
        },
        {
          "indexed": false,
          "internalType": "address",
          "name": "receiver",
          "type": "address"
        }
      ],
      "name": "DistributeToPayoutMod",
      "type": "event"
    },
    {
      "anonymous": false,
      "inputs": [
        {
          "indexed": true,
          "internalType": "uint256",
          "name": "projectId",
          "type": "uint256"
        },
        {
          "indexed": true,
          "internalType": "uint256",
          "name": "fundingCycleId",
          "type": "uint256"
        },
        {
          "indexed": true,
          "internalType": "address",
          "name": "beneficiary",
          "type": "address"
        },
        {
          "indexed": false,
          "internalType": "uint256",
          "name": "amount",
          "type": "uint256"
        },
        {
          "indexed": false,
          "internalType": "uint256[]",
          "name": "tiers",
          "type": "uint256[]"
        },
        {
          "indexed": false,
          "internalType": "uint256[]",
          "name": "amounts",
          "type": "uint256[]"
        },
        {
          "indexed": false,
          "internalType": "string",
          "name": "note",
          "type": "string"
        }
      ],
      "name": "Pay",
      "type": "event"
    },
    {
      "anonymous": false,
      "inputs": [
        {
          "indexed": false,
          "internalType": "uint256",
          "name": "fee",
          "type": "uint256"
        }
      ],
      "name": "SetContributeFee",
      "type": "event"
    },
    {
      "anonymous": false,
      "inputs": [
        {
          "indexed": false,
          "internalType": "uint256",
          "name": "minLockRate",
          "type": "uint256"
        }
      ],
      "name": "SetMinLockRate",
      "type": "event"
    },
    {
      "anonymous": false,
      "inputs": [
        {
          "indexed": false,
          "internalType": "uint256",
          "name": "fee",
          "type": "uint256"
        }
      ],
      "name": "SetTapFee",
      "type": "event"
    },
    {
      "anonymous": false,
      "inputs": [
        {
          "indexed": true,
          "internalType": "uint256",
          "name": "projectId",
          "type": "uint256"
        },
        {
          "indexed": true,
          "internalType": "uint256",
          "name": "fundingCycleId",
          "type": "uint256"
        },
        {
          "indexed": true,
          "internalType": "address",
          "name": "beneficiary",
          "type": "address"
        },
        {
          "indexed": false,
          "internalType": "uint256",
          "name": "govFeeAmount",
          "type": "uint256"
        },
        {
          "indexed": false,
          "internalType": "uint256",
          "name": "netTransferAmount",
          "type": "uint256"
        }
      ],
      "name": "Tap",
      "type": "event"
    },
    {
      "anonymous": false,
      "inputs": [
        {
          "indexed": true,
          "internalType": "uint256",
          "name": "projectId",
          "type": "uint256"
        },
        {
          "indexed": false,
          "internalType": "uint256",
          "name": "unlockAmount",
          "type": "uint256"
        }
      ],
      "name": "UnlockTreasury",
      "type": "event"
    },
    {
      "inputs": [
        {
          "internalType": "uint256",
          "name": "_projectId",
          "type": "uint256"
        }
      ],
      "name": "addToBalance",
      "outputs": [],
      "stateMutability": "payable",
      "type": "function"
    },
    {
      "inputs": [
        {
          "internalType": "uint256",
          "name": "",
          "type": "uint256"
        }
      ],
      "name": "balanceOf",
      "outputs": [
        {
          "internalType": "uint256",
          "name": "",
          "type": "uint256"
        }
      ],
      "stateMutability": "view",
      "type": "function"
    },
    {
      "inputs": [],
      "name": "bluechipsBooster",
      "outputs": [
        {
          "internalType": "contract IBluechipsBooster",
          "name": "",
          "type": "address"
        }
      ],
      "stateMutability": "view",
      "type": "function"
    },
    {
      "inputs": [
        {
          "internalType": "uint256",
          "name": "_projectId",
          "type": "uint256"
        },
        {
          "internalType": "uint256",
          "name": "_fundingCycleId",
          "type": "uint256"
        }
      ],
      "name": "claimPassOrRefund",
      "outputs": [],
      "stateMutability": "nonpayable",
      "type": "function"
    },
    {
      "inputs": [
        {
          "internalType": "uint256",
          "name": "_projectId",
          "type": "uint256"
        },
        {
          "internalType": "uint256",
          "name": "_fundingCycleId",
          "type": "uint256"
        },
        {
          "internalType": "string",
          "name": "_memo",
          "type": "string"
        }
      ],
      "name": "communityContribute",
      "outputs": [],
      "stateMutability": "nonpayable",
      "type": "function"
    },
    {
      "inputs": [
        {
          "internalType": "uint256",
          "name": "_projectId",
          "type": "uint256"
        },
        {
          "internalType": "uint256[]",
          "name": "_tiers",
          "type": "uint256[]"
        },
        {
          "internalType": "uint256[]",
          "name": "_amounts",
          "type": "uint256[]"
        },
        {
          "internalType": "string",
          "name": "_memo",
          "type": "string"
        }
      ],
      "name": "contribute",
      "outputs": [],
      "stateMutability": "payable",
      "type": "function"
    },
    {
      "inputs": [],
      "name": "contributeFee",
      "outputs": [
        {
          "internalType": "uint256",
          "name": "",
          "type": "uint256"
        }
      ],
      "stateMutability": "view",
      "type": "function"
    },
    {
      "inputs": [
        {
          "components": [
            {
              "internalType": "bytes32",
              "name": "handle",
              "type": "bytes32"
            },
            {
              "internalType": "address[]",
              "name": "customBoosters",
              "type": "address[]"
            },
            {
              "internalType": "uint16[]",
              "name": "boosterMultipliers",
              "type": "uint16[]"
            }
          ],
          "internalType": "struct Metadata",
          "name": "_metadata",
          "type": "tuple"
        },
        {
          "components": [
            {
              "internalType": "uint256",
              "name": "tierFee",
              "type": "uint256"
            },
            {
              "internalType": "uint256",
              "name": "multiplier",
              "type": "uint256"
            },
            {
              "internalType": "uint256",
              "name": "tierCapacity",
              "type": "uint256"
            }
          ],
          "internalType": "struct ImmutablePassTier[]",
          "name": "_tiers",
          "type": "tuple[]"
        },
        {
          "components": [
            {
              "internalType": "uint16",
              "name": "lockRate",
              "type": "uint16"
            },
            {
              "internalType": "uint16",
              "name": "duration",
              "type": "uint16"
            },
            {
              "internalType": "uint256",
              "name": "cycleLimit",
              "type": "uint256"
            },
            {
              "internalType": "uint256",
              "name": "target",
              "type": "uint256"
            }
          ],
          "internalType": "struct FundingCycleParameter",
          "name": "_params",
          "type": "tuple"
        },
        {
          "components": [
            {
              "internalType": "uint256",
              "name": "id",
              "type": "uint256"
            },
            {
              "internalType": "uint256",
              "name": "salePrice",
              "type": "uint256"
            },
            {
              "internalType": "uint256",
              "name": "saleAmount",
              "type": "uint256"
            },
            {
              "internalType": "uint256",
              "name": "communityAmount",
              "type": "uint256"
            },
            {
              "internalType": "address",
              "name": "communityVoucher",
              "type": "address"
            },
            {
              "internalType": "uint256",
              "name": "reservedAmount",
              "type": "uint256"
            }
          ],
          "internalType": "struct AuctionedPass[]",
          "name": "_auctionedPass",
          "type": "tuple[]"
        },
        {
          "components": [
            {
              "internalType": "uint16",
              "name": "percent",
              "type": "uint16"
            },
            {
              "internalType": "address payable",
              "name": "beneficiary",
              "type": "address"
            }
          ],
          "internalType": "struct PayoutMod[]",
          "name": "_payoutMods",
          "type": "tuple[]"
        }
      ],
      "name": "createDao",
      "outputs": [],
      "stateMutability": "nonpayable",
      "type": "function"
    },
    {
      "inputs": [
        {
          "internalType": "uint256",
          "name": "_projectId",
          "type": "uint256"
        },
        {
          "components": [
            {
              "internalType": "uint16",
              "name": "lockRate",
              "type": "uint16"
            },
            {
              "internalType": "uint16",
              "name": "duration",
              "type": "uint16"
            },
            {
              "internalType": "uint256",
              "name": "cycleLimit",
              "type": "uint256"
            },
            {
              "internalType": "uint256",
              "name": "target",
              "type": "uint256"
            }
          ],
          "internalType": "struct FundingCycleParameter",
          "name": "_params",
          "type": "tuple"
        },
        {
          "components": [
            {
              "internalType": "uint256",
              "name": "id",
              "type": "uint256"
            },
            {
              "internalType": "uint256",
              "name": "salePrice",
              "type": "uint256"
            },
            {
              "internalType": "uint256",
              "name": "saleAmount",
              "type": "uint256"
            },
            {
              "internalType": "uint256",
              "name": "communityAmount",
              "type": "uint256"
            },
            {
              "internalType": "address",
              "name": "communityVoucher",
              "type": "address"
            },
            {
              "internalType": "uint256",
              "name": "reservedAmount",
              "type": "uint256"
            }
          ],
          "internalType": "struct AuctionedPass[]",
          "name": "_auctionedPass",
          "type": "tuple[]"
        },
        {
          "components": [
            {
              "internalType": "uint16",
              "name": "percent",
              "type": "uint16"
            },
            {
              "internalType": "address payable",
              "name": "beneficiary",
              "type": "address"
            }
          ],
          "internalType": "struct PayoutMod[]",
          "name": "_payoutMods",
          "type": "tuple[]"
        }
      ],
      "name": "createNewFundingCycle",
      "outputs": [],
      "stateMutability": "nonpayable",
      "type": "function"
    },
    {
      "inputs": [],
      "name": "daoGovernorBooster",
      "outputs": [
        {
          "internalType": "contract IDAOGovernorBooster",
          "name": "",
          "type": "address"
        }
      ],
      "stateMutability": "view",
      "type": "function"
    },
    {
      "inputs": [],
      "name": "devTreasury",
      "outputs": [
        {
          "internalType": "address",
          "name": "",
          "type": "address"
        }
      ],
      "stateMutability": "view",
      "type": "function"
    },
    {
      "inputs": [],
      "name": "fundingCycles",
      "outputs": [
        {
          "internalType": "contract IFundingCycles",
          "name": "",
          "type": "address"
        }
      ],
      "stateMutability": "view",
      "type": "function"
    },
    {
      "inputs": [
        {
          "internalType": "uint256",
          "name": "_projectId",
          "type": "uint256"
        },
        {
          "internalType": "uint256",
          "name": "_fundingCycleId",
          "type": "uint256"
        },
        {
          "internalType": "uint256[]",
          "name": "_payData",
          "type": "uint256[]"
        }
      ],
      "name": "getEstimatingAmount",
      "outputs": [
        {
          "internalType": "uint256[]",
          "name": "amounts",
          "type": "uint256[]"
        },
        {
          "internalType": "uint256[]",
          "name": "allocations",
          "type": "uint256[]"
        }
      ],
      "stateMutability": "view",
      "type": "function"
    },
    {
      "inputs": [
        {
          "internalType": "address",
          "name": "_from",
          "type": "address"
        },
        {
          "internalType": "uint256",
          "name": "_projectId",
          "type": "uint256"
        },
        {
          "internalType": "uint256",
          "name": "_fundingCycleId",
          "type": "uint256"
        }
      ],
      "name": "getOfferingAmount",
      "outputs": [
        {
          "internalType": "uint256[]",
          "name": "amounts",
          "type": "uint256[]"
        },
        {
          "internalType": "uint256[]",
          "name": "allocations",
          "type": "uint256[]"
        }
      ],
      "stateMutability": "view",
      "type": "function"
    },
    {
      "inputs": [
        {
          "internalType": "address",
          "name": "_from",
          "type": "address"
        },
        {
          "internalType": "uint256",
          "name": "_projectId",
          "type": "uint256"
        },
        {
          "internalType": "uint256",
          "name": "_fundingCycleId",
          "type": "uint256"
        }
      ],
      "name": "getRefundingAmount",
      "outputs": [
        {
          "internalType": "uint256",
          "name": "amount",
          "type": "uint256"
        }
      ],
      "stateMutability": "view",
      "type": "function"
    },
    {
      "inputs": [
        {
          "internalType": "uint256",
          "name": "_fundingCycleId",
          "type": "uint256"
        }
      ],
      "name": "getUnSoldTickets",
      "outputs": [
        {
          "internalType": "uint256",
          "name": "",
          "type": "uint256"
        }
      ],
      "stateMutability": "view",
      "type": "function"
    },
    {
      "inputs": [
        {
          "internalType": "contract IProjects",
          "name": "_projects",
          "type": "address"
        },
        {
          "internalType": "contract IFundingCycles",
          "name": "_fundingCycles",
          "type": "address"
        },
        {
          "internalType": "contract IMembershipPassBooth",
          "name": "_passBooth",
          "type": "address"
        },
        {
          "internalType": "contract IDAOGovernorBooster",
          "name": "_governorBooster",
          "type": "address"
        },
        {
          "internalType": "contract ITerminalDirectory",
          "name": "_terminalDirectory",
          "type": "address"
        },
        {
          "internalType": "contract IBluechipsBooster",
          "name": "_bluechipsBooster",
          "type": "address"
        },
        {
          "internalType": "contract IPayoutStore",
          "name": "_payoutStore",
          "type": "address"
        },
        {
          "internalType": "address",
          "name": "_devTreasury",
          "type": "address"
        },
        {
          "internalType": "address",
          "name": "_admin",
          "type": "address"
        }
      ],
      "name": "initialize",
      "outputs": [],
      "stateMutability": "nonpayable",
      "type": "function"
    },
    {
      "inputs": [],
      "name": "membershipPassBooth",
      "outputs": [
        {
          "internalType": "contract IMembershipPassBooth",
          "name": "",
          "type": "address"
        }
      ],
      "stateMutability": "view",
      "type": "function"
    },
    {
      "inputs": [],
      "name": "minLockRate",
      "outputs": [
        {
          "internalType": "uint256",
          "name": "",
          "type": "uint256"
        }
      ],
      "stateMutability": "view",
      "type": "function"
    },
    {
      "inputs": [],
      "name": "payoutStore",
      "outputs": [
        {
          "internalType": "contract IPayoutStore",
          "name": "",
          "type": "address"
        }
      ],
      "stateMutability": "view",
      "type": "function"
    },
    {
      "inputs": [],
      "name": "projects",
      "outputs": [
        {
          "internalType": "contract IProjects",
          "name": "",
          "type": "address"
        }
      ],
      "stateMutability": "view",
      "type": "function"
    },
    {
      "inputs": [
        {
          "internalType": "uint256",
          "name": "_fee",
          "type": "uint256"
        }
      ],
      "name": "setContributeFee",
      "outputs": [],
      "stateMutability": "nonpayable",
      "type": "function"
    },
    {
      "inputs": [
        {
          "internalType": "uint256",
          "name": "_minLockRate",
          "type": "uint256"
        }
      ],
      "name": "setMinLockRate",
      "outputs": [],
      "stateMutability": "nonpayable",
      "type": "function"
    },
    {
      "inputs": [
        {
          "internalType": "uint256",
          "name": "_projectId",
          "type": "uint256"
        },
        {
          "internalType": "bool",
          "name": "_paused",
          "type": "bool"
        }
      ],
      "name": "setPausedFundingCycleProject",
      "outputs": [
        {
          "internalType": "bool",
          "name": "",
          "type": "bool"
        }
      ],
      "stateMutability": "nonpayable",
      "type": "function"
    },
    {
      "inputs": [
        {
          "internalType": "uint256",
          "name": "_fee",
          "type": "uint256"
        }
      ],
      "name": "setTapFee",
      "outputs": [],
      "stateMutability": "nonpayable",
      "type": "function"
    },
    {
      "inputs": [],
      "name": "superAdmin",
      "outputs": [
        {
          "internalType": "address",
          "name": "",
          "type": "address"
        }
      ],
      "stateMutability": "view",
      "type": "function"
    },
    {
      "inputs": [
        {
          "internalType": "uint256",
          "name": "_projectId",
          "type": "uint256"
        },
        {
          "internalType": "uint256",
          "name": "_fundingCycleId",
          "type": "uint256"
        },
        {
          "internalType": "uint256",
          "name": "_amount",
          "type": "uint256"
        }
      ],
      "name": "tap",
      "outputs": [],
      "stateMutability": "nonpayable",
      "type": "function"
    },
    {
      "inputs": [],
      "name": "tapFee",
      "outputs": [
        {
          "internalType": "uint256",
          "name": "",
          "type": "uint256"
        }
      ],
      "stateMutability": "view",
      "type": "function"
    },
    {
      "inputs": [],
      "name": "terminalDirectory",
      "outputs": [
        {
          "internalType": "contract ITerminalDirectory",
          "name": "",
          "type": "address"
        }
      ],
      "stateMutability": "view",
      "type": "function"
    },
    {
      "inputs": [
        {
          "internalType": "uint256",
          "name": "_projectId",
          "type": "uint256"
        },
        {
          "internalType": "uint256",
          "name": "_fundingCycleId",
          "type": "uint256"
        },
        {
          "internalType": "uint256",
          "name": "_unlockAmount",
          "type": "uint256"
        }
      ],
      "name": "unLockTreasury",
      "outputs": [],
      "stateMutability": "nonpayable",
      "type": "function"
    }
  ],
  "transactionHash": "0x9bcbd4faf7c86b9fa5c77499a463d4e437e5628bb2aaf9ac5bcc958a056d38a7",
  "args": [],
  "numDeployments": 1,
  "solcInputHash": "4e9316abea9744a68b7555d93f5656d5",
  "bytecode": "0x608060405234801561001057600080fd5b506145e5806100206000396000f3fe6080604052600436106101cd5760003560e01c80638a19e355116100f7578063b19ab07611610095578063d8044c7611610064578063d8044c7614610523578063ecd958dc14610543578063f2b6378714610563578063f5e95acb1461059357600080fd5b8063b19ab076146104a2578063b1f8cc97146104c2578063c2368e37146104e2578063d512e1d51461050257600080fd5b806398f23ea2116100d157806398f23ea2146104115780639cc7f70814610427578063adb817ec14610454578063ae91719f1461047457600080fd5b80638a19e355146103be5780638b79543c146103d15780639417ecbd146103f157600080fd5b8063426b0b591161016f5780636abcf8e31161013e5780636abcf8e31461033e5780637a206fc61461035e5780637b2fe4ad1461037e578063882af6671461039e57600080fd5b8063426b0b59146102be57806342bbcec1146102de578063506df65b146102fe5780635990bad41461031e57600080fd5b806329575f6a116101ab57806329575f6a146102485780632e163fe014610268578063379e90681461027e5780633e8e2cf91461029e57600080fd5b80631c7a7e14146101d25780631e9db9ab146101fb57806320748dd514610210575b600080fd5b3480156101de57600080fd5b506101e860355481565b6040519081526020015b60405180910390f35b61020e610209366004613c95565b6105b3565b005b34801561021c57600080fd5b50603b54610230906001600160a01b031681565b6040516001600160a01b0390911681526020016101f2565b34801561025457600080fd5b50603354610230906001600160a01b031681565b34801561027457600080fd5b506101e860375481565b34801561028a57600080fd5b50603c54610230906001600160a01b031681565b3480156102aa57600080fd5b5061020e6102b9366004613c65565b610b38565b3480156102ca57600080fd5b50603f54610230906001600160a01b031681565b3480156102ea57600080fd5b5061020e6102f9366004613eac565b610b9f565b34801561030a57600080fd5b5061020e610319366004613eac565b610dea565b34801561032a57600080fd5b5061020e610339366004613e69565b61131c565b34801561034a57600080fd5b50603e54610230906001600160a01b031681565b34801561036a57600080fd5b5061020e610379366004613c65565b6118b0565b34801561038a57600080fd5b5061020e610399366004613d51565b611932565b3480156103aa57600080fd5b50603a54610230906001600160a01b031681565b61020e6103cc366004613c65565b611b8e565b3480156103dd57600080fd5b50603954610230906001600160a01b031681565b3480156103fd57600080fd5b50603d54610230906001600160a01b031681565b34801561041d57600080fd5b506101e860345481565b34801561043357600080fd5b506101e8610442366004613c65565b60386020526000908152604090205481565b34801561046057600080fd5b5061020e61046f366004613dd8565b611c1c565b34801561048057600080fd5b5061049461048f366004613e1c565b611fc9565b6040516101f2929190613f5c565b3480156104ae57600080fd5b50603654610230906001600160a01b031681565b3480156104ce57600080fd5b5061020e6104dd366004613c65565b6122a1565b3480156104ee57600080fd5b506101e86104fd3660046137f9565b612301565b34801561050e57600080fd5b506101e861051d366004613c65565b50600090565b34801561052f57600080fd5b5061049461053e3660046137f9565b61249e565b34801561054f57600080fd5b5061020e61055e366004613b74565b6126e3565b34801561056f57600080fd5b5061058361057e366004613d22565b61288b565b60405190151581526020016101f2565b34801561059f57600080fd5b5061020e6105ae366004613994565b6129df565b603a546040516321d1336160e11b8152600481018690526000916001600160a01b0316906343a266c2906024016101206040518083038186803b1580156105f957600080fd5b505afa15801561060d573d6000803e3d6000fd5b505050506040513d601f19601f820116820180604052508101906106319190613aee565b805190915080610654576040516392cadd9760e01b815260040160405180910390fd5b603a54604051633842770b60e11b8152600481018390526001916001600160a01b031690637084ee169060240160206040518083038186803b15801561069957600080fd5b505afa1580156106ad573d6000803e3d6000fd5b505050506040513d601f19601f820116820180604052508101906106d19190613a4f565b60028111156106f057634e487b7160e01b600052602160045260246000fd5b1461070e57604051638179537560e01b815260040160405180910390fd5b8160e0015115610731576040516349b5e0d160e01b815260040160405180910390fd5b83518551146107535760405163bdbbb53360e01b815260040160405180910390fd5b60008086516001600160401b0381111561077d57634e487b7160e01b600052604160045260246000fd5b6040519080825280602002602001820160405280156107d257816020015b6107bf60405180606001604052806000815260200160008152602001600081525090565b81526020019060019003908161079b5790505b50905060005b875181101561098657603a5488516000916001600160a01b031690636f336d229087908c908690811061081b57634e487b7160e01b600052603260045260246000fd5b60200260200101516040518363ffffffff1660e01b8152600401610849929190918252602082015260400190565b60c06040518083038186803b15801561086157600080fd5b505afa158015610875573d6000803e3d6000fd5b505050506040513d601f19601f820116820180604052508101906108999190613a6e565b90506108e36108dc82602001518a85815181106108c657634e487b7160e01b600052603260045260246000fd5b6020026020010151612bf890919063ffffffff16565b8590612c04565b935060405180606001604052808a848151811061091057634e487b7160e01b600052603260045260246000fd5b6020026020010151815260200189848151811061093d57634e487b7160e01b600052603260045260246000fd5b60200260200101518152602001826020015181525083838151811061097257634e487b7160e01b600052603260045260246000fd5b6020908102919091010152506001016107d8565b5060006109a96109a26064603554612c1090919063ffffffff16565b8490612bf8565b90506109b58382612c04565b3410156109d557604051631e9acf1760e31b815260040160405180910390fd5b603a5460405163038b8dd760e11b8152600481018b905260248101869052604481018590526001600160a01b03909116906307171bae90606401600060405180830381600087803b158015610a2957600080fd5b505af1158015610a3d573d6000803e3d6000fd5b5050603654610a5892506001600160a01b0316905082612c1c565b60008981526038602052604081208054859290610a769084906144df565b9091555050603b546040516313307b6160e21b815233916001600160a01b031690634cc1ed8490610ab1908d90899086908990600401614261565b600060405180830381600087803b158015610acb57600080fd5b505af1158015610adf573d6000803e3d6000fd5b50505050806001600160a01b0316858b7fc5b456166a7a575fb3c52d7cca0d0b228bc381a279ce887cb6eea1166243d9d4878d8d8d604051610b249493929190614154565b60405180910390a450505050505050505050565b6033546001600160a01b03163314610b635760405163be24598360e01b815260040160405180910390fd5b60358190556040518181527fcaec6d496fdfb43ed3f5e30e20eca7da329967e239c012ede5900e82251d0c8b906020015b60405180910390a150565b603a54604051635172bb2360e11b815260048101849052849184916000916001600160a01b03169063a2e57646906024016101206040518083038186803b158015610be957600080fd5b505afa158015610bfd573d6000803e3d6000fd5b505050506040513d601f19601f82011682018060405250810190610c219190613aee565b9050821580610c34575082816020015114155b15610c52576040516392cadd9760e01b815260040160405180910390fd5b84600280603a54604051633842770b60e11b8152600481018590526001600160a01b0390911690637084ee169060240160206040518083038186803b158015610c9a57600080fd5b505afa158015610cae573d6000803e3d6000fd5b505050506040513d601f19601f82011682018060405250810190610cd29190613a4f565b6002811115610cf157634e487b7160e01b600052602160045260246000fd5b14610d0f57604051638179537560e01b815260040160405180910390fd5b603c546001600160a01b03163314610d3a5760405163070545c960e51b815260040160405180910390fd5b603a54604051633d5ca87560e11b8152600481018a905260248101899052604481018890526001600160a01b0390911690637ab950ea90606401600060405180830381600087803b158015610d8e57600080fd5b505af1158015610da2573d6000803e3d6000fd5b50505050877f48eff2839dc2714dcdb7db8f8de267cb04a9d086db45ea42312e8b5b81eb0a6387604051610dd891815260200190565b60405180910390a25050505050505050565b60026001541415610e425760405162461bcd60e51b815260206004820152601f60248201527f5265656e7472616e637947756172643a207265656e7472616e742063616c6c0060448201526064015b60405180910390fd5b6002600155603a54604051635172bb2360e11b815260048101849052849184916000916001600160a01b03169063a2e57646906024016101206040518083038186803b158015610e9157600080fd5b505afa158015610ea5573d6000803e3d6000fd5b505050506040513d601f19601f82011682018060405250810190610ec99190613aee565b9050821580610edc575082816020015114155b15610efa576040516392cadd9760e01b815260040160405180910390fd5b84600280603a54604051633842770b60e11b8152600481018590526001600160a01b0390911690637084ee169060240160206040518083038186803b158015610f4257600080fd5b505afa158015610f56573d6000803e3d6000fd5b505050506040513d601f19601f82011682018060405250810190610f7a9190613a4f565b6002811115610f9957634e487b7160e01b600052602160045260246000fd5b14610fb757604051638179537560e01b815260040160405180910390fd5b6039546040516331a9108f60e11b8152600481018a90526001600160a01b0390911690636352211e9060240160206040518083038186803b158015610ffb57600080fd5b505afa15801561100f573d6000803e3d6000fd5b505050506040513d601f19601f8201168201806040525081019061103391906137dd565b6001600160a01b0316336001600160a01b0316146110645760405163be24598360e01b815260040160405180910390fd5b603a54604051633842770b60e11b8152600481018990526002916001600160a01b031690637084ee169060240160206040518083038186803b1580156110a957600080fd5b505afa1580156110bd573d6000803e3d6000fd5b505050506040513d601f19601f820116820180604052508101906110e19190613a4f565b600281111561110057634e487b7160e01b600052602160045260246000fd5b1461111e57604051638179537560e01b815260040160405180910390fd5b6000888152603860205260409020548087111561114e57604051631e9acf1760e31b815260040160405180910390fd5b603a5460405163506df65b60e01b8152600481018b9052602481018a9052604481018990526001600160a01b039091169063506df65b90606401600060405180830381600087803b1580156111a257600080fd5b505af11580156111b6573d6000803e3d6000fd5b5050505086816111c69190614536565b60008a8152603860205260408120919091556034546111f3906064906111ed908b90612bf8565b90612c10565b905060006112018983612d3a565b60365490915061121a906001600160a01b031683612c1c565b60006112278c8c84612d46565b6039546040516331a9108f60e11b8152600481018f90529192506000916001600160a01b0390911690636352211e9060240160206040518083038186803b15801561127157600080fd5b505afa158015611285573d6000803e3d6000fd5b505050506040513d601f19601f820116820180604052508101906112a991906137dd565b905081156112bb576112bb8183612c1c565b336001600160a01b03168c8e7fba86cb310dba20723fcebe9b822e3d442c300588419146c035131de47cb4bf5c8787604051611301929190918252602082015260400190565b60405180910390a45050600180555050505050505050505050565b603a54604051635172bb2360e11b815260048101849052849184916000916001600160a01b03169063a2e57646906024016101206040518083038186803b15801561136657600080fd5b505afa15801561137a573d6000803e3d6000fd5b505050506040513d601f19601f8201168201806040525081019061139e9190613aee565b90508215806113b1575082816020015114155b156113cf576040516392cadd9760e01b815260040160405180910390fd5b603b54604051631c645c9f60e01b8152336004820181905260248201889052916001600160a01b031690631c645c9f90604401602060405180830381600087803b15801561141c57600080fd5b505af1158015611430573d6000803e3d6000fd5b505050506040513d601f19601f820116820180604052508101906114549190613978565b1561147257604051630c8d9eab60e31b815260040160405180910390fd5b603b5460405163fe0d584d60e01b8152600481018990526000916001600160a01b03169063fe0d584d9060240160206040518083038186803b1580156114b757600080fd5b505afa1580156114cb573d6000803e3d6000fd5b505050506040513d601f19601f820116820180604052508101906114ef9190613c7d565b90506000816001600160401b0381111561151957634e487b7160e01b600052604160045260246000fd5b604051908082528060200260200182016040528015611542578160200160208202803683370190505b5090506000826001600160401b0381111561156d57634e487b7160e01b600052604160045260246000fd5b604051908082528060200260200182016040528015611596578160200160208202803683370190505b50905060005b838110156117e757603a54604051633799b69160e11b8152600481018c9052602481018390526000916001600160a01b031690636f336d229060440160c06040518083038186803b1580156115f057600080fd5b505afa158015611604573d6000803e3d6000fd5b505050506040513d601f19601f820116820180604052508101906116289190613a6e565b9050806000015184838151811061164f57634e487b7160e01b600052603260045260246000fd5b602002602001018181525050600083838151811061167d57634e487b7160e01b600052603260045260246000fd5b602090810291909101015260808101516040516370a0823160e01b81526001600160a01b03888116600483015260009216906370a082319060240160206040518083038186803b1580156116d057600080fd5b505afa1580156116e4573d6000803e3d6000fd5b505050506040513d601f19601f820116820180604052508101906117089190613c7d565b1180156117aa5750603b548151604051630708d0c760e21b8152600481018e905260248101919091526000916001600160a01b031690631c23431c90604401602060405180830381600087803b15801561176157600080fd5b505af1158015611775573d6000803e3d6000fd5b505050506040513d601f19601f820116820180604052508101906117999190613c7d565b82606001516117a89190614536565b115b156117de5760018383815181106117d157634e487b7160e01b600052603260045260246000fd5b6020026020010181815250505b5060010161159c565b508151611807576040516345ab780760e01b815260040160405180910390fd5b603b54604051630aaf90f160e31b81526001600160a01b039091169063557c87889061183f908d908d90899088908890600401614306565b600060405180830381600087803b15801561185957600080fd5b505af115801561186d573d6000803e3d6000fd5b50505050836001600160a01b0316898b7f2ddfc660215ae9e66dec4b7f281af2e454fcea9356c8a3470d2ee3fe1c01a62985858d604051610b2493929190613f8a565b6033546001600160a01b031633146118db5760405163be24598360e01b815260040160405180910390fd5b600a8111156118fd57604051637f16ee6b60e01b815260040160405180910390fd5b60348190556040518181527f4cad663e6c336dd2ca0939462d65a0e2c9abcfb89d09e3886de41c3d67b2671990602001610b94565b6039546040516331a9108f60e11b8152600481018890526001600160a01b0390911690636352211e9060240160206040518083038186803b15801561197657600080fd5b505afa15801561198a573d6000803e3d6000fd5b505050506040513d601f19601f820116820180604052508101906119ae91906137dd565b6001600160a01b0316336001600160a01b0316146119df5760405163be24598360e01b815260040160405180910390fd5b6119ea848487612eb8565b603a54604051631137edad60e11b8152600481018890526000916001600160a01b03169063226fdb5a9060240160206040518083038186803b158015611a2f57600080fd5b505afa158015611a43573d6000803e3d6000fd5b505050506040513d601f19601f82011682018060405250810190611a679190613c7d565b603a54604051630638ef5160e51b81529192506000916001600160a01b039091169063c71dea2090611aa3908b908b908b908b90600401614193565b61012060405180830381600087803b158015611abe57600080fd5b505af1158015611ad2573d6000803e3d6000fd5b505050506040513d601f19601f82011682018060405250810190611af69190613aee565b8051909150821415611b1b5760405163517a3b2d60e01b815260040160405180910390fd5b603f54815160405163e5467d7f60e01b81526001600160a01b039092169163e5467d7f91611b52918c919089908990600401614351565b600060405180830381600087803b158015611b6c57600080fd5b505af1158015611b80573d6000803e3d6000fd5b505050505050505050505050565b60003411611baf5760405163749b593960e01b815260040160405180910390fd5b600081815260386020526040902054611bc99034906144df565b600082815260386020908152604091829020929092558051348152339281019290925282917f08534c4f6026a713959f9286d994e8430e6d0fd11045360abf782bacaa288d43910160405180910390a250565b60026001541415611c6f5760405162461bcd60e51b815260206004820152601f60248201527f5265656e7472616e637947756172643a207265656e7472616e742063616c6c006044820152606401610e39565b6002600155603a54604051635172bb2360e11b815260048101839052839183916000916001600160a01b03169063a2e57646906024016101206040518083038186803b158015611cbe57600080fd5b505afa158015611cd2573d6000803e3d6000fd5b505050506040513d601f19601f82011682018060405250810190611cf69190613aee565b9050821580611d09575082816020015114155b15611d27576040516392cadd9760e01b815260040160405180910390fd5b83600280603a54604051633842770b60e11b8152600481018590526001600160a01b0390911690637084ee169060240160206040518083038186803b158015611d6f57600080fd5b505afa158015611d83573d6000803e3d6000fd5b505050506040513d601f19601f82011682018060405250810190611da79190613a4f565b6002811115611dc657634e487b7160e01b600052602160045260246000fd5b14611de457604051638179537560e01b815260040160405180910390fd5b603b5460405163c12c3f0760e01b8152336004820181905260248201899052916001600160a01b03169063c12c3f0790604401602060405180830381600087803b158015611e3157600080fd5b505af1158015611e45573d6000803e3d6000fd5b505050506040513d601f19601f82011682018060405250810190611e699190613978565b15611e8757604051630c8d9eab60e31b815260040160405180910390fd5b6000611e94828a8a612301565b90508015611efe57600089815260386020526040902054811115611ecb57604051631e9acf1760e31b815260040160405180910390fd5b600089815260386020526040902054611ee5908290614536565b60008a815260386020526040902055611efe8282612c1c565b6000611f0b838b8b61249e565b50603b5460405162c4aa6b60e71b81529192506001600160a01b031690636255358090611f42908d908d90889087906004016142d9565b600060405180830381600087803b158015611f5c57600080fd5b505af1158015611f70573d6000803e3d6000fd5b50505050826001600160a01b0316898b7f3a0da244be3f3ca6524dd79d1fc42da08544979abcf3931fcbb784a1afa8117c8585604051611fb19291906140af565b60405180910390a45050600180555050505050505050565b606080600083516001600160401b03811115611ff557634e487b7160e01b600052604160045260246000fd5b60405190808252806020026020018201604052801561201e578160200160208202803683370190505b50905060005b845181101561211957603a54604051633799b69160e11b815260048101889052602481018390526001600160a01b0390911690636f336d229060440160c06040518083038186803b15801561207857600080fd5b505afa15801561208c573d6000803e3d6000fd5b505050506040513d601f19601f820116820180604052508101906120b09190613a6e565b602001518582815181106120d457634e487b7160e01b600052603260045260246000fd5b60200260200101516120e69190614517565b82828151811061210657634e487b7160e01b600052603260045260246000fd5b6020908102919091010152600101612024565b50603b54604051632ac1ca4960e01b81526001600160a01b0390911690632ac1ca49906121509089908990899087906004016143c9565b60006040518083038186803b15801561216857600080fd5b505afa15801561217c573d6000803e3d6000fd5b505050506040513d6000823e601f3d908101601f191682016040526121a491908101906138f2565b915060005b825181101561229757603a54604051633799b69160e11b8152600481018890526024810183905261226491620f4240916111ed916001600160a01b031690636f336d229060440160c06040518083038186803b15801561220857600080fd5b505afa15801561221c573d6000803e3d6000fd5b505050506040513d601f19601f820116820180604052508101906122409190613a6e565b604001518685815181106108c657634e487b7160e01b600052603260045260246000fd5b84828151811061228457634e487b7160e01b600052603260045260246000fd5b60209081029190910101526001016121a9565b5050935093915050565b6033546001600160a01b031633146122cc5760405163be24598360e01b815260040160405180910390fd5b60378190556040518181527f1887639addea89c07fe268468b61db3c0974a6328dd70d1ab60d24cade98977790602001610b94565b60008061230f85858561249e565b50905060005b815181101561249557603b5460405163442012c360e01b81526001600160a01b0388811660048301526024820187905260448201849052600092169063442012c390606401604080518083038186803b15801561237157600080fd5b505afa158015612385573d6000803e3d6000fd5b505050506040513d601f19601f820116820180604052508101906123a99190613df9565b509050806123b75750612315565b603a54604051633799b69160e11b81526004810187905260248101849052612480916001600160a01b031690636f336d229060440160c06040518083038186803b15801561240457600080fd5b505afa158015612418573d6000803e3d6000fd5b505050506040513d601f19601f8201168201806040525081019061243c9190613a6e565b6020015161247a85858151811061246357634e487b7160e01b600052603260045260246000fd5b602002602001015184612d3a90919063ffffffff16565b90612bf8565b61248a90856144df565b935050600101612315565b50509392505050565b603b5460405163256e8b2760e01b81526001600160a01b0385811660048301526024820185905260448201849052606092839291169063256e8b279060640160006040518083038186803b1580156124f557600080fd5b505afa158015612509573d6000803e3d6000fd5b505050506040513d6000823e601f3d908101601f1916820160405261253191908101906138f2565b905080516001600160401b0381111561255a57634e487b7160e01b600052604160045260246000fd5b604051908082528060200260200182016040528015612583578160200160208202803683370190505b50915060005b81518110156126da578181815181106125b257634e487b7160e01b600052603260045260246000fd5b6020026020010151600014156125f55760008382815181106125e457634e487b7160e01b600052603260045260246000fd5b602002602001018181525050612589565b603a54604051633799b69160e11b815260048101869052602481018390526126a791620f4240916111ed916001600160a01b031690636f336d229060440160c06040518083038186803b15801561264b57600080fd5b505afa15801561265f573d6000803e3d6000fd5b505050506040513d601f19601f820116820180604052508101906126839190613a6e565b604001518585815181106108c657634e487b7160e01b600052603260045260246000fd5b8382815181106126c757634e487b7160e01b600052603260045260246000fd5b6020908102919091010152600101612589565b50935093915050565b6126ee848487612eb8565b60395460405163e8f830cb60e01b8152336004820152893560248201523060448201526000916001600160a01b03169063e8f830cb90606401602060405180830381600087803b15801561274157600080fd5b505af1158015612755573d6000803e3d6000fd5b505050506040513d601f19601f820116820180604052508101906127799190613c7d565b9050612789818a8a8a8989613067565b603a54604051630638ef5160e51b81526000916001600160a01b03169063c71dea20906127c09085908b908b908b90600401614193565b61012060405180830381600087803b1580156127db57600080fd5b505af11580156127ef573d6000803e3d6000fd5b505050506040513d601f19601f820116820180604052508101906128139190613aee565b603f54815160405163e5467d7f60e01b81529293506001600160a01b039091169163e5467d7f9161284d9186919089908990600401614351565b600060405180830381600087803b15801561286757600080fd5b505af115801561287b573d6000803e3d6000fd5b5050505050505050505050505050565b6039546040516331a9108f60e11b8152600481018490526000916001600160a01b031690636352211e9060240160206040518083038186803b1580156128d057600080fd5b505afa1580156128e4573d6000803e3d6000fd5b505050506040513d601f19601f8201168201806040525081019061290891906137dd565b6001600160a01b0316336001600160a01b03161415801561293457506033546001600160a01b03163314155b156129525760405163be24598360e01b815260040160405180910390fd5b603a54604051635f63e5ed60e11b81526004810185905283151560248201526001600160a01b039091169063bec7cbda90604401602060405180830381600087803b1580156129a057600080fd5b505af11580156129b4573d6000803e3d6000fd5b505050506040513d601f19601f820116820180604052508101906129d89190613978565b9392505050565b600054610100900460ff166129fa5760005460ff16156129fe565b303b155b612a615760405162461bcd60e51b815260206004820152602e60248201527f496e697469616c697a61626c653a20636f6e747261637420697320616c72656160448201526d191e481a5b9a5d1a585b1a5e995960921b6064820152608401610e39565b600054610100900460ff16158015612a83576000805461ffff19166101011790555b6001600160a01b038a161580612aa057506001600160a01b038916155b80612ab257506001600160a01b038816155b80612ac457506001600160a01b038716155b80612ad657506001600160a01b038616155b80612ae857506001600160a01b038516155b80612afa57506001600160a01b038416155b80612b0c57506001600160a01b038316155b80612b1e57506001600160a01b038216155b15612b3c5760405163d92e233d60e01b815260040160405180910390fd5b612b446134af565b603980546001600160a01b03199081166001600160a01b038d811691909117909255603a805482168c8416179055603b805482168b8416179055603c805482168a8416179055603e80548216898416179055603d80548216888416179055603680548216868416179055603f8054821687841617905560338054909116918416919091179055600160355560046034556113886037558015612bec576000805461ff00191690555b50505050505050505050565b60006129d88284614517565b60006129d882846144df565b60006129d882846144f7565b80471015612c6c5760405162461bcd60e51b815260206004820152601d60248201527f416464726573733a20696e73756666696369656e742062616c616e63650000006044820152606401610e39565b6000826001600160a01b03168260405160006040518083038185875af1925050503d8060008114612cb9576040519150601f19603f3d011682016040523d82523d6000602084013e612cbe565b606091505b5050905080612d355760405162461bcd60e51b815260206004820152603a60248201527f416464726573733a20756e61626c6520746f2073656e642076616c75652c207260448201527f6563697069656e74206d617920686176652072657665727465640000000000006064820152608401610e39565b505050565b60006129d88284614536565b603f54604051633f9ea14960e21b81526004810184905282916000916001600160a01b039091169063fe7a85249060240160006040518083038186803b158015612d8f57600080fd5b505afa158015612da3573d6000803e3d6000fd5b505050506040513d6000823e601f3d908101601f19168201604052612dcb919081019061382d565b9050805160001415612ddd57506129d8565b60005b8151811015612495576000828281518110612e0b57634e487b7160e01b600052603260045260246000fd5b602002602001015190506000612e2c86836000015161ffff166127106134e0565b90508015612e4257612e42826020015182612c1c565b612e4c8186614536565b60408051845161ffff1681526020808601516001600160a01b031690820152908101839052336060820152909550600190930192889088907fb617d9bda163028dfa8583222665603f72a701523b2e5aa7c449ab1dd1caa8039060800160405180910390a35050612de0565b60005b82811015613033576000848483818110612ee557634e487b7160e01b600052603260045260246000fd5b905060c002016080016020810190612efd91906137c1565b6001600160a01b031614158015612fc95750838382818110612f2f57634e487b7160e01b600052603260045260246000fd5b905060c002016080016020810190612f4791906137c1565b6040516301ffc9a760e01b81526380ac58cd60e01b60048201526001600160a01b0391909116906301ffc9a79060240160206040518083038186803b158015612f8f57600080fd5b505afa158015612fa3573d6000803e3d6000fd5b505050506040513d601f19601f82011682018060405250810190612fc79190613978565b155b1561302b57838382818110612fee57634e487b7160e01b600052603260045260246000fd5b905060c00201608001602081019061300691906137c1565b604051634f8b719960e01b81526001600160a01b039091166004820152602401610e39565b600101612ebb565b506037546130446020830183613c49565b61ffff161015612d3557604051632e0e8e6760e11b815260040160405180910390fd5b6000836001600160401b0381111561308f57634e487b7160e01b600052604160045260246000fd5b6040519080825280602002602001820160405280156130b8578160200160208202803683370190505b5090506000846001600160401b038111156130e357634e487b7160e01b600052604160045260246000fd5b60405190808252806020026020018201604052801561310c578160200160208202803683370190505b5090506000856001600160401b0381111561313757634e487b7160e01b600052604160045260246000fd5b604051908082528060200260200182016040528015613160578160200160208202803683370190505b50905060005b868110156133525787878281811061318e57634e487b7160e01b600052603260045260246000fd5b905060600201604001358686838181106131b857634e487b7160e01b600052603260045260246000fd5b905060c0020160a001358787848181106131e257634e487b7160e01b600052603260045260246000fd5b905060c002016060013588888581811061320c57634e487b7160e01b600052603260045260246000fd5b905060c002016040013561322091906144df565b61322a91906144df565b111561324957604051631e9acf1760e31b815260040160405180910390fd5b87878281811061326957634e487b7160e01b600052603260045260246000fd5b9050606002016000013584828151811061329357634e487b7160e01b600052603260045260246000fd5b6020026020010181815250508787828181106132bf57634e487b7160e01b600052603260045260246000fd5b905060600201604001358382815181106132e957634e487b7160e01b600052603260045260246000fd5b60200260200101818152505087878281811061331557634e487b7160e01b600052603260045260246000fd5b9050606002016020013582828151811061333f57634e487b7160e01b600052603260045260246000fd5b6020908102919091010152600101613166565b50603b546040516359105c3360e11b81526000916001600160a01b03169063b220b8669061338a908d9088908890889060040161410a565b602060405180830381600087803b1580156133a457600080fd5b505af11580156133b8573d6000803e3d6000fd5b505050506040513d601f19601f820116820180604052508101906133dc91906137dd565b603c5460335460405163339d237960e11b81529293506001600160a01b039182169263673a46f292613418928f928892889216906004016140d0565b600060405180830381600087803b15801561343257600080fd5b505af1158015613446573d6000803e3d6000fd5b506000925061345b91505060208b018b6143fa565b90501115612bec57603d546001600160a01b0316630e42eb698b61348260208d018d6143fa565b61348f60408f018f6143fa565b6040518663ffffffff1660e01b815260040161284d959493929190614018565b600054610100900460ff166134d65760405162461bcd60e51b8152600401610e3990613fcd565b6134de6135bc565b565b6000808060001985870985870292508281108382030391505080600014156135295783828161351f57634e487b7160e01b600052601260045260246000fd5b04925050506129d8565b83811061355357604051631dcf306360e21b81526004810182905260248101859052604401610e39565b60008486880960026001871981018816978890046003810283188082028403028082028403028082028403028082028403028082028403029081029092039091026000889003889004909101858311909403939093029303949094049190911702949350505050565b600054610100900460ff166135e35760405162461bcd60e51b8152600401610e3990613fcd565b60018055565b60008083601f8401126135fa578182fd5b5081356001600160401b03811115613610578182fd5b60208301915083602060c08302850101111561362b57600080fd5b9250929050565b60008083601f840112613643578182fd5b5081356001600160401b03811115613659578182fd5b60208301915083602060608302850101111561362b57600080fd5b60008083601f840112613685578182fd5b5081356001600160401b0381111561369b578182fd5b6020830191508360208260061b850101111561362b57600080fd5b600082601f8301126136c6578081fd5b813560206136db6136d6836144bc565b61448c565b80838252828201915082860187848660051b89010111156136fa578586fd5b855b85811015613718578135845292840192908401906001016136fc565b5090979650505050505050565b805161373081614591565b919050565b600082601f830112613745578081fd5b81356001600160401b0381111561375e5761375e614563565b613771601f8201601f191660200161448c565b818152846020838601011115613785578283fd5b816020850160208301379081016020019190915292915050565b6000608082840312156137b0578081fd5b50919050565b80516137308161459f565b6000602082840312156137d2578081fd5b81356129d881614579565b6000602082840312156137ee578081fd5b81516129d881614579565b60008060006060848603121561380d578182fd5b833561381881614579565b95602085013595506040909401359392505050565b6000602080838503121561383f578182fd5b82516001600160401b03811115613854578283fd5b8301601f81018513613864578283fd5b80516138726136d6826144bc565b80828252848201915084840188868560061b8701011115613891578687fd5b8694505b838510156138e657604080828b0312156138ad578788fd5b6138b5614441565b82516138c08161459f565b8152828801516138cf81614579565b818901528452600195909501949286019201613895565b50979650505050505050565b60006020808385031215613904578182fd5b82516001600160401b03811115613919578283fd5b8301601f81018513613929578283fd5b80516139376136d6826144bc565b80828252848201915084840188868560051b8701011115613956578687fd5b8694505b838510156138e657805183526001949094019391850191850161395a565b600060208284031215613989578081fd5b81516129d881614591565b60008060008060008060008060006101208a8c0312156139b2578687fd5b89356139bd81614579565b985060208a01356139cd81614579565b975060408a01356139dd81614579565b965060608a01356139ed81614579565b955060808a01356139fd81614579565b945060a08a0135613a0d81614579565b935060c08a0135613a1d81614579565b925060e08a0135613a2d81614579565b91506101008a0135613a3e81614579565b809150509295985092959850929598565b600060208284031215613a60578081fd5b8151600381106129d8578182fd5b600060c08284031215613a7f578081fd5b60405160c081018181106001600160401b0382111715613aa157613aa1614563565b8060405250825181526020830151602082015260408301516040820152606083015160608201526080830151613ad681614579565b608082015260a0928301519281019290925250919050565b60006101208284031215613b00578081fd5b613b08614469565b825181526020830151602082015260408301516040820152606083015160608201526080830151608082015260a083015160a0820152613b4a60c084016137b6565b60c0820152613b5b60e08401613725565b60e0820152610100928301519281019290925250919050565b600080600080600080600080610100898b031215613b90578182fd5b88356001600160401b0380821115613ba6578384fd5b908a01906060828d031215613bb9578384fd5b90985060208a01359080821115613bce578384fd5b613bda8c838d01613632565b9099509750879150613bef8c60408d0161379f565b965060c08b0135915080821115613c04578384fd5b613c108c838d016135e9565b909650945060e08b0135915080821115613c28578384fd5b50613c358b828c01613674565b999c989b5096995094979396929594505050565b600060208284031215613c5a578081fd5b81356129d88161459f565b600060208284031215613c76578081fd5b5035919050565b600060208284031215613c8e578081fd5b5051919050565b60008060008060808587031215613caa578182fd5b8435935060208501356001600160401b0380821115613cc7578384fd5b613cd3888389016136b6565b94506040870135915080821115613ce8578384fd5b613cf4888389016136b6565b93506060870135915080821115613d09578283fd5b50613d1687828801613735565b91505092959194509250565b60008060408385031215613d34578182fd5b823591506020830135613d4681614591565b809150509250929050565b60008060008060008060e08789031215613d69578384fd5b86359550613d7a886020890161379f565b945060a08701356001600160401b0380821115613d95578586fd5b613da18a838b016135e9565b909650945060c0890135915080821115613db9578384fd5b50613dc689828a01613674565b979a9699509497509295939492505050565b60008060408385031215613dea578182fd5b50508035926020909101359150565b60008060408385031215613e0b578182fd5b505080516020909101519092909150565b600080600060608486031215613e30578081fd5b833592506020840135915060408401356001600160401b03811115613e53578182fd5b613e5f868287016136b6565b9150509250925092565b600080600060608486031215613e7d578081fd5b833592506020840135915060408401356001600160401b03811115613ea0578182fd5b613e5f86828701613735565b600080600060608486031215613ec0578081fd5b505081359360208301359350604090920135919050565b6000815180845260208085019450808401835b83811015613f0657815187529582019590820190600101613eea565b509495945050505050565b60008151808452815b81811015613f3657602081850181015186830182015201613f1a565b81811115613f475782602083870101525b50601f01601f19169290920160200192915050565b604081526000613f6f6040830185613ed7565b8281036020840152613f818185613ed7565b95945050505050565b606081526000613f9d6060830186613ed7565b8281036020840152613faf8186613ed7565b90508281036040840152613fc38185613f11565b9695505050505050565b6020808252602b908201527f496e697469616c697a61626c653a20636f6e7472616374206973206e6f74206960408201526a6e697469616c697a696e6760a81b606082015260800190565b85815260606020808301829052908201859052600090869060808401835b8881101561406457833561404981614579565b6001600160a01b031682529282019290820190600101614036565b5084810360408601528581528101915085835b868110156140a057813561408a8161459f565b61ffff1684529282019290820190600101614077565b50919998505050505050505050565b8281526040602082015260006140c86040830184613ed7565b949350505050565b8481526080602082015260006140e96080830186613ed7565b6001600160a01b039485166040840152929093166060909101529392505050565b8481526080602082015260006141236080830186613ed7565b82810360408401526141358186613ed7565b905082810360608401526141498185613ed7565b979650505050505050565b84815260806020820152600061416d6080830186613ed7565b828103604084015261417f8186613ed7565b905082810360608401526141498185613f11565b600060c0808301878452602087356141aa8161459f565b61ffff9081168683015288820135906141c28261459f565b60408183168189015260609250808b01358389015260809150828b01358289015260a086818a0152858a875260e08a0190508b9650885b8b81101561424f57873582528688013587830152838801358483015285880135868301528488013561422a81614579565b6001600160a01b031682860152878301358383015296880196908801906001016141f9565b509d9c50505050505050505050505050565b60006080820186835260208681850152604060018060a01b03871681860152606060808187015283875180865260a0880191508489019550865b818110156142c857865180518452868101518785015285015185840152958501959183019160010161429b565b50909b9a5050505050505050505050565b84815283602082015260018060a01b0383166040820152608060608201526000613fc36080830184613ed7565b85815284602082015260018060a01b038416604082015260a06060820152600061433360a0830185613ed7565b82810360808401526143458185613ed7565b98975050505050505050565b60006060820186835260208681850152604060608186015282868452608086019050879350845b878110156143bb57843561438b8161459f565b61ffff1682528484013561439e81614579565b6001600160a01b0316828501529382019390820190600101614378565b509998505050505050505050565b8481528360208201526080604082015260006143e86080830185613ed7565b82810360608401526141498185613ed7565b6000808335601e19843603018112614410578283fd5b8301803591506001600160401b03821115614429578283fd5b6020019150600581901b360382131561362b57600080fd5b604080519081016001600160401b038111828210171561446357614463614563565b60405290565b60405161012081016001600160401b038111828210171561446357614463614563565b604051601f8201601f191681016001600160401b03811182821017156144b4576144b4614563565b604052919050565b60006001600160401b038211156144d5576144d5614563565b5060051b60200190565b600082198211156144f2576144f261454d565b500190565b60008261451257634e487b7160e01b81526012600452602481fd5b500490565b60008160001904831182151516156145315761453161454d565b500290565b6000828210156145485761454861454d565b500390565b634e487b7160e01b600052601160045260246000fd5b634e487b7160e01b600052604160045260246000fd5b6001600160a01b038116811461458e57600080fd5b50565b801515811461458e57600080fd5b61ffff8116811461458e57600080fdfea264697066735822122060fc0a4f2b479e895590061c903b190dcf8a27cd77ae7f88d84412269655f3ac64736f6c63430008040033",
  "devdoc": {
    "kind": "dev",
    "methods": {
      "addToBalance(uint256)": {
        "params": {
          "_projectId": "The ID of the project to which the funds received belong."
        }
      },
      "claimPassOrRefund(uint256,uint256)": {
        "params": {
          "_fundingCycleId": "the funding cycle id to claim",
          "_projectId": "the project id to claim"
        }
      },
      "communityContribute(uint256,uint256,string)": {
        "params": {
          "_fundingCycleId": "The funding cycle id",
          "_memo": "memo attached when purchase",
          "_projectId": "The ID of the DAO being contribute to"
        }
      },
      "contribute(uint256,uint256[],uint256[],string)": {
        "params": {
          "_amounts": "The amounts of submitted",
          "_memo": "The memo that will be attached in the published event after purchasing",
          "_projectId": "The ID of the DAO being contribute to",
          "_tiers": "The payment tier ids"
        }
      },
      "createDao((bytes32,address[],uint16[]),(uint256,uint256,uint256)[],(uint16,uint16,uint256,uint256),(uint256,uint256,uint256,uint256,address,uint256)[],(uint16,address)[])": {
        "params": {
          "_auctionedPass": "Auctioned pass information",
          "_metadata": "The metadata for the DAO",
          "_params": "The parameters for Funding Cycle ",
          "_payoutMods": "The payout infos",
          "_tiers": "The total tiers of the Membership-pass"
        }
      },
      "createNewFundingCycle(uint256,(uint16,uint16,uint256,uint256),(uint256,uint256,uint256,uint256,address,uint256)[],(uint16,address)[])": {
        "params": {
          "_auctionedPass": "auctioned pass information",
          "_params": "The parameters for funding cycle",
          "_projectId": "The project id of the dao"
        }
      },
      "getEstimatingAmount(uint256,uint256,uint256[])": {
        "params": {
          "_fundingCycleId": "The ID of the funding cycle",
          "_payData": "payment info",
          "_projectId": "The ID of the DAO"
        }
      },
      "getOfferingAmount(address,uint256,uint256)": {
        "params": {
          "_from": "The wallet address of the user ",
          "_fundingCycleId": "The ID of the funding cycle",
          "_projectId": "The ID of the DAO you contributed with"
        },
        "returns": {
          "allocations": "The allocation percentage of each tier Passes offering in this funding cycle",
          "amounts": "The amount of each tier Passes offering in this funding cycle"
        }
      },
      "getRefundingAmount(address,uint256,uint256)": {
        "params": {
          "_from": "user address",
          "_fundingCycleId": "the funding cycle id",
          "_projectId": "the project id of contribute dao"
        }
      },
      "getUnSoldTickets(uint256)": {
        "params": {
          "_fundingCycleId": "the funding cycle id"
        }
      },
      "initialize(address,address,address,address,address,address,address,address,address)": {
        "params": {
          "_admin": "super admin",
          "_devTreasury": "dev treasury address, receive contribute fee and tap fee",
          "_fundingCycles": "A funding cycle configuration store. (DAO Creator can launch mutiple times.)",
          "_governorBooster": "The governor booster",
          "_passBooth": "The tiers with the Membership-pass this DAO has",
          "_projects": "A DAO's contract which mints ERC721 represent project's ownership and transfers."
        }
      },
      "setPausedFundingCycleProject(uint256,bool)": {
        "params": {
          "_paused": "status true or false for the funding cycle.",
          "_projectId": "The ID of the project to which the funds received belong."
        }
      },
      "tap(uint256,uint256,uint256)": {
        "params": {
          "_amount": "The amount being tapped",
          "_fundingCycleId": "The ID of the funding cycle to tap",
          "_projectId": "The ID of the project to which the funding cycle being tapped belongs"
        }
      },
      "unLockTreasury(uint256,uint256,uint256)": {
        "details": "Only daoGovernor contract",
        "params": {
          "_fundingCycleId": "The Id of the fundingCycle to unlock",
          "_projectId": "The Id of the project to unlock",
          "_unlockAmount": "The amount being unlocked"
        }
      }
    },
    "version": 1
  },
  "userdoc": {
    "errors": {
      "PRBMath__MulDivOverflow(uint256,uint256)": [
        {
          "notice": "Emitted when the result overflows uint256."
        }
      ]
    },
    "kind": "user",
    "methods": {
      "addToBalance(uint256)": {
        "notice": "Receives and allocates funds belonging to the specified project."
      },
      "claimPassOrRefund(uint256,uint256)": {
        "notice": "Claim menbershippass or refund overlow part"
      },
      "communityContribute(uint256,uint256,string)": {
        "notice": "Community members can mint the  membership pass for free. For those who has the specific NFT in wallet, enable to claim free pass"
      },
      "contribute(uint256,uint256[],uint256[],string)": {
        "notice": "Contribute ETH to a dao"
      },
      "createDao((bytes32,address[],uint16[]),(uint256,uint256,uint256)[],(uint16,uint16,uint256,uint256),(uint256,uint256,uint256,uint256,address,uint256)[],(uint16,address)[])": {
        "notice": "Deploy a DAO, this will mint an ERC721 into the `_owner`'s account, and configure a first funding cycle."
      },
      "createNewFundingCycle(uint256,(uint16,uint16,uint256,uint256),(uint256,uint256,uint256,uint256,address,uint256)[],(uint16,address)[])": {
        "notice": "Create the new Funding Cycle for spesific project, need to check the reserve amount pass in Treasury"
      },
      "getEstimatingAmount(uint256,uint256,uint256[])": {
        "notice": "Estimate allocate tickets"
      },
      "getOfferingAmount(address,uint256,uint256)": {
        "notice": "Get offering tickets by funding cycle"
      },
      "getRefundingAmount(address,uint256,uint256)": {
        "notice": "Get offering tickets by funding cycle"
      },
      "getUnSoldTickets(uint256)": {
        "notice": "Calculate the unsold tickets by funding cycle id"
      },
      "initialize(address,address,address,address,address,address,address,address,address)": {
        "notice": "Due to a requirement of the proxy-based upgradeability system, no constructors can be used in upgradeable contracts"
      },
      "setPausedFundingCycleProject(uint256,bool)": {
        "notice": "Set paused status to the current active funding cycle in the spesific project."
      },
      "tap(uint256,uint256,uint256)": {
        "notice": "Tap into funds that have been contributed to a project's funding cycles"
      },
      "unLockTreasury(uint256,uint256,uint256)": {
        "notice": "Unlock the locked balance in dao treasury"
      }
    },
    "version": 1
  },
  "storageLayout": {
    "storage": [
      {
        "astId": 6,
        "contract": "contracts/Terminal.sol:Terminal",
        "label": "_initialized",
        "offset": 0,
        "slot": "0",
        "type": "t_bool"
      },
      {
        "astId": 9,
        "contract": "contracts/Terminal.sol:Terminal",
        "label": "_initializing",
        "offset": 1,
        "slot": "0",
        "type": "t_bool"
      },
      {
        "astId": 87,
        "contract": "contracts/Terminal.sol:Terminal",
        "label": "_status",
        "offset": 0,
        "slot": "1",
        "type": "t_uint256"
      },
      {
        "astId": 131,
        "contract": "contracts/Terminal.sol:Terminal",
        "label": "__gap",
        "offset": 0,
        "slot": "2",
        "type": "t_array(t_uint256)49_storage"
      },
      {
        "astId": 13526,
        "contract": "contracts/Terminal.sol:Terminal",
        "label": "superAdmin",
        "offset": 0,
        "slot": "51",
        "type": "t_address"
      },
      {
        "astId": 13529,
        "contract": "contracts/Terminal.sol:Terminal",
        "label": "tapFee",
        "offset": 0,
        "slot": "52",
        "type": "t_uint256"
      },
      {
        "astId": 13532,
        "contract": "contracts/Terminal.sol:Terminal",
        "label": "contributeFee",
        "offset": 0,
        "slot": "53",
        "type": "t_uint256"
      },
      {
        "astId": 13535,
        "contract": "contracts/Terminal.sol:Terminal",
        "label": "devTreasury",
        "offset": 0,
        "slot": "54",
        "type": "t_address"
      },
      {
        "astId": 13538,
        "contract": "contracts/Terminal.sol:Terminal",
        "label": "minLockRate",
        "offset": 0,
        "slot": "55",
        "type": "t_uint256"
      },
      {
        "astId": 13543,
        "contract": "contracts/Terminal.sol:Terminal",
        "label": "balanceOf",
        "offset": 0,
        "slot": "56",
        "type": "t_mapping(t_uint256,t_uint256)"
      },
      {
        "astId": 13547,
        "contract": "contracts/Terminal.sol:Terminal",
        "label": "projects",
        "offset": 0,
        "slot": "57",
        "type": "t_contract(IProjects)16755"
      },
      {
        "astId": 13551,
        "contract": "contracts/Terminal.sol:Terminal",
        "label": "fundingCycles",
        "offset": 0,
        "slot": "58",
        "type": "t_contract(IFundingCycles)16278"
      },
      {
        "astId": 13555,
        "contract": "contracts/Terminal.sol:Terminal",
        "label": "membershipPassBooth",
        "offset": 0,
        "slot": "59",
        "type": "t_contract(IMembershipPassBooth)16616"
      },
      {
        "astId": 13559,
        "contract": "contracts/Terminal.sol:Terminal",
        "label": "daoGovernorBooster",
        "offset": 0,
        "slot": "60",
        "type": "t_contract(IDAOGovernorBooster)16033"
      },
      {
        "astId": 13563,
        "contract": "contracts/Terminal.sol:Terminal",
        "label": "bluechipsBooster",
        "offset": 0,
        "slot": "61",
        "type": "t_contract(IBluechipsBooster)15782"
      },
      {
        "astId": 13567,
        "contract": "contracts/Terminal.sol:Terminal",
        "label": "terminalDirectory",
        "offset": 0,
        "slot": "62",
        "type": "t_contract(ITerminalDirectory)17161"
      },
      {
        "astId": 13571,
        "contract": "contracts/Terminal.sol:Terminal",
        "label": "payoutStore",
        "offset": 0,
        "slot": "63",
        "type": "t_contract(IPayoutStore)16670"
      }
    ],
    "types": {
      "t_address": {
        "encoding": "inplace",
        "label": "address",
        "numberOfBytes": "20"
      },
      "t_array(t_uint256)49_storage": {
        "base": "t_uint256",
        "encoding": "inplace",
        "label": "uint256[49]",
        "numberOfBytes": "1568"
      },
      "t_bool": {
        "encoding": "inplace",
        "label": "bool",
        "numberOfBytes": "1"
      },
      "t_contract(IBluechipsBooster)15782": {
        "encoding": "inplace",
        "label": "contract IBluechipsBooster",
        "numberOfBytes": "20"
      },
      "t_contract(IDAOGovernorBooster)16033": {
        "encoding": "inplace",
        "label": "contract IDAOGovernorBooster",
        "numberOfBytes": "20"
      },
      "t_contract(IFundingCycles)16278": {
        "encoding": "inplace",
        "label": "contract IFundingCycles",
        "numberOfBytes": "20"
      },
      "t_contract(IMembershipPassBooth)16616": {
        "encoding": "inplace",
        "label": "contract IMembershipPassBooth",
        "numberOfBytes": "20"
      },
      "t_contract(IPayoutStore)16670": {
        "encoding": "inplace",
        "label": "contract IPayoutStore",
        "numberOfBytes": "20"
      },
      "t_contract(IProjects)16755": {
        "encoding": "inplace",
        "label": "contract IProjects",
        "numberOfBytes": "20"
      },
      "t_contract(ITerminalDirectory)17161": {
        "encoding": "inplace",
        "label": "contract ITerminalDirectory",
        "numberOfBytes": "20"
      },
      "t_mapping(t_uint256,t_uint256)": {
        "encoding": "mapping",
        "key": "t_uint256",
        "label": "mapping(uint256 => uint256)",
        "numberOfBytes": "32",
        "value": "t_uint256"
      },
      "t_uint256": {
        "encoding": "inplace",
        "label": "uint256",
        "numberOfBytes": "32"
      }
    }
  }
}