{
  "address": "0x22f3c559e8b31817f25Df62786924b593cC5776E",
  "abi": [
    {
      "inputs": [
        {
          "internalType": "contract IProjects",
          "name": "_projects",
          "type": "address"
        }
      ],
      "stateMutability": "nonpayable",
      "type": "constructor"
    },
    {
      "inputs": [],
      "name": "UnAuthorized",
      "type": "error"
    },
    {
      "inputs": [],
      "name": "UnknowTerminal",
      "type": "error"
    },
    {
      "inputs": [],
      "name": "ZeroAddress",
      "type": "error"
    },
    {
      "anonymous": false,
      "inputs": [
        {
          "indexed": true,
          "internalType": "uint256",
          "name": "projectId",
          "type": "uint256"
        },
        {
          "indexed": true,
          "internalType": "contract ITerminal",
          "name": "terminal",
          "type": "address"
        },
        {
          "indexed": false,
          "internalType": "address",
          "name": "caller",
          "type": "address"
        }
      ],
      "name": "SetTerminal",
      "type": "event"
    },
    {
      "inputs": [],
      "name": "projects",
      "outputs": [
        {
          "internalType": "contract IProjects",
          "name": "",
          "type": "address"
        }
      ],
      "stateMutability": "view",
      "type": "function"
    },
    {
      "inputs": [
        {
          "internalType": "uint256",
          "name": "_projectId",
          "type": "uint256"
        },
        {
          "internalType": "contract ITerminal",
          "name": "_terminal",
          "type": "address"
        }
      ],
      "name": "setTerminal",
      "outputs": [],
      "stateMutability": "nonpayable",
      "type": "function"
    },
    {
      "inputs": [
        {
          "internalType": "uint256",
          "name": "",
          "type": "uint256"
        }
      ],
      "name": "terminalOf",
      "outputs": [
        {
          "internalType": "contract ITerminal",
          "name": "",
          "type": "address"
        }
      ],
      "stateMutability": "view",
      "type": "function"
    }
  ],
  "transactionHash": "0x2ccb7da2049ed82dc0c12b6fc1998a1263772cc16d67832dbe1d8301b7efdb83",
  "args": [
    "0x145499F59c7C919266C7B2268c323eE7dB3B0079"
  ],
  "numDeployments": 1,
  "solcInputHash": "4e9316abea9744a68b7555d93f5656d5",
  "bytecode": "0x60a060405234801561001057600080fd5b5060405161044838038061044883398101604081905261002f91610044565b60601b6001600160601b031916608052610072565b600060208284031215610055578081fd5b81516001600160a01b038116811461006b578182fd5b9392505050565b60805160601c6103ac61009c6000396000818160900152818160f301526101b501526103ac6000f3fe608060405234801561001057600080fd5b50600436106100415760003560e01c80634fe0eced146100465780638b79543c1461008b5780639fc9ea47146100b2575b600080fd5b61006f610054366004610324565b6000602081905290815260409020546001600160a01b031681565b6040516001600160a01b03909116815260200160405180910390f35b61006f7f000000000000000000000000000000000000000000000000000000000000000081565b6100c56100c036600461033c565b6100c7565b005b6000828152602081905260409020546001600160a01b0316801580156101275750336001600160a01b037f00000000000000000000000000000000000000000000000000000000000000001614806101275750336001600160a01b038316145b8061013a5750336001600160a01b038216145b61019f5760405162461bcd60e51b815260206004820152602c60248201527f5465726d696e616c4469726563746f72793a3a7365745465726d696e616c3a2060448201526b15539055551213d49256915160a21b606482015260840160405180910390fd5b604051634f558e7960e01b8152600481018490527f00000000000000000000000000000000000000000000000000000000000000006001600160a01b031690634f558e799060240160206040518083038186803b1580156101ff57600080fd5b505afa158015610213573d6000803e3d6000fd5b505050506040513d601f19601f8201168201806040525081019061023791906102fd565b6102545760405163fd07c52b60e01b815260040160405180910390fd5b6001600160a01b03821661027b5760405163d92e233d60e01b815260040160405180910390fd5b816001600160a01b0316816001600160a01b0316141561029a57505050565b6000838152602081815260409182902080546001600160a01b0319166001600160a01b038616908117909155915133815285917f6780b115550b4a9f66ac0fa6f3eed2769911165bc5d87ad966769dbbbfae1dbe910160405180910390a3505050565b60006020828403121561030e578081fd5b8151801515811461031d578182fd5b9392505050565b600060208284031215610335578081fd5b5035919050565b6000806040838503121561034e578081fd5b8235915060208301356001600160a01b038116811461036b578182fd5b80915050925092905056fea26469706673582212203eb7ebd99dfdd96a918f2b9d219edabf3b06b580477060e3e7eee2c12802308164736f6c63430008040033",
  "devdoc": {
    "kind": "dev",
    "methods": {
      "constructor": {
        "params": {
          "_projects": "A Projects contract which mints ERC-721's that represent project ownership and transfers."
        }
      },
      "setTerminal(uint256,address)": {
        "params": {
          "_projectId": "The ID of the project to set a new terminal for.",
          "_terminal": "The new terminal to set."
        }
      }
    },
    "version": 1
  },
  "userdoc": {
    "kind": "user",
    "methods": {
      "setTerminal(uint256,address)": {
        "notice": "Update the terminal"
      }
    },
    "notice": "Allows project owners to deploy proxy contracts that can pay them when receiving funds directly.",
    "version": 1
  },
  "storageLayout": {
    "storage": [
      {
        "astId": 15278,
        "contract": "contracts/TerminalDirectory.sol:TerminalDirectory",
        "label": "terminalOf",
        "offset": 0,
        "slot": "0",
        "type": "t_mapping(t_uint256,t_contract(ITerminal)17119)"
      }
    ],
    "types": {
      "t_contract(ITerminal)17119": {
        "encoding": "inplace",
        "label": "contract ITerminal",
        "numberOfBytes": "20"
      },
      "t_mapping(t_uint256,t_contract(ITerminal)17119)": {
        "encoding": "mapping",
        "key": "t_uint256",
        "label": "mapping(uint256 => contract ITerminal)",
        "numberOfBytes": "32",
        "value": "t_contract(ITerminal)17119"
      },
      "t_uint256": {
        "encoding": "inplace",
        "label": "uint256",
        "numberOfBytes": "32"
      }
    }
  }
}